{
  "_format": "hh-sol-artifact-1",
  "contractName": "GeoWebCoordinate",
  "sourceName": "contracts/GeoWebCoordinate.sol",
  "abi": [
    {
      "inputs": [
        {
          "internalType": "uint64",
          "name": "coord",
          "type": "uint64"
        }
      ],
      "name": "toWordIndex",
      "outputs": [
        {
          "internalType": "uint256",
          "name": "i_x",
          "type": "uint256"
        },
        {
          "internalType": "uint256",
          "name": "i_y",
          "type": "uint256"
        },
        {
          "internalType": "uint256",
          "name": "i",
          "type": "uint256"
        }
      ],
      "stateMutability": "pure",
      "type": "function"
    },
    {
      "inputs": [
        {
          "internalType": "uint64",
          "name": "origin",
          "type": "uint64"
        },
        {
          "internalType": "uint256",
          "name": "direction",
          "type": "uint256"
        },
        {
          "internalType": "uint256",
          "name": "_i_x",
          "type": "uint256"
        },
        {
          "internalType": "uint256",
          "name": "_i_y",
          "type": "uint256"
        },
        {
          "internalType": "uint256",
          "name": "_i",
          "type": "uint256"
        }
      ],
      "name": "traverse",
      "outputs": [
        {
          "internalType": "uint64",
          "name": "destination",
          "type": "uint64"
        },
        {
          "internalType": "uint256",
          "name": "i_x",
          "type": "uint256"
        },
        {
          "internalType": "uint256",
          "name": "i_y",
          "type": "uint256"
        },
        {
          "internalType": "uint256",
          "name": "i",
          "type": "uint256"
        }
      ],
      "stateMutability": "pure",
      "type": "function"
    }
  ],
  "bytecode": "0x610a1e610026600b82828239805160001a60731461001957fe5b30600052607381538281f3fe73000000000000000000000000000000000000000030146080604052600436106100405760003560e01c80632b4926e314610045578063ad78309f1461009f575b600080fd5b61007b6004803603602081101561005b57600080fd5b81019080803567ffffffffffffffff16906020019092919050505061013c565b60405180848152602001838152602001828152602001935050505060405180910390f35b6100fd600480360360a08110156100b557600080fd5b81019080803567ffffffffffffffff16906020019092919080359060200190929190803590602001909291908035906020019092919080359060200190929190505050610157565b604051808567ffffffffffffffff1667ffffffffffffffff16815260200184815260200183815260200182815260200194505050505060405180910390f35b600080600061014a8461017e565b9250925092509193909250565b60008060008061016a898989898961023f565b935093509350935095509550955095915050565b60008060008061018d8561055c565b67ffffffffffffffff16905060006101a486610601565b67ffffffffffffffff1690506101c460108361069e90919063ffffffff16565b94506101da60108261069e90919063ffffffff16565b935060006101f26010846106e890919063ffffffff16565b9050600061020a6010846106e890919063ffffffff16565b90506102328261022460108461073290919063ffffffff16565b6107b890919063ffffffff16565b9450505050509193909250565b60008060008060006102508a61055c565b9050600061025d8b610601565b905088945087935086925060008a1415610348576001810190506203ffff67ffffffffffffffff168167ffffffffffffffff161115610304576040517f08c379a000000000000000000000000000000000000000000000000000000000815260040180806020018281038252601d8152602001807f446972656374696f6e2077656e7420746f6f20666172206e6f7274682100000081525060200191505060405180910390fd5b600060108267ffffffffffffffff168161031a57fe5b0667ffffffffffffffff16141561033c5760018401935060f083039250610343565b6010830192505b61053b565b60018a141561041b5760008167ffffffffffffffff16116103d1576040517f08c379a000000000000000000000000000000000000000000000000000000000815260040180806020018281038252601d8152602001807f446972656374696f6e2077656e7420746f6f2066617220736f7574682100000081525060200191505060405180910390fd5b600181039050600f60108267ffffffffffffffff16816103ed57fe5b0667ffffffffffffffff16141561040f5760018403935060f083019250610416565b6010830392505b61053a565b60028a14156104a0576207ffff67ffffffffffffffff168267ffffffffffffffff1610610455576000915060009450600f8303925061049b565b600182019150600060108367ffffffffffffffff168161047157fe5b0667ffffffffffffffff16141561049357600185019450600f8303925061049a565b6001830192505b5b610539565b60038a14156105385760008267ffffffffffffffff1614156104f1576207ffff915060106207ffff67ffffffffffffffff16816104d957fe5b0467ffffffffffffffff169450600f83019250610537565b600182039150600f60108367ffffffffffffffff168161050d57fe5b0667ffffffffffffffff16141561052f57600185039450600f83019250610536565b6001830392505b5b5b5b5b5b60208267ffffffffffffffff16901b81179550505095509550955095915050565b600060208267ffffffffffffffff16901c90506207ffff67ffffffffffffffff168167ffffffffffffffff1611156105fc576040517f08c379a000000000000000000000000000000000000000000000000000000000815260040180806020018281038252601d8152602001807f5820636f6f7264696e617465206973206f7574206f6620626f756e647300000081525060200191505060405180910390fd5b919050565b600063ffffffff821690506203ffff67ffffffffffffffff168167ffffffffffffffff161115610699576040517f08c379a000000000000000000000000000000000000000000000000000000000815260040180806020018281038252601d8152602001807f5920636f6f7264696e617465206973206f7574206f6620626f756e647300000081525060200191505060405180910390fd5b919050565b60006106e083836040518060400160405280601a81526020017f536166654d6174683a206469766973696f6e206279207a65726f000000000000815250610840565b905092915050565b600061072a83836040518060400160405280601881526020017f536166654d6174683a206d6f64756c6f206279207a65726f0000000000000000815250610906565b905092915050565b60008083141561074557600090506107b2565b600082840290508284828161075657fe5b04146107ad576040517f08c379a00000000000000000000000000000000000000000000000000000000081526004018080602001828103825260218152602001806109c86021913960400191505060405180910390fd5b809150505b92915050565b600080828401905083811015610836576040517f08c379a000000000000000000000000000000000000000000000000000000000815260040180806020018281038252601b8152602001807f536166654d6174683a206164646974696f6e206f766572666c6f77000000000081525060200191505060405180910390fd5b8091505092915050565b600080831182906108ec576040517f08c379a00000000000000000000000000000000000000000000000000000000081526004018080602001828103825283818151815260200191508051906020019080838360005b838110156108b1578082015181840152602081019050610896565b50505050905090810190601f1680156108de5780820380516001836020036101000a031916815260200191505b509250505060405180910390fd5b5060008385816108f857fe5b049050809150509392505050565b60008083141582906109b3576040517f08c379a00000000000000000000000000000000000000000000000000000000081526004018080602001828103825283818151815260200191508051906020019080838360005b8381101561097857808201518184015260208101905061095d565b50505050905090810190601f1680156109a55780820380516001836020036101000a031916815260200191505b509250505060405180910390fd5b508284816109bd57fe5b069050939250505056fe536166654d6174683a206d756c7469706c69636174696f6e206f766572666c6f77a2646970667358221220f3fa060d80125041617fe4ad332f1dfbcd7abc5bf0bc487233fb6e9f99d2fa2864736f6c63430006020033",
  "linkReferences": {},
  "deployedLinkReferences": {}
}