{
  "_format": "hh-sol-artifact-1",
  "contractName": "GeoWebCoordinatePath",
  "sourceName": "contracts/GeoWebCoordinate.sol",
  "abi": [
    {
      "inputs": [
        {
          "internalType": "uint256",
          "name": "path",
          "type": "uint256"
        }
      ],
      "name": "nextDirection",
      "outputs": [
        {
          "internalType": "bool",
          "name": "hasNext",
          "type": "bool"
        },
        {
          "internalType": "uint256",
          "name": "direction",
          "type": "uint256"
        },
        {
          "internalType": "uint256",
          "name": "nextPath",
          "type": "uint256"
        }
      ],
      "stateMutability": "pure",
      "type": "function"
    }
  ],
  "bytecode": "0x610107610026600b82828239805160001a60731461001957fe5b30600052607381538281f3fe730000000000000000000000000000000000000000301460806040526004361060335760003560e01c8063f2cc1433146038575b600080fd5b605260048036036020811015604c57600080fd5b50356072565b604080519315158452602084019290925282820152519081900360600190f35b6000806000607e84608c565b9250925092505b9193909250565b60f881901c8015159060009081908360aa5750600091508190506085565b6003851692506001600160f61b03600286901c1660001990910160f81b179050919390925056fea26469706673582212209587e56a92bfcece6354496e7f6e8ea01e28750fff0c5fad897911ce6cfc9e3464736f6c63430006020033",
  "linkReferences": {},
  "deployedLinkReferences": {}
}