{
  "_format": "hh-sol-artifact-1",
  "contractName": "GeoWebCoordinate",
  "sourceName": "contracts/GeoWebCoordinate.sol",
  "abi": [
    {
      "inputs": [
        {
          "internalType": "uint64",
          "name": "coord",
          "type": "uint64"
        }
      ],
      "name": "toWordIndex",
      "outputs": [
        {
          "internalType": "uint256",
          "name": "i_x",
          "type": "uint256"
        },
        {
          "internalType": "uint256",
          "name": "i_y",
          "type": "uint256"
        },
        {
          "internalType": "uint256",
          "name": "i",
          "type": "uint256"
        }
      ],
      "stateMutability": "pure",
      "type": "function"
    },
    {
      "inputs": [
        {
          "internalType": "uint64",
          "name": "origin",
          "type": "uint64"
        },
        {
          "internalType": "uint256",
          "name": "direction",
          "type": "uint256"
        },
        {
          "internalType": "uint256",
          "name": "_i_x",
          "type": "uint256"
        },
        {
          "internalType": "uint256",
          "name": "_i_y",
          "type": "uint256"
        },
        {
          "internalType": "uint256",
          "name": "_i",
          "type": "uint256"
        }
      ],
      "name": "traverse",
      "outputs": [
        {
          "internalType": "uint64",
          "name": "destination",
          "type": "uint64"
        },
        {
          "internalType": "uint256",
          "name": "i_x",
          "type": "uint256"
        },
        {
          "internalType": "uint256",
          "name": "i_y",
          "type": "uint256"
        },
        {
          "internalType": "uint256",
          "name": "i",
          "type": "uint256"
        }
      ],
      "stateMutability": "pure",
      "type": "function"
    }
  ],
  "bytecode": "0x61078b610026600b82828239805160001a60731461001957fe5b30600052607381538281f3fe73000000000000000000000000000000000000000030146080604052600436106100405760003560e01c80632b4926e314610045578063ad78309f1461008a575b600080fd5b61006c6004803603602081101561005b57600080fd5b503567ffffffffffffffff166100fa565b60408051938452602084019290925282820152519081900360600190f35b6100c9600480360360a08110156100a057600080fd5b5067ffffffffffffffff8135169060208101359060408101359060608101359060800135610115565b6040805167ffffffffffffffff90951685526020850193909352838301919091526060830152519081900360800190f35b60008060006101088461013b565b9250925092509193909250565b60008060008061012889898989896101ea565b929c919b50995090975095505050505050565b60008060008061014a85610429565b67ffffffffffffffff169050600061016186610491565b67ffffffffffffffff16905061017e82601063ffffffff6104f016565b945061019181601063ffffffff6104f016565b935060006101a683601063ffffffff61053b16565b905060006101bb83601063ffffffff61053b16565b90506101de826101d283601063ffffffff61057d16565b9063ffffffff6105d616565b96989597505050505050565b60008060008060006101fb8a610429565b905060006102088b610491565b8995508894508793509050896102a2576001016203ffff67ffffffffffffffff8216111561027d576040805162461bcd60e51b815260206004820152601d60248201527f446972656374696f6e2077656e7420746f6f20666172206e6f72746821000000604482015290519081900360640190fd5b600f81166102965760018401935060f08303925061029d565b6010830192505b610408565b89600114156103355760008167ffffffffffffffff161161030a576040805162461bcd60e51b815260206004820152601d60248201527f446972656374696f6e2077656e7420746f6f2066617220736f75746821000000604482015290519081900360640190fd5b60001901600f808216141561032a5760018403935060f08301925061029d565b601083039250610408565b89600214156103ae576207ffff67ffffffffffffffff831610610365576000915060009450600f8303925061029d565b60018201915060108267ffffffffffffffff168161037f57fe5b0667ffffffffffffffff16600014156103a357600185019450600f8303925061029d565b600183019250610408565b89600314156104085767ffffffffffffffff82166103dd57617fff9450600f92909201916207ffff9150610408565b6000199190910190600f808316141561040157600185039450600f83019250610408565b6001830392505b60208267ffffffffffffffff16901b81179550505095509550955095915050565b63ffffffff602082901c166207ffff81111561048c576040805162461bcd60e51b815260206004820152601d60248201527f5820636f6f7264696e617465206973206f7574206f6620626f756e6473000000604482015290519081900360640190fd5b919050565b63ffffffff81166203ffff81111561048c576040805162461bcd60e51b815260206004820152601d60248201527f5920636f6f7264696e617465206973206f7574206f6620626f756e6473000000604482015290519081900360640190fd5b600061053283836040518060400160405280601a81526020017f536166654d6174683a206469766973696f6e206279207a65726f000000000000815250610630565b90505b92915050565b600061053283836040518060400160405280601881526020017f536166654d6174683a206d6f64756c6f206279207a65726f00000000000000008152506106d2565b60008261058c57506000610535565b8282028284828161059957fe5b04146105325760405162461bcd60e51b81526004018080602001828103825260218152602001806107356021913960400191505060405180910390fd5b600082820183811015610532576040805162461bcd60e51b815260206004820152601b60248201527f536166654d6174683a206164646974696f6e206f766572666c6f770000000000604482015290519081900360640190fd5b600081836106bc5760405162461bcd60e51b81526004018080602001828103825283818151815260200191508051906020019080838360005b83811015610681578181015183820152602001610669565b50505050905090810190601f1680156106ae5780820380516001836020036101000a031916815260200191505b509250505060405180910390fd5b5060008385816106c857fe5b0495945050505050565b600081836107215760405162461bcd60e51b8152602060048201818152835160248401528351909283926044909101919085019080838360008315610681578181015183820152602001610669565b5082848161072b57fe5b0694935050505056fe536166654d6174683a206d756c7469706c69636174696f6e206f766572666c6f77a2646970667358221220d9e535ed11775fdd22446adff8094b79d5d4fe3aea4fad41de2cf1ff1071e73064736f6c63430006020033",
  "linkReferences": {},
  "deployedLinkReferences": {}
}