{
  "_format": "hh-sol-artifact-1",
  "contractName": "GeoWebCoordinatePath",
  "sourceName": "contracts/GeoWebCoordinate.sol",
  "abi": [
    {
      "inputs": [
        {
          "internalType": "uint256",
          "name": "path",
          "type": "uint256"
        }
      ],
      "name": "nextDirection",
      "outputs": [
        {
          "internalType": "bool",
          "name": "hasNext",
          "type": "bool"
        },
        {
          "internalType": "uint256",
          "name": "direction",
          "type": "uint256"
        },
        {
          "internalType": "uint256",
          "name": "nextPath",
          "type": "uint256"
        }
      ],
      "stateMutability": "pure",
      "type": "function"
    }
  ],
  "bytecode": "0x610153610026600b82828239805160001a60731461001957fe5b30600052607381538281f3fe73000000000000000000000000000000000000000030146080604052600436106100355760003560e01c8063f2cc14331461003a575b600080fd5b6100666004803603602081101561005057600080fd5b810190808035906020019092919050505061008e565b6040518084151515158152602001838152602001828152602001935050505060405180910390f35b600080600061009c846100a9565b9250925092509193909250565b60008060008060f885901c9050600081119350836100d7578360008081915080905093509350935050610116565b60007effffffffffffffffffffffffffffffffffffffffffffffffffffffffffffff8616905060038116935060f860018303901b600282901c17925050505b919390925056fea26469706673582212205f36c64255d473bb279aa8db29d0535efbec06eed9e93e82ef89c8acaaab5b8364736f6c63430006020033",
  "linkReferences": {},
  "deployedLinkReferences": {}
}