{
  "_format": "hh-sol-artifact-1",
  "contractName": "ERC20Mock",
  "sourceName": "contracts/ERC20Mock.sol",
  "abi": [
    {
      "inputs": [],
      "stateMutability": "nonpayable",
      "type": "constructor"
    },
    {
      "anonymous": false,
      "inputs": [
        {
          "indexed": true,
          "internalType": "address",
          "name": "owner",
          "type": "address"
        },
        {
          "indexed": true,
          "internalType": "address",
          "name": "spender",
          "type": "address"
        },
        {
          "indexed": false,
          "internalType": "uint256",
          "name": "value",
          "type": "uint256"
        }
      ],
      "name": "Approval",
      "type": "event"
    },
    {
      "anonymous": false,
      "inputs": [
        {
          "indexed": true,
          "internalType": "address",
          "name": "from",
          "type": "address"
        },
        {
          "indexed": true,
          "internalType": "address",
          "name": "to",
          "type": "address"
        },
        {
          "indexed": false,
          "internalType": "uint256",
          "name": "value",
          "type": "uint256"
        }
      ],
      "name": "Transfer",
      "type": "event"
    },
    {
      "inputs": [
        {
          "internalType": "address",
          "name": "owner",
          "type": "address"
        },
        {
          "internalType": "address",
          "name": "spender",
          "type": "address"
        }
      ],
      "name": "allowance",
      "outputs": [
        {
          "internalType": "uint256",
          "name": "",
          "type": "uint256"
        }
      ],
      "stateMutability": "view",
      "type": "function"
    },
    {
      "inputs": [
        {
          "internalType": "address",
          "name": "spender",
          "type": "address"
        },
        {
          "internalType": "uint256",
          "name": "amount",
          "type": "uint256"
        }
      ],
      "name": "approve",
      "outputs": [
        {
          "internalType": "bool",
          "name": "",
          "type": "bool"
        }
      ],
      "stateMutability": "nonpayable",
      "type": "function"
    },
    {
      "inputs": [
        {
          "internalType": "address",
          "name": "account",
          "type": "address"
        }
      ],
      "name": "balanceOf",
      "outputs": [
        {
          "internalType": "uint256",
          "name": "",
          "type": "uint256"
        }
      ],
      "stateMutability": "view",
      "type": "function"
    },
    {
      "inputs": [
        {
          "internalType": "address[]",
          "name": "_tokens",
          "type": "address[]"
        },
        {
          "internalType": "address",
          "name": "_to",
          "type": "address"
        },
        {
          "internalType": "uint256[]",
          "name": "_amounts",
          "type": "uint256[]"
        }
      ],
      "name": "batchTransfer",
      "outputs": [],
      "stateMutability": "nonpayable",
      "type": "function"
    },
    {
      "inputs": [],
      "name": "decimals",
      "outputs": [
        {
          "internalType": "uint8",
          "name": "",
          "type": "uint8"
        }
      ],
      "stateMutability": "view",
      "type": "function"
    },
    {
      "inputs": [
        {
          "internalType": "address",
          "name": "spender",
          "type": "address"
        },
        {
          "internalType": "uint256",
          "name": "subtractedValue",
          "type": "uint256"
        }
      ],
      "name": "decreaseAllowance",
      "outputs": [
        {
          "internalType": "bool",
          "name": "",
          "type": "bool"
        }
      ],
      "stateMutability": "nonpayable",
      "type": "function"
    },
    {
      "inputs": [
        {
          "internalType": "address",
          "name": "spender",
          "type": "address"
        },
        {
          "internalType": "uint256",
          "name": "addedValue",
          "type": "uint256"
        }
      ],
      "name": "increaseAllowance",
      "outputs": [
        {
          "internalType": "bool",
          "name": "",
          "type": "bool"
        }
      ],
      "stateMutability": "nonpayable",
      "type": "function"
    },
    {
      "inputs": [
        {
          "internalType": "address",
          "name": "_address",
          "type": "address"
        },
        {
          "internalType": "uint256",
          "name": "_amount",
          "type": "uint256"
        }
      ],
      "name": "mockMint",
      "outputs": [],
      "stateMutability": "nonpayable",
      "type": "function"
    },
    {
      "inputs": [],
      "name": "name",
      "outputs": [
        {
          "internalType": "string",
          "name": "",
          "type": "string"
        }
      ],
      "stateMutability": "view",
      "type": "function"
    },
    {
      "inputs": [],
      "name": "symbol",
      "outputs": [
        {
          "internalType": "string",
          "name": "",
          "type": "string"
        }
      ],
      "stateMutability": "view",
      "type": "function"
    },
    {
      "inputs": [],
      "name": "totalSupply",
      "outputs": [
        {
          "internalType": "uint256",
          "name": "",
          "type": "uint256"
        }
      ],
      "stateMutability": "view",
      "type": "function"
    },
    {
      "inputs": [
        {
          "internalType": "address",
          "name": "recipient",
          "type": "address"
        },
        {
          "internalType": "uint256",
          "name": "amount",
          "type": "uint256"
        }
      ],
      "name": "transfer",
      "outputs": [
        {
          "internalType": "bool",
          "name": "",
          "type": "bool"
        }
      ],
      "stateMutability": "nonpayable",
      "type": "function"
    },
    {
      "inputs": [
        {
          "internalType": "address",
          "name": "sender",
          "type": "address"
        },
        {
          "internalType": "address",
          "name": "recipient",
          "type": "address"
        },
        {
          "internalType": "uint256",
          "name": "amount",
          "type": "uint256"
        }
      ],
      "name": "transferFrom",
      "outputs": [
        {
          "internalType": "bool",
          "name": "",
          "type": "bool"
        }
      ],
      "stateMutability": "nonpayable",
      "type": "function"
    }
  ],
  "bytecode": "0x608060405234801561001057600080fd5b506040518060400160405280600381526020016247454f60e81b8152506040518060400160405280600381526020016247454f60e81b815250816003908051906020019061005f929190610088565b508051610073906004906020840190610088565b50506005805460ff1916601217905550610123565b828054600181600116156101000203166002900490600052602060002090601f016020900481019282601f106100c957805160ff19168380011785556100f6565b828001600101855582156100f6579182015b828111156100f65782518255916020019190600101906100db565b50610102929150610106565b5090565b61012091905b80821115610102576000815560010161010c565b90565b610d11806101326000396000f3fe608060405234801561001057600080fd5b50600436106100cf5760003560e01c8063378934b41161008c57806395d89b411161006657806395d89b411461034e578063a457c2d714610356578063a9059cbb14610382578063dd62ed3e146103ae576100cf565b8063378934b4146102d057806339509351146102fc57806370a0823114610328576100cf565b806306fdde03146100d4578063095ea7b31461015157806318160ddd1461019157806323b872dd146101ab5780632e72102f146101e1578063313ce567146102b2575b600080fd5b6100dc6103dc565b6040805160208082528351818301528351919283929083019185019080838360005b838110156101165781810151838201526020016100fe565b50505050905090810190601f1680156101435780820380516001836020036101000a031916815260200191505b509250505060405180910390f35b61017d6004803603604081101561016757600080fd5b506001600160a01b038135169060200135610472565b604080519115158252519081900360200190f35b61019961048f565b60408051918252519081900360200190f35b61017d600480360360608110156101c157600080fd5b506001600160a01b03813581169160208101359091169060400135610495565b6102b0600480360360608110156101f757600080fd5b81019060208101813564010000000081111561021257600080fd5b82018360208201111561022457600080fd5b8035906020019184602083028401116401000000008311171561024657600080fd5b919390926001600160a01b038335169260408101906020013564010000000081111561027157600080fd5b82018360208201111561028357600080fd5b803590602001918460208302840111640100000000831117156102a557600080fd5b509092509050610522565b005b6102ba6105f6565b6040805160ff9092168252519081900360200190f35b6102b0600480360360408110156102e657600080fd5b506001600160a01b0381351690602001356105ff565b61017d6004803603604081101561031257600080fd5b506001600160a01b03813516906020013561060d565b6101996004803603602081101561033e57600080fd5b50356001600160a01b0316610661565b6100dc61067c565b61017d6004803603604081101561036c57600080fd5b506001600160a01b0381351690602001356106dd565b61017d6004803603604081101561039857600080fd5b506001600160a01b03813516906020013561074b565b610199600480360360408110156103c457600080fd5b506001600160a01b038135811691602001351661075f565b60038054604080516020601f60026000196101006001881615020190951694909404938401819004810282018101909252828152606093909290918301828280156104685780601f1061043d57610100808354040283529160200191610468565b820191906000526020600020905b81548152906001019060200180831161044b57829003601f168201915b5050505050905090565b600061048661047f61078a565b848461078e565b50600192915050565b60025490565b60006104a284848461087a565b610518846104ae61078a565b61051385604051806060016040528060288152602001610c46602891396001600160a01b038a166000908152600160205260408120906104ec61078a565b6001600160a01b03168152602081019190915260400160002054919063ffffffff6109e116565b61078e565b5060019392505050565b60005b818110156105ee5785858281811061053957fe5b905060200201356001600160a01b03166001600160a01b031663a9059cbb8585858581811061056457fe5b905060200201356040518363ffffffff1660e01b815260040180836001600160a01b03166001600160a01b0316815260200182815260200192505050602060405180830381600087803b1580156105ba57600080fd5b505af11580156105ce573d6000803e3d6000fd5b505050506040513d60208110156105e457600080fd5b5050600101610525565b505050505050565b60055460ff1690565b6106098282610a78565b5050565b600061048661061a61078a565b84610513856001600061062b61078a565b6001600160a01b03908116825260208083019390935260409182016000908120918c16815292529020549063ffffffff610b7416565b6001600160a01b031660009081526020819052604090205490565b60048054604080516020601f60026000196101006001881615020190951694909404938401819004810282018101909252828152606093909290918301828280156104685780601f1061043d57610100808354040283529160200191610468565b60006104866106ea61078a565b8461051385604051806060016040528060258152602001610cb7602591396001600061071461078a565b6001600160a01b03908116825260208083019390935260409182016000908120918d1681529252902054919063ffffffff6109e116565b600061048661075861078a565b848461087a565b6001600160a01b03918216600090815260016020908152604080832093909416825291909152205490565b3390565b6001600160a01b0383166107d35760405162461bcd60e51b8152600401808060200182810382526024815260200180610c936024913960400191505060405180910390fd5b6001600160a01b0382166108185760405162461bcd60e51b8152600401808060200182810382526022815260200180610bfe6022913960400191505060405180910390fd5b6001600160a01b03808416600081815260016020908152604080832094871680845294825291829020859055815185815291517f8c5be1e5ebec7d5bd14f71427d1e84f3dd0314c0f7b2291e5b200ac8c7c3b9259281900390910190a3505050565b6001600160a01b0383166108bf5760405162461bcd60e51b8152600401808060200182810382526025815260200180610c6e6025913960400191505060405180910390fd5b6001600160a01b0382166109045760405162461bcd60e51b8152600401808060200182810382526023815260200180610bdb6023913960400191505060405180910390fd5b61090f838383610bd5565b61095281604051806060016040528060268152602001610c20602691396001600160a01b038616600090815260208190526040902054919063ffffffff6109e116565b6001600160a01b038085166000908152602081905260408082209390935590841681522054610987908263ffffffff610b7416565b6001600160a01b038084166000818152602081815260409182902094909455805185815290519193928716927fddf252ad1be2c89b69c2b068fc378daa952ba7f163c4a11628f55a4df523b3ef92918290030190a3505050565b60008184841115610a705760405162461bcd60e51b81526004018080602001828103825283818151815260200191508051906020019080838360005b83811015610a35578181015183820152602001610a1d565b50505050905090810190601f168015610a625780820380516001836020036101000a031916815260200191505b509250505060405180910390fd5b505050900390565b6001600160a01b038216610ad3576040805162461bcd60e51b815260206004820152601f60248201527f45524332303a206d696e7420746f20746865207a65726f206164647265737300604482015290519081900360640190fd5b610adf60008383610bd5565b600254610af2908263ffffffff610b7416565b6002556001600160a01b038216600090815260208190526040902054610b1e908263ffffffff610b7416565b6001600160a01b0383166000818152602081815260408083209490945583518581529351929391927fddf252ad1be2c89b69c2b068fc378daa952ba7f163c4a11628f55a4df523b3ef9281900390910190a35050565b600082820183811015610bce576040805162461bcd60e51b815260206004820152601b60248201527f536166654d6174683a206164646974696f6e206f766572666c6f770000000000604482015290519081900360640190fd5b9392505050565b50505056fe45524332303a207472616e7366657220746f20746865207a65726f206164647265737345524332303a20617070726f766520746f20746865207a65726f206164647265737345524332303a207472616e7366657220616d6f756e7420657863656564732062616c616e636545524332303a207472616e7366657220616d6f756e74206578636565647320616c6c6f77616e636545524332303a207472616e736665722066726f6d20746865207a65726f206164647265737345524332303a20617070726f76652066726f6d20746865207a65726f206164647265737345524332303a2064656372656173656420616c6c6f77616e63652062656c6f77207a65726fa2646970667358221220627b32f58d59e1e80c1412ddddd1324f7a144e1a756e93cb3cf806ac08075c5564736f6c63430006020033",
  "linkReferences": {},
  "deployedLinkReferences": {}
}