{
  "_format": "hh-sol-artifact-1",
  "contractName": "GeoWebParcel",
  "sourceName": "contracts/GeoWebParcel.sol",
  "abi": [
    {
      "inputs": [
        {
          "internalType": "address",
          "name": "minter",
          "type": "address"
        }
      ],
      "stateMutability": "nonpayable",
      "type": "constructor"
    },
    {
      "anonymous": false,
      "inputs": [
        {
          "indexed": true,
          "internalType": "uint256",
          "name": "_id",
          "type": "uint256"
        }
      ],
      "name": "MintGeoWebParcel",
      "type": "event"
    },
    {
      "anonymous": false,
      "inputs": [
        {
          "indexed": true,
          "internalType": "bytes32",
          "name": "role",
          "type": "bytes32"
        },
        {
          "indexed": true,
          "internalType": "bytes32",
          "name": "previousAdminRole",
          "type": "bytes32"
        },
        {
          "indexed": true,
          "internalType": "bytes32",
          "name": "newAdminRole",
          "type": "bytes32"
        }
      ],
      "name": "RoleAdminChanged",
      "type": "event"
    },
    {
      "anonymous": false,
      "inputs": [
        {
          "indexed": true,
          "internalType": "bytes32",
          "name": "role",
          "type": "bytes32"
        },
        {
          "indexed": true,
          "internalType": "address",
          "name": "account",
          "type": "address"
        },
        {
          "indexed": true,
          "internalType": "address",
          "name": "sender",
          "type": "address"
        }
      ],
      "name": "RoleGranted",
      "type": "event"
    },
    {
      "anonymous": false,
      "inputs": [
        {
          "indexed": true,
          "internalType": "bytes32",
          "name": "role",
          "type": "bytes32"
        },
        {
          "indexed": true,
          "internalType": "address",
          "name": "account",
          "type": "address"
        },
        {
          "indexed": true,
          "internalType": "address",
          "name": "sender",
          "type": "address"
        }
      ],
      "name": "RoleRevoked",
      "type": "event"
    },
    {
      "inputs": [],
      "name": "DEFAULT_ADMIN_ROLE",
      "outputs": [
        {
          "internalType": "bytes32",
          "name": "",
          "type": "bytes32"
        }
      ],
      "stateMutability": "view",
      "type": "function"
    },
    {
      "inputs": [],
      "name": "MINTER_ROLE",
      "outputs": [
        {
          "internalType": "bytes32",
          "name": "",
          "type": "bytes32"
        }
      ],
      "stateMutability": "view",
      "type": "function"
    },
    {
      "inputs": [
        {
          "internalType": "uint256",
          "name": "",
          "type": "uint256"
        },
        {
          "internalType": "uint256",
          "name": "",
          "type": "uint256"
        }
      ],
      "name": "availabilityIndex",
      "outputs": [
        {
          "internalType": "uint256",
          "name": "",
          "type": "uint256"
        }
      ],
      "stateMutability": "view",
      "type": "function"
    },
    {
      "inputs": [
        {
          "internalType": "uint256",
          "name": "id",
          "type": "uint256"
        }
      ],
      "name": "getLandParcel",
      "outputs": [
        {
          "internalType": "uint64",
          "name": "baseCoordinate",
          "type": "uint64"
        },
        {
          "internalType": "uint256[]",
          "name": "path",
          "type": "uint256[]"
        }
      ],
      "stateMutability": "view",
      "type": "function"
    },
    {
      "inputs": [
        {
          "internalType": "bytes32",
          "name": "role",
          "type": "bytes32"
        }
      ],
      "name": "getRoleAdmin",
      "outputs": [
        {
          "internalType": "bytes32",
          "name": "",
          "type": "bytes32"
        }
      ],
      "stateMutability": "view",
      "type": "function"
    },
    {
      "inputs": [
        {
          "internalType": "bytes32",
          "name": "role",
          "type": "bytes32"
        },
        {
          "internalType": "uint256",
          "name": "index",
          "type": "uint256"
        }
      ],
      "name": "getRoleMember",
      "outputs": [
        {
          "internalType": "address",
          "name": "",
          "type": "address"
        }
      ],
      "stateMutability": "view",
      "type": "function"
    },
    {
      "inputs": [
        {
          "internalType": "bytes32",
          "name": "role",
          "type": "bytes32"
        }
      ],
      "name": "getRoleMemberCount",
      "outputs": [
        {
          "internalType": "uint256",
          "name": "",
          "type": "uint256"
        }
      ],
      "stateMutability": "view",
      "type": "function"
    },
    {
      "inputs": [
        {
          "internalType": "bytes32",
          "name": "role",
          "type": "bytes32"
        },
        {
          "internalType": "address",
          "name": "account",
          "type": "address"
        }
      ],
      "name": "grantRole",
      "outputs": [],
      "stateMutability": "nonpayable",
      "type": "function"
    },
    {
      "inputs": [
        {
          "internalType": "bytes32",
          "name": "role",
          "type": "bytes32"
        },
        {
          "internalType": "address",
          "name": "account",
          "type": "address"
        }
      ],
      "name": "hasRole",
      "outputs": [
        {
          "internalType": "bool",
          "name": "",
          "type": "bool"
        }
      ],
      "stateMutability": "view",
      "type": "function"
    },
    {
      "inputs": [
        {
          "internalType": "uint64",
          "name": "baseCoordinate",
          "type": "uint64"
        },
        {
          "internalType": "uint256[]",
          "name": "path",
          "type": "uint256[]"
        }
      ],
      "name": "mintLandParcel",
      "outputs": [
        {
          "internalType": "uint256",
          "name": "newParcelId",
          "type": "uint256"
        }
      ],
      "stateMutability": "nonpayable",
      "type": "function"
    },
    {
      "inputs": [
        {
          "internalType": "bytes32",
          "name": "role",
          "type": "bytes32"
        },
        {
          "internalType": "address",
          "name": "account",
          "type": "address"
        }
      ],
      "name": "renounceRole",
      "outputs": [],
      "stateMutability": "nonpayable",
      "type": "function"
    },
    {
      "inputs": [
        {
          "internalType": "bytes32",
          "name": "role",
          "type": "bytes32"
        },
        {
          "internalType": "address",
          "name": "account",
          "type": "address"
        }
      ],
      "name": "revokeRole",
      "outputs": [],
      "stateMutability": "nonpayable",
      "type": "function"
    }
  ],
  "bytecode": "0x60806040523480156200001157600080fd5b5060405162001c8938038062001c89833981810160405260208110156200003757600080fd5b81019080805190602001909291905050506200008f60405180807f4d494e5445525f524f4c45000000000000000000000000000000000000000000815250600b0190506040518091039020826200009e60201b60201c565b60006003819055505062000234565b620000b08282620000b460201b60201c565b5050565b620000e2816000808581526020019081526020016000206000016200015760201b620011d11790919060201c565b156200015357620000f86200018f60201b60201c565b73ffffffffffffffffffffffffffffffffffffffff168173ffffffffffffffffffffffffffffffffffffffff16837f2f8788117e7eff1d82e926ec794901d17c78024a50270940304540a733656f0d60405160405180910390a45b5050565b600062000187836000018373ffffffffffffffffffffffffffffffffffffffff1660001b6200019760201b60201c565b905092915050565b600033905090565b6000620001ab83836200021160201b60201c565b620002065782600001829080600181540180825580915050600190039060005260206000200160009091909190915055826000018054905083600101600084815260200190815260200160002081905550600190506200020b565b600090505b92915050565b600080836001016000848152602001908152602001600020541415905092915050565b611a4580620002446000396000f3fe608060405234801561001057600080fd5b50600436106100b45760003560e01c8063a03838e211610071578063a03838e2146102c1578063a217fddf14610362578063ca15c87314610380578063d5391393146103c2578063d547741f146103e0578063e7feff2e1461042e576100b4565b8063248a9ca3146100b95780632f2ff15d146100fb57806331a5ee9c1461014957806336568abe146101955780639010d07c146101e357806391d148541461025b575b600080fd5b6100e5600480360360208110156100cf57600080fd5b81019080803590602001909291905050506104cc565b6040518082815260200191505060405180910390f35b6101476004803603604081101561011157600080fd5b8101908080359060200190929190803573ffffffffffffffffffffffffffffffffffffffff1690602001909291905050506104eb565b005b61017f6004803603604081101561015f57600080fd5b810190808035906020019092919080359060200190929190505050610574565b6040518082815260200191505060405180910390f35b6101e1600480360360408110156101ab57600080fd5b8101908080359060200190929190803573ffffffffffffffffffffffffffffffffffffffff169060200190929190505050610599565b005b610219600480360360408110156101f957600080fd5b810190808035906020019092919080359060200190929190505050610632565b604051808273ffffffffffffffffffffffffffffffffffffffff1673ffffffffffffffffffffffffffffffffffffffff16815260200191505060405180910390f35b6102a76004803603604081101561027157600080fd5b8101908080359060200190929190803573ffffffffffffffffffffffffffffffffffffffff169060200190929190505050610663565b604051808215151515815260200191505060405180910390f35b61034c600480360360408110156102d757600080fd5b81019080803567ffffffffffffffff1690602001909291908035906020019064010000000081111561030857600080fd5b82018360208201111561031a57600080fd5b8035906020019184602083028401116401000000008311171561033c57600080fd5b9091929391929390505050610694565b6040518082815260200191505060405180910390f35b61036a610a6f565b6040518082815260200191505060405180910390f35b6103ac6004803603602081101561039657600080fd5b8101908080359060200190929190505050610a76565b6040518082815260200191505060405180910390f35b6103ca610a9c565b6040518082815260200191505060405180910390f35b61042c600480360360408110156103f657600080fd5b8101908080359060200190929190803573ffffffffffffffffffffffffffffffffffffffff169060200190929190505050610ad5565b005b61045a6004803603602081101561044457600080fd5b8101908080359060200190929190505050610b5e565b604051808367ffffffffffffffff1667ffffffffffffffff16815260200180602001828103825283818151815260200191508051906020019060200280838360005b838110156104b757808201518184015260208101905061049c565b50505050905001935050505060405180910390f35b6000806000838152602001908152602001600020600201549050919050565b6105116000808481526020019081526020016000206002015461050c610bf2565b610663565b610566576040517f08c379a000000000000000000000000000000000000000000000000000000000815260040180806020018281038252602f815260200180611940602f913960400191505060405180910390fd5b6105708282610bfa565b5050565b6001602052816000526040600020602052806000526040600020600091509150505481565b6105a1610bf2565b73ffffffffffffffffffffffffffffffffffffffff168173ffffffffffffffffffffffffffffffffffffffff1614610624576040517f08c379a000000000000000000000000000000000000000000000000000000000815260040180806020018281038252602f8152602001806119e1602f913960400191505060405180910390fd5b61062e8282610c8d565b5050565b600061065b82600080868152602001908152602001600020600001610d2090919063ffffffff16565b905092915050565b600061068c82600080868152602001908152602001600020600001610d3a90919063ffffffff16565b905092915050565b60006106d560405180807f4d494e5445525f524f4c45000000000000000000000000000000000000000000815250600b019050604051809103902033610663565b610747576040517f08c379a00000000000000000000000000000000000000000000000000000000081526004018080602001828103825260168152602001807f43616c6c6572206973206e6f742061206d696e7465720000000000000000000081525060200191505060405180910390fd5b600083839050116107a3576040517f08c379a00000000000000000000000000000000000000000000000000000000081526004018080602001828103825260218152602001806119c06021913960400191505060405180910390fd5b6000849050600080905060008585838181106107bb57fe5b90506020020135905060008060006107dc8667ffffffffffffffff16610d6a565b92509250925060006001600085815260200190815260200160002060008481526020019081526020016000205490505b60008260020a821614610887576040517f08c379a000000000000000000000000000000000000000000000000000000000815260040180806020018281038252601b8152602001807f436f6f7264696e617465206973206e6f7420617661696c61626c65000000000081525060200191505060405180910390fd5b8160020a8117905060008061089b87610e2b565b809950819350829450505050816108ee576001880197508b8b905088106108c357505061099a565b8b8b898181106108cf57fe5b9050602002013596506108e187610e2b565b8099508193508294505050505b600080610914838989898f67ffffffffffffffff16610e9f90949392919063ffffffff16565b809950819450829550839e505050505087821415806109335750868114155b156109895784600160008a81526020019081526020016000206000898152602001908152602001600020819055506001600083815260200190815260200160002060008281526020019081526020016000205494505b81975080965050505050600161080c575b8060016000868152602001908152602001600020600085815260200190815260200160002081905550600060026000600354815260200190815260200160002090508b8160000160006101000a81548167ffffffffffffffff021916908367ffffffffffffffff1602179055508a8a826001019190610a1a9291906118ab565b506003547f4f836ee72af7d5000dbfcf2c3d0bf563090492346e714fe5deba22c2860fa09860405160405180910390a26003549850600160036000828254019250508190555050505050505050509392505050565b6000801b81565b6000610a956000808481526020019081526020016000206000016111bc565b9050919050565b60405180807f4d494e5445525f524f4c45000000000000000000000000000000000000000000815250600b019050604051809103902081565b610afb60008084815260200190815260200160002060020154610af6610bf2565b610663565b610b50576040517f08c379a000000000000000000000000000000000000000000000000000000000815260040180806020018281038252603081526020018061196f6030913960400191505060405180910390fd5b610b5a8282610c8d565b5050565b6000606060006002600085815260200190815260200160002090508060000160009054906101000a900467ffffffffffffffff168160010180805480602002602001604051908101604052809291908181526020018280548015610be157602002820191906000526020600020905b815481526020019060010190808311610bcd575b505050505090509250925050915091565b600033905090565b610c21816000808581526020019081526020016000206000016111d190919063ffffffff16565b15610c8957610c2e610bf2565b73ffffffffffffffffffffffffffffffffffffffff168173ffffffffffffffffffffffffffffffffffffffff16837f2f8788117e7eff1d82e926ec794901d17c78024a50270940304540a733656f0d60405160405180910390a45b5050565b610cb48160008085815260200190815260200160002060000161120190919063ffffffff16565b15610d1c57610cc1610bf2565b73ffffffffffffffffffffffffffffffffffffffff168173ffffffffffffffffffffffffffffffffffffffff16837ff6391f5c32d9c69d2a47ea670b442974b53935d1edc7fd64eb21e047a839171b60405160405180910390a45b5050565b6000610d2f8360000183611231565b60001c905092915050565b6000610d62836000018373ffffffffffffffffffffffffffffffffffffffff1660001b6112b4565b905092915050565b600080600080610d79856112d7565b67ffffffffffffffff1690506000610d908661137c565b67ffffffffffffffff169050610db060108361141990919063ffffffff16565b9450610dc660108261141990919063ffffffff16565b93506000610dde60108461146390919063ffffffff16565b90506000610df660108461146390919063ffffffff16565b9050610e1e82610e106010846114ad90919063ffffffff16565b61153390919063ffffffff16565b9450505050509193909250565b60008060008060f885901c905060008111935083610e59578360008081915080905093509350935050610e98565b60007effffffffffffffffffffffffffffffffffffffffffffffffffffffffffffff8616905060038116935060f860018303901b600282901c17925050505b9193909250565b6000806000806000610eb08a6112d7565b90506000610ebd8b61137c565b905088945087935086925060008a1415610fa8576001810190506203ffff67ffffffffffffffff168167ffffffffffffffff161115610f64576040517f08c379a000000000000000000000000000000000000000000000000000000000815260040180806020018281038252601d8152602001807f446972656374696f6e2077656e7420746f6f20666172206e6f7274682100000081525060200191505060405180910390fd5b600060108267ffffffffffffffff1681610f7a57fe5b0667ffffffffffffffff161415610f9c5760018401935060f083039250610fa3565b6010830192505b61119b565b60018a141561107b5760008167ffffffffffffffff1611611031576040517f08c379a000000000000000000000000000000000000000000000000000000000815260040180806020018281038252601d8152602001807f446972656374696f6e2077656e7420746f6f2066617220736f7574682100000081525060200191505060405180910390fd5b600181039050600f60108267ffffffffffffffff168161104d57fe5b0667ffffffffffffffff16141561106f5760018403935060f083019250611076565b6010830392505b61119a565b60028a1415611100576207ffff67ffffffffffffffff168267ffffffffffffffff16106110b5576000915060009450600f830392506110fb565b600182019150600060108367ffffffffffffffff16816110d157fe5b0667ffffffffffffffff1614156110f357600185019450600f830392506110fa565b6001830192505b5b611199565b60038a14156111985760008267ffffffffffffffff161415611151576207ffff915060106207ffff67ffffffffffffffff168161113957fe5b0467ffffffffffffffff169450600f83019250611197565b600182039150600f60108367ffffffffffffffff168161116d57fe5b0667ffffffffffffffff16141561118f57600185039450600f83019250611196565b6001830392505b5b5b5b5b5b60208267ffffffffffffffff16901b81179550505095509550955095915050565b60006111ca826000016115bb565b9050919050565b60006111f9836000018373ffffffffffffffffffffffffffffffffffffffff1660001b6115cc565b905092915050565b6000611229836000018373ffffffffffffffffffffffffffffffffffffffff1660001b61163c565b905092915050565b600081836000018054905011611292576040517f08c379a000000000000000000000000000000000000000000000000000000000815260040180806020018281038252602281526020018061191e6022913960400191505060405180910390fd5b8260000182815481106112a157fe5b9060005260206000200154905092915050565b600080836001016000848152602001908152602001600020541415905092915050565b600060208267ffffffffffffffff16901c90506207ffff67ffffffffffffffff168167ffffffffffffffff161115611377576040517f08c379a000000000000000000000000000000000000000000000000000000000815260040180806020018281038252601d8152602001807f5820636f6f7264696e617465206973206f7574206f6620626f756e647300000081525060200191505060405180910390fd5b919050565b600063ffffffff821690506203ffff67ffffffffffffffff168167ffffffffffffffff161115611414576040517f08c379a000000000000000000000000000000000000000000000000000000000815260040180806020018281038252601d8152602001807f5920636f6f7264696e617465206973206f7574206f6620626f756e647300000081525060200191505060405180910390fd5b919050565b600061145b83836040518060400160405280601a81526020017f536166654d6174683a206469766973696f6e206279207a65726f000000000000815250611724565b905092915050565b60006114a583836040518060400160405280601881526020017f536166654d6174683a206d6f64756c6f206279207a65726f00000000000000008152506117ea565b905092915050565b6000808314156114c0576000905061152d565b60008284029050828482816114d157fe5b0414611528576040517f08c379a000000000000000000000000000000000000000000000000000000000815260040180806020018281038252602181526020018061199f6021913960400191505060405180910390fd5b809150505b92915050565b6000808284019050838110156115b1576040517f08c379a000000000000000000000000000000000000000000000000000000000815260040180806020018281038252601b8152602001807f536166654d6174683a206164646974696f6e206f766572666c6f77000000000081525060200191505060405180910390fd5b8091505092915050565b600081600001805490509050919050565b60006115d883836112b4565b611631578260000182908060018154018082558091505060019003906000526020600020016000909190919091505582600001805490508360010160008481526020019081526020016000208190555060019050611636565b600090505b92915050565b60008083600101600084815260200190815260200160002054905060008114611718576000600182039050600060018660000180549050039050600086600001828154811061168757fe5b90600052602060002001549050808760000184815481106116a457fe5b90600052602060002001819055506001830187600101600083815260200190815260200160002081905550866000018054806116dc57fe5b6001900381819060005260206000200160009055905586600101600087815260200190815260200160002060009055600194505050505061171e565b60009150505b92915050565b600080831182906117d0576040517f08c379a00000000000000000000000000000000000000000000000000000000081526004018080602001828103825283818151815260200191508051906020019080838360005b8381101561179557808201518184015260208101905061177a565b50505050905090810190601f1680156117c25780820380516001836020036101000a031916815260200191505b509250505060405180910390fd5b5060008385816117dc57fe5b049050809150509392505050565b6000808314158290611897576040517f08c379a00000000000000000000000000000000000000000000000000000000081526004018080602001828103825283818151815260200191508051906020019080838360005b8381101561185c578082015181840152602081019050611841565b50505050905090810190601f1680156118895780820380516001836020036101000a031916815260200191505b509250505060405180910390fd5b508284816118a157fe5b0690509392505050565b8280548282559060005260206000209081019282156118e7579160200282015b828111156118e65782358255916020019190600101906118cb565b5b5090506118f491906118f8565b5090565b61191a91905b808211156119165760008160009055506001016118fe565b5090565b9056fe456e756d657261626c655365743a20696e646578206f7574206f6620626f756e6473416363657373436f6e74726f6c3a2073656e646572206d75737420626520616e2061646d696e20746f206772616e74416363657373436f6e74726f6c3a2073656e646572206d75737420626520616e2061646d696e20746f207265766f6b65536166654d6174683a206d756c7469706c69636174696f6e206f766572666c6f7750617468206d7573742068617665206174206c6561737420636f6d706f6e656e74416363657373436f6e74726f6c3a2063616e206f6e6c792072656e6f756e636520726f6c657320666f722073656c66a26469706673582212209cddf796aebf56af4cfbd629660f8b0a92d8d46d9b52407d34d751f151db9c7164736f6c63430006020033",
  "linkReferences": {},
  "deployedLinkReferences": {}
}