{
  "_format": "hh-sol-artifact-1",
  "contractName": "GeoWebParcel",
  "sourceName": "contracts/GeoWebParcel.sol",
  "abi": [
    {
      "inputs": [
        {
          "internalType": "address",
          "name": "minter",
          "type": "address"
        }
      ],
      "stateMutability": "nonpayable",
      "type": "constructor"
    },
    {
      "anonymous": false,
      "inputs": [
        {
          "indexed": true,
          "internalType": "uint256",
          "name": "_id",
          "type": "uint256"
        }
      ],
      "name": "MintGeoWebParcel",
      "type": "event"
    },
    {
      "anonymous": false,
      "inputs": [
        {
          "indexed": true,
          "internalType": "bytes32",
          "name": "role",
          "type": "bytes32"
        },
        {
          "indexed": true,
          "internalType": "bytes32",
          "name": "previousAdminRole",
          "type": "bytes32"
        },
        {
          "indexed": true,
          "internalType": "bytes32",
          "name": "newAdminRole",
          "type": "bytes32"
        }
      ],
      "name": "RoleAdminChanged",
      "type": "event"
    },
    {
      "anonymous": false,
      "inputs": [
        {
          "indexed": true,
          "internalType": "bytes32",
          "name": "role",
          "type": "bytes32"
        },
        {
          "indexed": true,
          "internalType": "address",
          "name": "account",
          "type": "address"
        },
        {
          "indexed": true,
          "internalType": "address",
          "name": "sender",
          "type": "address"
        }
      ],
      "name": "RoleGranted",
      "type": "event"
    },
    {
      "anonymous": false,
      "inputs": [
        {
          "indexed": true,
          "internalType": "bytes32",
          "name": "role",
          "type": "bytes32"
        },
        {
          "indexed": true,
          "internalType": "address",
          "name": "account",
          "type": "address"
        },
        {
          "indexed": true,
          "internalType": "address",
          "name": "sender",
          "type": "address"
        }
      ],
      "name": "RoleRevoked",
      "type": "event"
    },
    {
      "inputs": [],
      "name": "DEFAULT_ADMIN_ROLE",
      "outputs": [
        {
          "internalType": "bytes32",
          "name": "",
          "type": "bytes32"
        }
      ],
      "stateMutability": "view",
      "type": "function"
    },
    {
      "inputs": [],
      "name": "MINTER_ROLE",
      "outputs": [
        {
          "internalType": "bytes32",
          "name": "",
          "type": "bytes32"
        }
      ],
      "stateMutability": "view",
      "type": "function"
    },
    {
      "inputs": [
        {
          "internalType": "uint256",
          "name": "",
          "type": "uint256"
        },
        {
          "internalType": "uint256",
          "name": "",
          "type": "uint256"
        }
      ],
      "name": "availabilityIndex",
      "outputs": [
        {
          "internalType": "uint256",
          "name": "",
          "type": "uint256"
        }
      ],
      "stateMutability": "view",
      "type": "function"
    },
    {
      "inputs": [
        {
          "internalType": "uint256",
          "name": "id",
          "type": "uint256"
        }
      ],
      "name": "getLandParcel",
      "outputs": [
        {
          "internalType": "uint64",
          "name": "baseCoordinate",
          "type": "uint64"
        },
        {
          "internalType": "uint256[]",
          "name": "path",
          "type": "uint256[]"
        }
      ],
      "stateMutability": "view",
      "type": "function"
    },
    {
      "inputs": [
        {
          "internalType": "bytes32",
          "name": "role",
          "type": "bytes32"
        }
      ],
      "name": "getRoleAdmin",
      "outputs": [
        {
          "internalType": "bytes32",
          "name": "",
          "type": "bytes32"
        }
      ],
      "stateMutability": "view",
      "type": "function"
    },
    {
      "inputs": [
        {
          "internalType": "bytes32",
          "name": "role",
          "type": "bytes32"
        },
        {
          "internalType": "uint256",
          "name": "index",
          "type": "uint256"
        }
      ],
      "name": "getRoleMember",
      "outputs": [
        {
          "internalType": "address",
          "name": "",
          "type": "address"
        }
      ],
      "stateMutability": "view",
      "type": "function"
    },
    {
      "inputs": [
        {
          "internalType": "bytes32",
          "name": "role",
          "type": "bytes32"
        }
      ],
      "name": "getRoleMemberCount",
      "outputs": [
        {
          "internalType": "uint256",
          "name": "",
          "type": "uint256"
        }
      ],
      "stateMutability": "view",
      "type": "function"
    },
    {
      "inputs": [
        {
          "internalType": "bytes32",
          "name": "role",
          "type": "bytes32"
        },
        {
          "internalType": "address",
          "name": "account",
          "type": "address"
        }
      ],
      "name": "grantRole",
      "outputs": [],
      "stateMutability": "nonpayable",
      "type": "function"
    },
    {
      "inputs": [
        {
          "internalType": "bytes32",
          "name": "role",
          "type": "bytes32"
        },
        {
          "internalType": "address",
          "name": "account",
          "type": "address"
        }
      ],
      "name": "hasRole",
      "outputs": [
        {
          "internalType": "bool",
          "name": "",
          "type": "bool"
        }
      ],
      "stateMutability": "view",
      "type": "function"
    },
    {
      "inputs": [
        {
          "internalType": "uint64",
          "name": "baseCoordinate",
          "type": "uint64"
        },
        {
          "internalType": "uint256[]",
          "name": "path",
          "type": "uint256[]"
        }
      ],
      "name": "mintLandParcel",
      "outputs": [
        {
          "internalType": "uint256",
          "name": "newParcelId",
          "type": "uint256"
        }
      ],
      "stateMutability": "nonpayable",
      "type": "function"
    },
    {
      "inputs": [
        {
          "internalType": "bytes32",
          "name": "role",
          "type": "bytes32"
        },
        {
          "internalType": "address",
          "name": "account",
          "type": "address"
        }
      ],
      "name": "renounceRole",
      "outputs": [],
      "stateMutability": "nonpayable",
      "type": "function"
    },
    {
      "inputs": [
        {
          "internalType": "bytes32",
          "name": "role",
          "type": "bytes32"
        },
        {
          "internalType": "address",
          "name": "account",
          "type": "address"
        }
      ],
      "name": "revokeRole",
      "outputs": [],
      "stateMutability": "nonpayable",
      "type": "function"
    }
  ],
  "bytecode": "0x60806040523480156200001157600080fd5b50604051620014b1380380620014b1833981810160405260208110156200003757600080fd5b5051604080516a4d494e5445525f524f4c4560a81b8152905190819003600b0190206200006e90826001600160e01b036200007a16565b506000600355620001b2565b6200008f82826001600160e01b036200009316565b5050565b600082815260208181526040909120620000b891839062000cab62000115821b17901c565b156200008f57620000d16001600160e01b036200013e16565b6001600160a01b0316816001600160a01b0316837f2f8788117e7eff1d82e926ec794901d17c78024a50270940304540a733656f0d60405160405180910390a45050565b600062000135836001600160a01b0384166001600160e01b036200014216565b90505b92915050565b3390565b60006200015983836001600160e01b036200019a16565b620001915750815460018181018455600084815260208082209093018490558454848252828601909352604090209190915562000138565b50600062000138565b60009081526001919091016020526040902054151590565b6112ef80620001c26000396000f3fe608060405234801561001057600080fd5b50600436106100b45760003560e01c8063a03838e211610071578063a03838e2146101e4578063a217fddf14610264578063ca15c8731461026c578063d539139314610289578063d547741f14610291578063e7feff2e146102bd576100b4565b8063248a9ca3146100b95780632f2ff15d146100e857806331a5ee9c1461011657806336568abe146101395780639010d07c1461016557806391d14854146101a4575b600080fd5b6100d6600480360360208110156100cf57600080fd5b5035610347565b60408051918252519081900360200190f35b610114600480360360408110156100fe57600080fd5b50803590602001356001600160a01b031661035f565b005b6100d66004803603604081101561012c57600080fd5b50803590602001356103cb565b6101146004803603604081101561014f57600080fd5b50803590602001356001600160a01b03166103e8565b6101886004803603604081101561017b57600080fd5b5080359060200135610449565b604080516001600160a01b039092168252519081900360200190f35b6101d0600480360360408110156101ba57600080fd5b50803590602001356001600160a01b0316610470565b604080519115158252519081900360200190f35b6100d6600480360360408110156101fa57600080fd5b6001600160401b03823516919081019060408101602082013564010000000081111561022557600080fd5b82018360208201111561023757600080fd5b8035906020019184602083028401116401000000008311171561025957600080fd5b50909250905061048e565b6100d661075a565b6100d66004803603602081101561028257600080fd5b503561075f565b6100d6610776565b610114600480360360408110156102a757600080fd5b50803590602001356001600160a01b0316610799565b6102da600480360360208110156102d357600080fd5b50356107f2565b60405180836001600160401b03166001600160401b0316815260200180602001828103825283818151815260200191508051906020019060200280838360005b8381101561033257818101518382015260200161031a565b50505050905001935050505060405180910390f35b6000818152602081905260409020600201545b919050565b6000828152602081905260409020600201546103829061037d610871565b610470565b6103bd5760405162461bcd60e51b815260040180806020018281038252602f8152602001806111ea602f913960400191505060405180910390fd5b6103c78282610876565b5050565b600160209081526000928352604080842090915290825290205481565b6103f0610871565b6001600160a01b0316816001600160a01b03161461043f5760405162461bcd60e51b815260040180806020018281038252602f81526020018061128b602f913960400191505060405180910390fd5b6103c782826108e5565b6000828152602081905260408120610467908363ffffffff61095416565b90505b92915050565b6000828152602081905260408120610467908363ffffffff61096016565b604080516a4d494e5445525f524f4c4560a81b8152905190819003600b0190206000906104bb9033610470565b610505576040805162461bcd60e51b815260206004820152601660248201527521b0b63632b91034b9903737ba10309036b4b73a32b960511b604482015290519081900360640190fd5b816105415760405162461bcd60e51b815260040180806020018281038252602181526020018061126a6021913960400191505060405180910390fd5b836000808585828161054f57fe5b905060200201359050600080600061056f866001600160401b0316610975565b600083815260016020908152604080832085845290915290205492955090935091505b8160020a81166000146105ec576040805162461bcd60e51b815260206004820152601b60248201527f436f6f7264696e617465206973206e6f7420617661696c61626c650000000000604482015290519081900360640190fd5b600282900a176000806105fe87610a22565b985090925090508161064557600197909701968a881061061f5750506106c1565b8b8b8981811061062b57fe5b90506020020135965061063d87610a22565b985090925090505b6000806106646001600160401b038c16848a8a8a63ffffffff610a6816565b929d5091975092509050878214158061067d5750868114155b156106b45760008881526001602081815260408084208b855282528084209890985584835290815286822083835290529490942054935b9096509450610592915050565b6000848152600160208181526040808420878552825280842085905560035484526002909152909120805467ffffffffffffffff19166001600160401b038e16178155906107129082018c8c611162565b506003546040517f4f836ee72af7d5000dbfcf2c3d0bf563090492346e714fe5deba22c2860fa09890600090a2505060038054600181019091559a9950505050505050505050565b600081565b600081815260208190526040812061046a90610ca0565b604080516a4d494e5445525f524f4c4560a81b8152905190819003600b01902081565b6000828152602081905260409020600201546107b79061037d610871565b61043f5760405162461bcd60e51b81526004018080602001828103825260308152602001806112196030913960400191505060405180910390fd5b6000818152600260209081526040808320805460018201805484518187028101870190955280855260609593946001600160401b039093169391929183919083018282801561086057602002820191906000526020600020905b81548152602001906001019080831161084c575b505050505090509250925050915091565b335b90565b6000828152602081905260409020610894908263ffffffff610cab16565b156103c7576108a1610871565b6001600160a01b0316816001600160a01b0316837f2f8788117e7eff1d82e926ec794901d17c78024a50270940304540a733656f0d60405160405180910390a45050565b6000828152602081905260409020610903908263ffffffff610cc016565b156103c757610910610871565b6001600160a01b0316816001600160a01b0316837ff6391f5c32d9c69d2a47ea670b442974b53935d1edc7fd64eb21e047a839171b60405160405180910390a45050565b60006104678383610cd5565b6000610467836001600160a01b038416610d39565b60008060008061098485610d51565b6001600160401b03169050600061099a86610db4565b6001600160401b031690506109b682601063ffffffff610e1316565b94506109c981601063ffffffff610e1316565b935060006109de83601063ffffffff610e5516565b905060006109f383601063ffffffff610e5516565b9050610a1682610a0a83601063ffffffff610e9716565b9063ffffffff610ef016565b96989597505050505050565b60f881901c80151590600090819083610a42575060009150819050610a61565b6003851692506000190160f81b600285901c6001600160f61b03161790505b9193909250565b6000806000806000610a798a610d51565b90506000610a868b610db4565b899550889450879350905089610b1f576001016203ffff6001600160401b0382161115610afa576040805162461bcd60e51b815260206004820152601d60248201527f446972656374696f6e2077656e7420746f6f20666172206e6f72746821000000604482015290519081900360640190fd5b600f8116610b135760018401935060f083039250610b1a565b6010830192505b610c80565b8960011415610bb1576000816001600160401b031611610b86576040805162461bcd60e51b815260206004820152601d60248201527f446972656374696f6e2077656e7420746f6f2066617220736f75746821000000604482015290519081900360640190fd5b60001901600f8082161415610ba65760018403935060f083019250610b1a565b601083039250610c80565b8960021415610c27576207ffff6001600160401b03831610610be0576000915060009450600f83039250610b1a565b6001820191506010826001600160401b031681610bf957fe5b066001600160401b031660001415610c1c57600185019450600f83039250610b1a565b600183019250610c80565b8960031415610c80576001600160401b038216610c5557617fff9450600f92909201916207ffff9150610c80565b6000199190910190600f8083161415610c7957600185039450600f83019250610c80565b6001830392505b6020826001600160401b0316901b81179550505095509550955095915050565b600061046a82610f4a565b6000610467836001600160a01b038416610f4e565b6000610467836001600160a01b038416610f98565b81546000908210610d175760405162461bcd60e51b81526004018080602001828103825260228152602001806111c86022913960400191505060405180910390fd5b826000018281548110610d2657fe5b9060005260206000200154905092915050565b60009081526001919091016020526040902054151590565b63ffffffff602082901c166207ffff81111561035a576040805162461bcd60e51b815260206004820152601d60248201527f5820636f6f7264696e617465206973206f7574206f6620626f756e6473000000604482015290519081900360640190fd5b63ffffffff81166203ffff81111561035a576040805162461bcd60e51b815260206004820152601d60248201527f5920636f6f7264696e617465206973206f7574206f6620626f756e6473000000604482015290519081900360640190fd5b600061046783836040518060400160405280601a81526020017f536166654d6174683a206469766973696f6e206279207a65726f00000000000081525061105e565b600061046783836040518060400160405280601881526020017f536166654d6174683a206d6f64756c6f206279207a65726f0000000000000000815250611100565b600082610ea65750600061046a565b82820282848281610eb357fe5b04146104675760405162461bcd60e51b81526004018080602001828103825260218152602001806112496021913960400191505060405180910390fd5b600082820183811015610467576040805162461bcd60e51b815260206004820152601b60248201527f536166654d6174683a206164646974696f6e206f766572666c6f770000000000604482015290519081900360640190fd5b5490565b6000610f5a8383610d39565b610f905750815460018181018455600084815260208082209093018490558454848252828601909352604090209190915561046a565b50600061046a565b600081815260018301602052604081205480156110545783546000198083019190810190600090879083908110610fcb57fe5b9060005260206000200154905080876000018481548110610fe857fe5b60009182526020808320909101929092558281526001898101909252604090209084019055865487908061101857fe5b6001900381819060005260206000200160009055905586600101600087815260200190815260200160002060009055600194505050505061046a565b600091505061046a565b600081836110ea5760405162461bcd60e51b81526004018080602001828103825283818151815260200191508051906020019080838360005b838110156110af578181015183820152602001611097565b50505050905090810190601f1680156110dc5780820380516001836020036101000a031916815260200191505b509250505060405180910390fd5b5060008385816110f657fe5b0495945050505050565b6000818361114f5760405162461bcd60e51b81526020600482018181528351602484015283519092839260449091019190850190808383600083156110af578181015183820152602001611097565b5082848161115957fe5b06949350505050565b82805482825590600052602060002090810192821561119d579160200282015b8281111561119d578235825591602001919060010190611182565b506111a99291506111ad565b5090565b61087391905b808211156111a957600081556001016111b356fe456e756d657261626c655365743a20696e646578206f7574206f6620626f756e6473416363657373436f6e74726f6c3a2073656e646572206d75737420626520616e2061646d696e20746f206772616e74416363657373436f6e74726f6c3a2073656e646572206d75737420626520616e2061646d696e20746f207265766f6b65536166654d6174683a206d756c7469706c69636174696f6e206f766572666c6f7750617468206d7573742068617665206174206c6561737420636f6d706f6e656e74416363657373436f6e74726f6c3a2063616e206f6e6c792072656e6f756e636520726f6c657320666f722073656c66a2646970667358221220d37198d9092afbaedcffd790becbef2d8caa7ddef426e39178a9b0c79c2f30ad64736f6c63430006020033",
  "linkReferences": {},
  "deployedLinkReferences": {}
}