{
  "address": "0x5567AB5102c7372225B8977A4AD81258220718F9",
  "abi": [
    {
      "anonymous": false,
      "inputs": [
        {
          "indexed": true,
          "internalType": "address",
          "name": "to",
          "type": "address"
        },
        {
          "indexed": false,
          "internalType": "uint256",
          "name": "price",
          "type": "uint256"
        }
      ],
      "name": "LicenseReclaimed",
      "type": "event"
    },
    {
      "inputs": [
        {
          "internalType": "uint256",
          "name": "maxClaimPrice",
          "type": "uint256"
        },
        {
          "internalType": "int96",
          "name": "newContributionRate",
          "type": "int96"
        },
        {
          "internalType": "uint256",
          "name": "newForSalePrice",
          "type": "uint256"
        }
      ],
      "name": "reclaim",
      "outputs": [],
      "stateMutability": "nonpayable",
      "type": "function"
    },
    {
      "inputs": [],
      "name": "reclaimPrice",
      "outputs": [
        {
          "internalType": "uint256",
          "name": "",
          "type": "uint256"
        }
      ],
      "stateMutability": "view",
      "type": "function"
    }
  ],
  "transactionHash": "0xc1c422748ce31bcadc6160409329035f702169e1fd115480324bd23c54c41bcb",
  "args": [],
  "numDeployments": 1,
  "solcInputHash": "2601adedd46f4264d014c3ed55e7b97c",
  "bytecode": "0x608060405234801561001057600080fd5b50611660806100206000396000f3fe608060405234801561001057600080fd5b50600436106100365760003560e01c80630b4ee5021461003b57806362ec5f1214610050575b600080fd5b61004e6100493660046111ef565b61006a565b005b61005861094d565b60405190815260200160405180910390f35b610072610b39565b156100985760405162461bcd60e51b815260040161008f90611227565b60405180910390fd5b60008051602061160b833981519152805460408051630b51881360e11b815290517feaf1cf088be31249661a61fc7743edf628a39210375613d4be0a9cda3ec06da6926000926001600160a01b03909116916316a31026916004808201926020929091908290030181865afa158015610115573d6000803e3d6000fd5b505050506040513d601f19601f820116820180604052508101906101399190611290565b905060008360000160009054906101000a90046001600160a01b03166001600160a01b031663014df4146040518163ffffffff1660e01b8152600401602060405180830381865afa158015610192573d6000803e3d6000fd5b505050506040513d601f19601f820116820180604052508101906101b69190611290565b90506101c485878484610b4d565b6102245760405162461bcd60e51b815260206004820152602b60248201527f4346415265636c61696d657246616365743a20496e636f727265637420666f7260448201526a2073616c6520707269636560a81b606482015260840161008f565b505081546040805163d41c3a6560e01b815290516000926001600160a01b03169163d41c3a659160048083019260209291908290030181865afa15801561026f573d6000803e3d6000fd5b505050506040513d601f19601f8201168201806040525081019061029391906112a9565b600183015484546040805163d41c3a6560e01b8152905193945060009384936001600160a01b039081169362422bbe9391169163d41c3a65916004808201926020929091908290030181865afa1580156102f1573d6000803e3d6000fd5b505050506040513d601f19601f8201168201806040525081019061031591906112a9565b6040516001600160e01b031960e084901b1681526001600160a01b039091166004820152336024820152306044820152606401606060405180830381865afa158015610365573d6000803e3d6000fd5b505050506040513d601f19601f8201168201806040525081019061038991906112d2565b9250925050610399826000610b80565b6104035760405162461bcd60e51b815260206004820152603560248201527f4346415265636c61696d657246616365743a204352454154455f464c4f572070604482015274195c9b5a5cdcda5bdb881b9bdd0819dc985b9d1959605a1b606482015260840161008f565b86600b0b81600b0b12156104905760405162461bcd60e51b815260206004820152604860248201527f4346415265636c61696d657246616365743a204352454154455f464c4f57207060448201527f65726d697373696f6e20646f6573206e6f74206861766520656e6f75676820616064820152676c6c6f77616e636560c01b608482015260a40161008f565b5050600061049c61094d565b90508085101561052b5760405162461bcd60e51b815260206004820152604e60248201527f4346415265636c61696d657246616365743a20466f722073616c65207072696360448201527f65206d7573742062652067726561746572207468616e206f7220657175616c2060648201526d746f20636c61696d20707269636560901b608482015260a40161008f565b808710156105985760405162461bcd60e51b815260206004820152603460248201527f4346415265636c61696d657246616365743a20436c61696d207072696365206d60448201527375737420626520756e646572206d6178696d756d60601b606482015260840161008f565b7f3c72d60a0f1018560e1ecd381dcc70c04920ba28255c0b6f8b496f8f6f727f428054427f3c72d60a0f1018560e1ecd381dcc70c04920ba28255c0b6f8b496f8f6f727f4190815533600160a01b6bffffffffffffffffffffffff8b160217909255855460408051630b51881360e11b815290516001600160a01b0393841693909216916316a31026916004808201926020929091908290030181865afa158015610647573d6000803e3d6000fd5b505050506040513d601f19601f8201168201806040525081019061066b9190611290565b600283015585546040805162537d0560e21b815290516001600160a01b039092169163014df414916004808201926020929091908290030181865afa1580156106b8573d6000803e3d6000fd5b505050506040513d601f19601f820116820180604052508101906106dc9190611290565b60038301556004820187905560405183815233907f5930c388e53aee3644ff5b0eb61819ec69e29a2ea3cd10fdebcbd0699e07d7869060200160405180910390a260018501546040516346ccbfb760e11b81526001600160a01b038681166004830152600b8b900b60248301526000921690638d997f6e90604401602060405180830381865afa158015610774573d6000803e3d6000fd5b505050506040513d601f19601f820116820180604052508101906107989190611290565b90506107af6001600160a01b038616338487610bdf565b6107c46001600160a01b038616333084610bdf565b50845460018601546001600160a01b03918216916339255d5b9116806394229ecb8833308f60006040519080825280601f01601f191660200182016040528015610815576020820181803683370190505b5060405160240161082a959493929190611389565b60408051601f19818403018152918152602080830180516001600160e01b031660e095861b179052815160008152908101918290529286901b6001600160e01b031916905261087f93925090602481016113c7565b6000604051808303816000875af19250505080156108bf57506040513d6000823e601f3d908101601f191682016040526108bc9190810190611407565b60015b156108c657505b6108cf88610c3f565b60018601546002870154604051632142170760e11b81526001600160a01b03848116600483015233602483015260448201929092529116906342842e0e90606401600060405180830381600087803b15801561092a57600080fd5b505af115801561093e573d6000803e3d6000fd5b50505050505050505050505050565b6000610957610b39565b156109745760405162461bcd60e51b815260040161008f90611227565b7f3c72d60a0f1018560e1ecd381dcc70c04920ba28255c0b6f8b496f8f6f727f45547f7afbdc140ed2feae39152d66ce3c9b7394a1bbd963c668f15d7196d48d2532cc5460408051634a037b6f60e01b8152306004820152905160008051602061160b833981519152937f3c72d60a0f1018560e1ecd381dcc70c04920ba28255c0b6f8b496f8f6f727f419390926000926001600160a01b0390921691634a037b6f916024808201926020929091908290030181865afa158015610a3c573d6000803e3d6000fd5b505050506040513d601f19601f82011682018060405250810190610a609190611290565b905060008460000160009054906101000a90046001600160a01b03166001600160a01b031663520aa8ee6040518163ffffffff1660e01b8152600401602060405180830381865afa158015610ab9573d6000803e3d6000fd5b505050506040513d601f19601f82011682018060405250810190610add9190611290565b9050610ae981836114bf565b421115610afc5760009550505050505090565b6000610b0883426114d7565b9050600082610b1783876114ee565b610b21919061150d565b9050610b2d81866114d7565b97505050505050505090565b600080610b44610cff565b600b0b13905090565b60008082610b5b85886114ee565b610b65919061150d565b6bffffffffffffffffffffffff861614915050949350505050565b600080826002811115610b9557610b9561152f565b03610ba65750600182811614610bd9565b6001826002811115610bba57610bba61152f565b03610bcd5750600182811c811614610bd9565b506001600283901c8116145b92915050565b604080516001600160a01b0385811660248301528416604482015260648082018490528251808303909101815260849091019091526020810180516001600160e01b03166323b872dd60e01b179052610c39908590610e84565b50505050565b60008051602061160b83398151915280546040805163d41c3a6560e01b815290517feaf1cf088be31249661a61fc7743edf628a39210375613d4be0a9cda3ec06da693926000926001600160a01b039091169163d41c3a65916004808201926020929091908290030181865afa158015610cbd573d6000803e3d6000fd5b505050506040513d601f19601f82011682018060405250810190610ce191906112a9565b6003830154909150610c399084906001600160a01b03168387610f5b565b7feaf1cf088be31249661a61fc7743edf628a39210375613d4be0a9cda3ec06da75460008051602061160b83398151915280546040805163d41c3a6560e01b815290516000947feaf1cf088be31249661a61fc7743edf628a39210375613d4be0a9cda3ec06da69386936001600160a01b039283169363e6a1e888939092169163d41c3a65916004808201926020929091908290030181865afa158015610daa573d6000803e3d6000fd5b505050506040513d601f19601f82011682018060405250810190610dce91906112a9565b30610e007f7afbdc140ed2feae39152d66ce3c9b7394a1bbd963c668f15d7196d48d2532cc546001600160a01b031690565b60405160e085901b6001600160e01b03191681526001600160a01b03938416600482015291831660248301529091166044820152606401608060405180830381865afa158015610e54573d6000803e3d6000fd5b505050506040513d601f19601f82011682018060405250810190610e789190611545565b50909695505050505050565b6000610ed9826040518060400160405280602081526020017f5361666545524332303a206c6f772d6c6576656c2063616c6c206661696c6564815250856001600160a01b0316610f7b9092919063ffffffff16565b805190915015610f565780806020019051810190610ef79190611583565b610f565760405162461bcd60e51b815260206004820152602a60248201527f5361666545524332303a204552433230206f7065726174696f6e20646964206e6044820152691bdd081cdd58d8d9595960b21b606482015260840161008f565b505050565b604080516000815260208101909152610c39908590859085908590610f94565b6060610f8a8484600085611073565b90505b9392505050565b845460018601546040805160008152602081019091526001600160a01b03928316926339255d5b92169081906362fc305e90610fd99089908b908a90604481016115a5565b60408051808303601f1901815291815260208201805160e094851b6001600160e01b03909116179052519185901b6001600160e01b03191682526110249392509086906004016113c7565b6000604051808303816000875af1158015611043573d6000803e3d6000fd5b505050506040513d6000823e601f3d908101601f1916820160405261106b9190810190611407565b505050505050565b6060824710156110d45760405162461bcd60e51b815260206004820152602660248201527f416464726573733a20696e73756666696369656e742062616c616e636520666f6044820152651c8818d85b1b60d21b606482015260840161008f565b6001600160a01b0385163b61112b5760405162461bcd60e51b815260206004820152601d60248201527f416464726573733a2063616c6c20746f206e6f6e2d636f6e7472616374000000604482015260640161008f565b600080866001600160a01b0316858760405161114791906115db565b60006040518083038185875af1925050503d8060008114611184576040519150601f19603f3d011682016040523d82523d6000602084013e611189565b606091505b50915091506111998282866111a4565b979650505050505050565b606083156111b3575081610f8d565b8251156111c35782518084602001fd5b8160405162461bcd60e51b815260040161008f91906115f7565b80600b0b81146111ec57600080fd5b50565b60008060006060848603121561120457600080fd5b833592506020840135611216816111dd565b929592945050506040919091013590565b60208082526043908201527f4346415265636c61696d657246616365743a2043616e206f6e6c79207065726660408201527f6f726d20616374696f6e207768656e207061796572206269642069732061637460608201526269766560e81b608082015260a00190565b6000602082840312156112a257600080fd5b5051919050565b6000602082840312156112bb57600080fd5b81516001600160a01b0381168114610f8d57600080fd5b6000806000606084860312156112e757600080fd5b83519250602084015160ff811681146112ff57600080fd5b6040850151909250611310816111dd565b809150509250925092565b634e487b7160e01b600052604160045260246000fd5b60005b8381101561134c578181015183820152602001611334565b83811115610c395750506000910152565b60008151808452611375816020860160208601611331565b601f01601f19169290920160200192915050565b6001600160a01b038681168252858116602083015284166040820152600b83900b606082015260a0608082018190526000906111999083018461135d565b6001600160a01b03841681526060602082018190526000906113eb9083018561135d565b82810360408401526113fd818561135d565b9695505050505050565b60006020828403121561141957600080fd5b815167ffffffffffffffff8082111561143157600080fd5b818401915084601f83011261144557600080fd5b8151818111156114575761145761131b565b604051601f8201601f19908116603f0116810190838211818310171561147f5761147f61131b565b8160405282815287602084870101111561149857600080fd5b611199836020830160208801611331565b634e487b7160e01b600052601160045260246000fd5b600082198211156114d2576114d26114a9565b500190565b6000828210156114e9576114e96114a9565b500390565b6000816000190483118215151615611508576115086114a9565b500290565b60008261152a57634e487b7160e01b600052601260045260246000fd5b500490565b634e487b7160e01b600052602160045260246000fd5b6000806000806080858703121561155b57600080fd5b84519350602085015161156d816111dd565b6040860151606090960151949790965092505050565b60006020828403121561159557600080fd5b81518015158114610f8d57600080fd5b6001600160a01b03858116825284166020820152600b83900b60408201526080606082018190526000906113fd9083018461135d565b600082516115ed818460208701611331565b9190910192915050565b602081526000610f8d602083018461135d56fe7afbdc140ed2feae39152d66ce3c9b7394a1bbd963c668f15d7196d48d2532c9a2646970667358221220cd0bfde700a56ebdd17ddd5f8e78a353c0bbf8425b20a548b1203ac2397919ff64736f6c634300080e0033",
  "devdoc": {
    "kind": "dev",
    "methods": {
      "reclaim(uint256,int96,uint256)": {
        "params": {
          "maxClaimPrice": "Max price willing to pay for claim. Prevents front-running",
          "newContributionRate": "New contribution rate for license",
          "newForSalePrice": "Intented new for sale price. Must be within rounding bounds of newContributionRate"
        }
      }
    },
    "version": 1
  },
  "userdoc": {
    "events": {
      "LicenseReclaimed(address,uint256)": {
        "notice": "Emitted when a license is reclaimed"
      }
    },
    "kind": "user",
    "methods": {
      "reclaim(uint256,int96,uint256)": {
        "notice": "Reclaim an inactive license as msg.sender      - Payer bid must be inactive      - Must have permissions to create flow for bidder      - Must have ERC-20 approval of payment token for claimPrice amount"
      },
      "reclaimPrice()": {
        "notice": "Current price to reclaim"
      }
    },
    "notice": "Handles reclaiming of licenses that are no longer active",
    "version": 1
  },
  "storageLayout": {
    "storage": [],
    "types": null
  }
}