{
  "_format": "hh-sol-artifact-1",
  "contractName": "ERC721License",
  "sourceName": "contracts/ERC721License.sol",
  "abi": [
    {
      "anonymous": false,
      "inputs": [
        {
          "indexed": true,
          "internalType": "address",
          "name": "owner",
          "type": "address"
        },
        {
          "indexed": true,
          "internalType": "address",
          "name": "approved",
          "type": "address"
        },
        {
          "indexed": true,
          "internalType": "uint256",
          "name": "tokenId",
          "type": "uint256"
        }
      ],
      "name": "Approval",
      "type": "event"
    },
    {
      "anonymous": false,
      "inputs": [
        {
          "indexed": true,
          "internalType": "address",
          "name": "owner",
          "type": "address"
        },
        {
          "indexed": true,
          "internalType": "address",
          "name": "operator",
          "type": "address"
        },
        {
          "indexed": false,
          "internalType": "bool",
          "name": "approved",
          "type": "bool"
        }
      ],
      "name": "ApprovalForAll",
      "type": "event"
    },
    {
      "anonymous": false,
      "inputs": [
        {
          "indexed": true,
          "internalType": "bytes32",
          "name": "role",
          "type": "bytes32"
        },
        {
          "indexed": true,
          "internalType": "bytes32",
          "name": "previousAdminRole",
          "type": "bytes32"
        },
        {
          "indexed": true,
          "internalType": "bytes32",
          "name": "newAdminRole",
          "type": "bytes32"
        }
      ],
      "name": "RoleAdminChanged",
      "type": "event"
    },
    {
      "anonymous": false,
      "inputs": [
        {
          "indexed": true,
          "internalType": "bytes32",
          "name": "role",
          "type": "bytes32"
        },
        {
          "indexed": true,
          "internalType": "address",
          "name": "account",
          "type": "address"
        },
        {
          "indexed": true,
          "internalType": "address",
          "name": "sender",
          "type": "address"
        }
      ],
      "name": "RoleGranted",
      "type": "event"
    },
    {
      "anonymous": false,
      "inputs": [
        {
          "indexed": true,
          "internalType": "bytes32",
          "name": "role",
          "type": "bytes32"
        },
        {
          "indexed": true,
          "internalType": "address",
          "name": "account",
          "type": "address"
        },
        {
          "indexed": true,
          "internalType": "address",
          "name": "sender",
          "type": "address"
        }
      ],
      "name": "RoleRevoked",
      "type": "event"
    },
    {
      "anonymous": false,
      "inputs": [
        {
          "indexed": true,
          "internalType": "uint256",
          "name": "tokenId",
          "type": "uint256"
        }
      ],
      "name": "RootContentCIDRemoved",
      "type": "event"
    },
    {
      "anonymous": false,
      "inputs": [
        {
          "indexed": true,
          "internalType": "uint256",
          "name": "tokenId",
          "type": "uint256"
        },
        {
          "indexed": false,
          "internalType": "string",
          "name": "rootContent",
          "type": "string"
        }
      ],
      "name": "RootContentCIDUpdated",
      "type": "event"
    },
    {
      "anonymous": false,
      "inputs": [
        {
          "indexed": true,
          "internalType": "address",
          "name": "from",
          "type": "address"
        },
        {
          "indexed": true,
          "internalType": "address",
          "name": "to",
          "type": "address"
        },
        {
          "indexed": true,
          "internalType": "uint256",
          "name": "tokenId",
          "type": "uint256"
        }
      ],
      "name": "Transfer",
      "type": "event"
    },
    {
      "inputs": [],
      "name": "ADMIN_ROLE",
      "outputs": [
        {
          "internalType": "bytes32",
          "name": "",
          "type": "bytes32"
        }
      ],
      "stateMutability": "view",
      "type": "function"
    },
    {
      "inputs": [],
      "name": "DEFAULT_ADMIN_ROLE",
      "outputs": [
        {
          "internalType": "bytes32",
          "name": "",
          "type": "bytes32"
        }
      ],
      "stateMutability": "view",
      "type": "function"
    },
    {
      "inputs": [
        {
          "internalType": "address",
          "name": "to",
          "type": "address"
        },
        {
          "internalType": "uint256",
          "name": "tokenId",
          "type": "uint256"
        }
      ],
      "name": "approve",
      "outputs": [],
      "stateMutability": "nonpayable",
      "type": "function"
    },
    {
      "inputs": [
        {
          "internalType": "address",
          "name": "owner",
          "type": "address"
        }
      ],
      "name": "balanceOf",
      "outputs": [
        {
          "internalType": "uint256",
          "name": "",
          "type": "uint256"
        }
      ],
      "stateMutability": "view",
      "type": "function"
    },
    {
      "inputs": [],
      "name": "baseURI",
      "outputs": [
        {
          "internalType": "string",
          "name": "",
          "type": "string"
        }
      ],
      "stateMutability": "view",
      "type": "function"
    },
    {
      "inputs": [
        {
          "internalType": "uint256",
          "name": "tokenId",
          "type": "uint256"
        }
      ],
      "name": "getApproved",
      "outputs": [
        {
          "internalType": "address",
          "name": "",
          "type": "address"
        }
      ],
      "stateMutability": "view",
      "type": "function"
    },
    {
      "inputs": [
        {
          "internalType": "bytes32",
          "name": "role",
          "type": "bytes32"
        }
      ],
      "name": "getRoleAdmin",
      "outputs": [
        {
          "internalType": "bytes32",
          "name": "",
          "type": "bytes32"
        }
      ],
      "stateMutability": "view",
      "type": "function"
    },
    {
      "inputs": [
        {
          "internalType": "bytes32",
          "name": "role",
          "type": "bytes32"
        },
        {
          "internalType": "uint256",
          "name": "index",
          "type": "uint256"
        }
      ],
      "name": "getRoleMember",
      "outputs": [
        {
          "internalType": "address",
          "name": "",
          "type": "address"
        }
      ],
      "stateMutability": "view",
      "type": "function"
    },
    {
      "inputs": [
        {
          "internalType": "bytes32",
          "name": "role",
          "type": "bytes32"
        }
      ],
      "name": "getRoleMemberCount",
      "outputs": [
        {
          "internalType": "uint256",
          "name": "",
          "type": "uint256"
        }
      ],
      "stateMutability": "view",
      "type": "function"
    },
    {
      "inputs": [
        {
          "internalType": "bytes32",
          "name": "role",
          "type": "bytes32"
        },
        {
          "internalType": "address",
          "name": "account",
          "type": "address"
        }
      ],
      "name": "grantRole",
      "outputs": [],
      "stateMutability": "nonpayable",
      "type": "function"
    },
    {
      "inputs": [
        {
          "internalType": "bytes32",
          "name": "role",
          "type": "bytes32"
        },
        {
          "internalType": "address",
          "name": "account",
          "type": "address"
        }
      ],
      "name": "hasRole",
      "outputs": [
        {
          "internalType": "bool",
          "name": "",
          "type": "bool"
        }
      ],
      "stateMutability": "view",
      "type": "function"
    },
    {
      "inputs": [
        {
          "internalType": "address",
          "name": "admin",
          "type": "address"
        }
      ],
      "name": "initialize",
      "outputs": [],
      "stateMutability": "nonpayable",
      "type": "function"
    },
    {
      "inputs": [
        {
          "internalType": "address",
          "name": "owner",
          "type": "address"
        },
        {
          "internalType": "address",
          "name": "operator",
          "type": "address"
        }
      ],
      "name": "isApprovedForAll",
      "outputs": [
        {
          "internalType": "bool",
          "name": "",
          "type": "bool"
        }
      ],
      "stateMutability": "view",
      "type": "function"
    },
    {
      "inputs": [
        {
          "internalType": "address",
          "name": "to",
          "type": "address"
        },
        {
          "internalType": "uint256",
          "name": "tokenId",
          "type": "uint256"
        },
        {
          "internalType": "string",
          "name": "ceramicDocId",
          "type": "string"
        }
      ],
      "name": "mintLicense",
      "outputs": [],
      "stateMutability": "nonpayable",
      "type": "function"
    },
    {
      "inputs": [],
      "name": "name",
      "outputs": [
        {
          "internalType": "string",
          "name": "",
          "type": "string"
        }
      ],
      "stateMutability": "view",
      "type": "function"
    },
    {
      "inputs": [
        {
          "internalType": "uint256",
          "name": "tokenId",
          "type": "uint256"
        }
      ],
      "name": "ownerOf",
      "outputs": [
        {
          "internalType": "address",
          "name": "",
          "type": "address"
        }
      ],
      "stateMutability": "view",
      "type": "function"
    },
    {
      "inputs": [
        {
          "internalType": "uint256",
          "name": "tokenId",
          "type": "uint256"
        }
      ],
      "name": "removeContent",
      "outputs": [],
      "stateMutability": "nonpayable",
      "type": "function"
    },
    {
      "inputs": [
        {
          "internalType": "bytes32",
          "name": "role",
          "type": "bytes32"
        },
        {
          "internalType": "address",
          "name": "account",
          "type": "address"
        }
      ],
      "name": "renounceRole",
      "outputs": [],
      "stateMutability": "nonpayable",
      "type": "function"
    },
    {
      "inputs": [
        {
          "internalType": "bytes32",
          "name": "role",
          "type": "bytes32"
        },
        {
          "internalType": "address",
          "name": "account",
          "type": "address"
        }
      ],
      "name": "revokeRole",
      "outputs": [],
      "stateMutability": "nonpayable",
      "type": "function"
    },
    {
      "inputs": [
        {
          "internalType": "uint256",
          "name": "",
          "type": "uint256"
        }
      ],
      "name": "rootContent",
      "outputs": [
        {
          "internalType": "string",
          "name": "",
          "type": "string"
        }
      ],
      "stateMutability": "view",
      "type": "function"
    },
    {
      "inputs": [
        {
          "internalType": "address",
          "name": "from",
          "type": "address"
        },
        {
          "internalType": "address",
          "name": "to",
          "type": "address"
        },
        {
          "internalType": "uint256",
          "name": "tokenId",
          "type": "uint256"
        }
      ],
      "name": "safeTransferFrom",
      "outputs": [],
      "stateMutability": "nonpayable",
      "type": "function"
    },
    {
      "inputs": [
        {
          "internalType": "address",
          "name": "from",
          "type": "address"
        },
        {
          "internalType": "address",
          "name": "to",
          "type": "address"
        },
        {
          "internalType": "uint256",
          "name": "tokenId",
          "type": "uint256"
        },
        {
          "internalType": "bytes",
          "name": "_data",
          "type": "bytes"
        }
      ],
      "name": "safeTransferFrom",
      "outputs": [],
      "stateMutability": "nonpayable",
      "type": "function"
    },
    {
      "inputs": [
        {
          "internalType": "address",
          "name": "operator",
          "type": "address"
        },
        {
          "internalType": "bool",
          "name": "approved",
          "type": "bool"
        }
      ],
      "name": "setApprovalForAll",
      "outputs": [],
      "stateMutability": "nonpayable",
      "type": "function"
    },
    {
      "inputs": [
        {
          "internalType": "uint256",
          "name": "tokenId",
          "type": "uint256"
        },
        {
          "internalType": "string",
          "name": "ceramicDocId",
          "type": "string"
        }
      ],
      "name": "setContent",
      "outputs": [],
      "stateMutability": "nonpayable",
      "type": "function"
    },
    {
      "inputs": [
        {
          "internalType": "bytes4",
          "name": "interfaceId",
          "type": "bytes4"
        }
      ],
      "name": "supportsInterface",
      "outputs": [
        {
          "internalType": "bool",
          "name": "",
          "type": "bool"
        }
      ],
      "stateMutability": "view",
      "type": "function"
    },
    {
      "inputs": [],
      "name": "symbol",
      "outputs": [
        {
          "internalType": "string",
          "name": "",
          "type": "string"
        }
      ],
      "stateMutability": "view",
      "type": "function"
    },
    {
      "inputs": [
        {
          "internalType": "uint256",
          "name": "index",
          "type": "uint256"
        }
      ],
      "name": "tokenByIndex",
      "outputs": [
        {
          "internalType": "uint256",
          "name": "",
          "type": "uint256"
        }
      ],
      "stateMutability": "view",
      "type": "function"
    },
    {
      "inputs": [
        {
          "internalType": "address",
          "name": "owner",
          "type": "address"
        },
        {
          "internalType": "uint256",
          "name": "index",
          "type": "uint256"
        }
      ],
      "name": "tokenOfOwnerByIndex",
      "outputs": [
        {
          "internalType": "uint256",
          "name": "",
          "type": "uint256"
        }
      ],
      "stateMutability": "view",
      "type": "function"
    },
    {
      "inputs": [
        {
          "internalType": "uint256",
          "name": "tokenId",
          "type": "uint256"
        }
      ],
      "name": "tokenURI",
      "outputs": [
        {
          "internalType": "string",
          "name": "",
          "type": "string"
        }
      ],
      "stateMutability": "view",
      "type": "function"
    },
    {
      "inputs": [],
      "name": "totalSupply",
      "outputs": [
        {
          "internalType": "uint256",
          "name": "",
          "type": "uint256"
        }
      ],
      "stateMutability": "view",
      "type": "function"
    },
    {
      "inputs": [
        {
          "internalType": "address",
          "name": "from",
          "type": "address"
        },
        {
          "internalType": "address",
          "name": "to",
          "type": "address"
        },
        {
          "internalType": "uint256",
          "name": "tokenId",
          "type": "uint256"
        }
      ],
      "name": "transferFrom",
      "outputs": [],
      "stateMutability": "nonpayable",
      "type": "function"
    }
  ],
  "bytecode": "0x608060405234801561001057600080fd5b50612aee806100206000396000f3fe608060405234801561001057600080fd5b50600436106101e55760003560e01c80636c0360eb1161010f578063b3789e09116100a2578063ca15c87311610071578063ca15c873146106e7578063d547741f14610704578063e985e9c514610730578063f18bce5b1461075e576101e5565b8063b3789e0914610567578063b88d4fde146105de578063c4d66de8146106a4578063c87b56dd146106ca576101e5565b806391d14854116100de57806391d14854146104fd57806395d89b4114610529578063a217fddf14610531578063a22cb46514610539576101e5565b80636c0360eb146104a457806370a08231146104ac57806375b238fc146104d25780639010d07c146104da576101e5565b8063248a9ca31161018757806342842e0e1161015657806342842e0e146104175780634f6ccce71461044d57806360399a791461046a5780636352211e14610487576101e5565b8063248a9ca3146103765780632f2ff15d146103935780632f745c59146103bf57806336568abe146103eb576101e5565b8063095ea7b3116101c3578063095ea7b3146102db5780630f64253d1461030957806318160ddd1461032657806323b872dd14610340576101e5565b806301ffc9a7146101ea57806306fdde0314610225578063081812fc146102a2575b600080fd5b6102116004803603602081101561020057600080fd5b50356001600160e01b0319166107e3565b604080519115158252519081900360200190f35b61022d610806565b6040805160208082528351818301528351919283929083019185019080838360005b8381101561026757818101518382015260200161024f565b50505050905090810190601f1680156102945780820380516001836020036101000a031916815260200191505b509250505060405180910390f35b6102bf600480360360208110156102b857600080fd5b503561089d565b604080516001600160a01b039092168252519081900360200190f35b610307600480360360408110156102f157600080fd5b506001600160a01b0381351690602001356108ff565b005b6103076004803603602081101561031f57600080fd5b50356109da565b61032e610a32565b60408051918252519081900360200190f35b6103076004803603606081101561035657600080fd5b506001600160a01b03813581169160208101359091169060400135610a43565b61032e6004803603602081101561038c57600080fd5b5035610a94565b610307600480360360408110156103a957600080fd5b50803590602001356001600160a01b0316610aa9565b61032e600480360360408110156103d557600080fd5b506001600160a01b038135169060200135610b15565b6103076004803603604081101561040157600080fd5b50803590602001356001600160a01b0316610b46565b6103076004803603606081101561042d57600080fd5b506001600160a01b03813581169160208101359091169060400135610ba7565b61032e6004803603602081101561046357600080fd5b5035610bc2565b61022d6004803603602081101561048057600080fd5b5035610bde565b6102bf6004803603602081101561049d57600080fd5b5035610c79565b61022d610ca7565b61032e600480360360208110156104c257600080fd5b50356001600160a01b0316610d08565b61032e610d70565b6102bf600480360360408110156104f057600080fd5b5080359060200135610d92565b6102116004803603604081101561051357600080fd5b50803590602001356001600160a01b0316610db0565b61022d610dce565b61032e610e2f565b6103076004803603604081101561054f57600080fd5b506001600160a01b0381351690602001351515610e34565b6103076004803603604081101561057d57600080fd5b8135919081019060408101602082013564010000000081111561059f57600080fd5b8201836020820111156105b157600080fd5b803590602001918460018302840111640100000000831117156105d357600080fd5b509092509050610f39565b610307600480360360808110156105f457600080fd5b6001600160a01b0382358116926020810135909116916040820135919081019060808101606082013564010000000081111561062f57600080fd5b82018360208201111561064157600080fd5b8035906020019184600183028401116401000000008311171561066357600080fd5b91908080601f016020809104026020016040519081016040528093929190818152602001838380828437600092019190915250929550610fc5945050505050565b610307600480360360208110156106ba57600080fd5b50356001600160a01b0316611023565b61022d600480360360208110156106e057600080fd5b5035611096565b61032e600480360360208110156106fd57600080fd5b503561133d565b6103076004803603604081101561071a57600080fd5b50803590602001356001600160a01b0316611354565b6102116004803603604081101561074657600080fd5b506001600160a01b03813581169160200135166113ad565b6103076004803603606081101561077457600080fd5b6001600160a01b03823516916020810135918101906060810160408201356401000000008111156107a457600080fd5b8201836020820111156107b657600080fd5b803590602001918460018302840111640100000000831117156107d857600080fd5b5090925090506113db565b6001600160e01b0319811660009081526033602052604090205460ff165b919050565b606a8054604080516020601f60026000196101006001881615020190951694909404938401819004810282018101909252828152606093909290918301828280156108925780601f1061086757610100808354040283529160200191610892565b820191906000526020600020905b81548152906001019060200180831161087557829003601f168201915b505050505090505b90565b60006108a882611495565b6108e35760405162461bcd60e51b815260040180806020018281038252602c815260200180612985602c913960400191505060405180910390fd5b506000908152606860205260409020546001600160a01b031690565b600061090a82610c79565b9050806001600160a01b0316836001600160a01b0316141561095d5760405162461bcd60e51b8152600401808060200182810382526021815260200180612a386021913960400191505060405180910390fd5b806001600160a01b031661096f6114a8565b6001600160a01b0316148061099057506109908161098b6114a8565b6113ad565b6109cb5760405162461bcd60e51b81526004018080602001828103825260388152602001806128aa6038913960400191505060405180910390fd5b6109d583836114ac565b505050565b6109eb6109e56114a8565b8261151a565b610a265760405162461bcd60e51b815260040180806020018281038252602f815260200180612a09602f913960400191505060405180910390fd5b610a2f816115b9565b50565b6000610a3e60666115fe565b905090565b610a4e6109e56114a8565b610a895760405162461bcd60e51b8152600401808060200182810382526031815260200180612a596031913960400191505060405180910390fd5b6109d5838383611609565b60009081526097602052604090206002015490565b600082815260976020526040902060020154610acc90610ac76114a8565b610db0565b610b075760405162461bcd60e51b815260040180806020018281038252602f8152602001806127a3602f913960400191505060405180910390fd5b610b118282611767565b5050565b6001600160a01b0382166000908152606560205260408120610b3d908363ffffffff6117d616565b90505b92915050565b610b4e6114a8565b6001600160a01b0316816001600160a01b031614610b9d5760405162461bcd60e51b815260040180806020018281038252602f815260200180612a8a602f913960400191505060405180910390fd5b610b1182826117e2565b6109d583838360405180602001604052806000815250610fc5565b600080610bd660668463ffffffff61185116565b509392505050565b60c96020908152600091825260409182902080548351601f600260001961010060018616150201909316929092049182018490048402810184019094528084529091830182828015610c715780601f10610c4657610100808354040283529160200191610c71565b820191906000526020600020905b815481529060010190602001808311610c5457829003601f168201915b505050505081565b6000610b408260405180606001604052806029815260200161290c602991396066919063ffffffff61186d16565b606d8054604080516020601f60026000196101006001881615020190951694909404938401819004810282018101909252828152606093909290918301828280156108925780601f1061086757610100808354040283529160200191610892565b60006001600160a01b038216610d4f5760405162461bcd60e51b815260040180806020018281038252602a8152602001806128e2602a913960400191505060405180910390fd5b6001600160a01b0382166000908152606560205260409020610b40906115fe565b604080516941444d494e5f524f4c4560b01b8152905190819003600a01902081565b6000828152609760205260408120610b3d908363ffffffff6117d616565b6000828152609760205260408120610b3d908363ffffffff61188416565b606b8054604080516020601f60026000196101006001881615020190951694909404938401819004810282018101909252828152606093909290918301828280156108925780601f1061086757610100808354040283529160200191610892565b600081565b610e3c6114a8565b6001600160a01b0316826001600160a01b03161415610ea2576040805162461bcd60e51b815260206004820152601960248201527f4552433732313a20617070726f766520746f2063616c6c657200000000000000604482015290519081900360640190fd5b8060696000610eaf6114a8565b6001600160a01b03908116825260208083019390935260409182016000908120918716808252919093529120805460ff191692151592909217909155610ef36114a8565b60408051841515815290516001600160a01b0392909216917f17307eab39ab6107e8899845ad3d59bd9653f200f220920489ca2b5937696c319181900360200190a35050565b610f4a610f446114a8565b8461151a565b610f855760405162461bcd60e51b815260040180806020018281038252602f815260200180612a09602f913960400191505060405180910390fd5b6109d58383838080601f01602080910402602001604051908101604052809392919081815260200183838082843760009201919091525061189992505050565b610fd6610fd06114a8565b8361151a565b6110115760405162461bcd60e51b8152600401808060200182810382526031815260200180612a596031913960400191505060405180910390fd5b61101d84848484611957565b50505050565b61106d6040518060400160405280600d81526020016c47656f5765624c6963656e736560981b8152506040518060400160405280600381526020016247454f60e81b8152506119a9565b604080516941444d494e5f524f4c4560b01b8152905190819003600a019020610a2f9082610b07565b60606110a182611495565b6110dc5760405162461bcd60e51b815260040180806020018281038252602f8152602001806129da602f913960400191505060405180910390fd5b6000828152606c602090815260409182902080548351601f60026000196101006001861615020190931692909204918201849004840281018401909452808452606093928301828280156111715780601f1061114657610100808354040283529160200191611171565b820191906000526020600020905b81548152906001019060200180831161115457829003601f168201915b5050606d549394505050506002600019610100600184161502019091160461119a579050610801565b80511561126b57606d8160405160200180838054600181600116156101000203166002900480156112025780601f106111e0576101008083540402835291820191611202565b820191906000526020600020905b8154815290600101906020018083116111ee575b5050825160208401908083835b6020831061122e5780518252601f19909201916020918201910161120f565b6001836020036101000a03801982511681845116808217855250505050505090500192505050604051602081830303815290604052915050610801565b606d61127684611a66565b60405160200180838054600181600116156101000203166002900480156112d45780601f106112b25761010080835404028352918201916112d4565b820191906000526020600020905b8154815290600101906020018083116112c0575b5050825160208401908083835b602083106113005780518252601f1990920191602091820191016112e1565b6001836020036101000a03801982511681845116808217855250505050505090500192505050604051602081830303815290604052915050919050565b6000818152609760205260408120610b40906115fe565b60008281526097602052604090206002015461137290610ac76114a8565b610b9d5760405162461bcd60e51b815260040180806020018281038252603081526020018061287a6030913960400191505060405180910390fd5b6001600160a01b03918216600090815260696020908152604080832093909416825291909152205460ff1690565b604080516941444d494e5f524f4c4560b01b8152905190819003600a0190206114049033610db0565b61144b576040805162461bcd60e51b815260206004820152601360248201527221b0b63632b91034b9903737ba1030b236b4b760691b604482015290519081900360640190fd5b6114558484611b2a565b61101d8383838080601f01602080910402602001604051908101604052809392919081815260200183838082843760009201919091525061189992505050565b6000610b4060668363ffffffff611b4416565b3390565b600081815260686020526040902080546001600160a01b0319166001600160a01b03841690811790915581906114e182610c79565b6001600160a01b03167f8c5be1e5ebec7d5bd14f71427d1e84f3dd0314c0f7b2291e5b200ac8c7c3b92560405160405180910390a45050565b600061152582611495565b6115605760405162461bcd60e51b815260040180806020018281038252602c81526020018061284e602c913960400191505060405180910390fd5b600061156b83610c79565b9050806001600160a01b0316846001600160a01b031614806115b15750604080516941444d494e5f524f4c4560b01b8152905190819003600a0190206115b19085610db0565b949350505050565b600081815260c9602052604081206115d0916126a4565b60405181907fe3cb1f781d3798c21e971baf6fb95e9e4e9a4be20a89c3063de6ab076869f3c490600090a250565b6000610b4082611b50565b826001600160a01b031661161c82610c79565b6001600160a01b0316146116615760405162461bcd60e51b81526004018080602001828103825260298152602001806129b16029913960400191505060405180910390fd5b6001600160a01b0382166116a65760405162461bcd60e51b81526004018080602001828103825260248152602001806128046024913960400191505060405180910390fd5b6116b18383836109d5565b6116bc6000826114ac565b6001600160a01b03831660009081526065602052604090206116e4908263ffffffff611b5416565b506001600160a01b038216600090815260656020526040902061170d908263ffffffff611b6016565b506117206066828463ffffffff611b6c16565b5080826001600160a01b0316846001600160a01b03167fddf252ad1be2c89b69c2b068fc378daa952ba7f163c4a11628f55a4df523b3ef60405160405180910390a4505050565b6000828152609760205260409020611785908263ffffffff611b8216565b15610b11576117926114a8565b6001600160a01b0316816001600160a01b0316837f2f8788117e7eff1d82e926ec794901d17c78024a50270940304540a733656f0d60405160405180910390a45050565b6000610b3d8383611b97565b6000828152609760205260409020611800908263ffffffff611bfb16565b15610b115761180d6114a8565b6001600160a01b0316816001600160a01b0316837ff6391f5c32d9c69d2a47ea670b442974b53935d1edc7fd64eb21e047a839171b60405160405180910390a45050565b60008080806118608686611c10565b9097909650945050505050565b600061187a848484611c8b565b90505b9392505050565b6000610b3d836001600160a01b038416611d55565b600082815260c96020908152604090912082516118b8928401906126e8565b50817fcaeb449feb91cb24ce3b73a7a949a0ac4421feb9b876f7c6bda3d3be03e681fd826040518080602001828103825283818151815260200191508051906020019080838360005b83811015611919578181015183820152602001611901565b50505050905090810190601f1680156119465780820380516001836020036101000a031916815260200191505b509250505060405180910390a25050565b611962848484611609565b61196e84848484611d6d565b61101d5760405162461bcd60e51b81526004018080602001828103825260328152602001806127d26032913960400191505060405180910390fd5b600054610100900460ff16806119c257506119c2611eed565b806119d0575060005460ff16155b611a0b5760405162461bcd60e51b815260040180806020018281038252602e815260200180612935602e913960400191505060405180910390fd5b600054610100900460ff16158015611a36576000805460ff1961ff0019909116610100171660011790555b611a3e611ef3565b611a46611f94565b611a508383612031565b80156109d5576000805461ff0019169055505050565b606081611a8b57506040805180820190915260018152600360fc1b6020820152610801565b8160005b8115611aa357600101600a82049150611a8f565b6060816040519080825280601f01601f191660200182016040528015611ad0576020820181803883390190505b50859350905060001982015b8315611b2157600a840660300160f81b82828060019003935081518110611aff57fe5b60200101906001600160f81b031916908160001a905350600a84049350611adc565b50949350505050565b610b11828260405180602001604052806000815250612116565b6000610b3d8383611d55565b5490565b6000610b3d8383612168565b6000610b3d838361222e565b600061187a84846001600160a01b038516612278565b6000610b3d836001600160a01b03841661222e565b81546000908210611bd95760405162461bcd60e51b81526004018080602001828103825260228152602001806127816022913960400191505060405180910390fd5b826000018281548110611be857fe5b9060005260206000200154905092915050565b6000610b3d836001600160a01b038416612168565b815460009081908310611c545760405162461bcd60e51b81526004018080602001828103825260228152602001806129636022913960400191505060405180910390fd5b6000846000018481548110611c6557fe5b906000526020600020906002020190508060000154816001015492509250509250929050565b60008281526001840160205260408120548281611d265760405162461bcd60e51b81526004018080602001828103825283818151815260200191508051906020019080838360005b83811015611ceb578181015183820152602001611cd3565b50505050905090810190601f168015611d185780820380516001836020036101000a031916815260200191505b509250505060405180910390fd5b50846000016001820381548110611d3957fe5b9060005260206000209060020201600101549150509392505050565b60009081526001919091016020526040902054151590565b6000611d81846001600160a01b031661230f565b611d8d575060016115b1565b6060611eb3630a85bd0160e11b611da26114a8565b88878760405160240180856001600160a01b03166001600160a01b03168152602001846001600160a01b03166001600160a01b0316815260200183815260200180602001828103825283818151815260200191508051906020019080838360005b83811015611e1b578181015183820152602001611e03565b50505050905090810190601f168015611e485780820380516001836020036101000a031916815260200191505b5095505050505050604051602081830303815290604052906001600160e01b0319166020820180516001600160e01b0383818316178352505050506040518060600160405280603281526020016127d2603291396001600160a01b038816919063ffffffff61231516565b90506000818060200190516020811015611ecc57600080fd5b50516001600160e01b031916630a85bd0160e11b1492505050949350505050565b303b1590565b600054610100900460ff1680611f0c5750611f0c611eed565b80611f1a575060005460ff16155b611f555760405162461bcd60e51b815260040180806020018281038252602e815260200180612935602e913960400191505060405180910390fd5b600054610100900460ff16158015611f80576000805460ff1961ff0019909116610100171660011790555b8015610a2f576000805461ff001916905550565b600054610100900460ff1680611fad5750611fad611eed565b80611fbb575060005460ff16155b611ff65760405162461bcd60e51b815260040180806020018281038252602e815260200180612935602e913960400191505060405180910390fd5b600054610100900460ff16158015612021576000805460ff1961ff0019909116610100171660011790555b611f806301ffc9a760e01b612324565b600054610100900460ff168061204a575061204a611eed565b80612058575060005460ff16155b6120935760405162461bcd60e51b815260040180806020018281038252602e815260200180612935602e913960400191505060405180910390fd5b600054610100900460ff161580156120be576000805460ff1961ff0019909116610100171660011790555b82516120d190606a9060208601906126e8565b5081516120e590606b9060208501906126e8565b506120f66380ac58cd60e01b612324565b612106635b5e139f60e01b612324565b611a5063780e9d6360e01b612324565b61212083836123a8565b61212d6000848484611d6d565b6109d55760405162461bcd60e51b81526004018080602001828103825260328152602001806127d26032913960400191505060405180910390fd5b60008181526001830160205260408120548015612224578354600019808301919081019060009087908390811061219b57fe5b90600052602060002001549050808760000184815481106121b857fe5b6000918252602080832090910192909255828152600189810190925260409020908401905586548790806121e857fe5b60019003818190600052602060002001600090559055866001016000878152602001908152602001600020600090556001945050505050610b40565b6000915050610b40565b600061223a8383611d55565b61227057508154600181810184556000848152602080822090930184905584548482528286019093526040902091909155610b40565b506000610b40565b6000828152600184016020526040812054806122dd57505060408051808201825283815260208082018481528654600181810189556000898152848120955160029093029095019182559151908201558654868452818801909252929091205561187d565b828560000160018303815481106122f057fe5b906000526020600020906002020160010181905550600091505061187d565b3b151590565b606061187a84846000856124e2565b6001600160e01b03198082161415612383576040805162461bcd60e51b815260206004820152601c60248201527f4552433136353a20696e76616c696420696e7465726661636520696400000000604482015290519081900360640190fd5b6001600160e01b0319166000908152603360205260409020805460ff19166001179055565b6001600160a01b038216612403576040805162461bcd60e51b815260206004820181905260248201527f4552433732313a206d696e7420746f20746865207a65726f2061646472657373604482015290519081900360640190fd5b61240c81611495565b1561245e576040805162461bcd60e51b815260206004820152601c60248201527f4552433732313a20746f6b656e20616c7265616479206d696e74656400000000604482015290519081900360640190fd5b61246a600083836109d5565b6001600160a01b0382166000908152606560205260409020612492908263ffffffff611b6016565b506124a56066828463ffffffff611b6c16565b5060405181906001600160a01b038416906000907fddf252ad1be2c89b69c2b068fc378daa952ba7f163c4a11628f55a4df523b3ef908290a45050565b6060824710156125235760405162461bcd60e51b81526004018080602001828103825260268152602001806128286026913960400191505060405180910390fd5b61252c8561230f565b61257d576040805162461bcd60e51b815260206004820152601d60248201527f416464726573733a2063616c6c20746f206e6f6e2d636f6e7472616374000000604482015290519081900360640190fd5b60006060866001600160a01b031685876040518082805190602001908083835b602083106125bc5780518252601f19909201916020918201910161259d565b6001836020036101000a03801982511681845116808217855250505050505090500191505060006040518083038185875af1925050503d806000811461261e576040519150601f19603f3d011682016040523d82523d6000602084013e612623565b606091505b509150915061263382828661263e565b979650505050505050565b6060831561264d57508161187d565b82511561265d5782518084602001fd5b60405162461bcd60e51b8152602060048201818152845160248401528451859391928392604401919085019080838360008315611ceb578181015183820152602001611cd3565b50805460018160011615610100020316600290046000825580601f106126ca5750610a2f565b601f016020900490600052602060002090810190610a2f9190612766565b828054600181600116156101000203166002900490600052602060002090601f016020900481019282601f1061272957805160ff1916838001178555612756565b82800160010185558215612756579182015b8281111561275657825182559160200191906001019061273b565b50612762929150612766565b5090565b61089a91905b80821115612762576000815560010161276c56fe456e756d657261626c655365743a20696e646578206f7574206f6620626f756e6473416363657373436f6e74726f6c3a2073656e646572206d75737420626520616e2061646d696e20746f206772616e744552433732313a207472616e7366657220746f206e6f6e20455243373231526563656976657220696d706c656d656e7465724552433732313a207472616e7366657220746f20746865207a65726f2061646472657373416464726573733a20696e73756666696369656e742062616c616e636520666f722063616c6c4552433732313a206f70657261746f7220717565727920666f72206e6f6e6578697374656e7420746f6b656e416363657373436f6e74726f6c3a2073656e646572206d75737420626520616e2061646d696e20746f207265766f6b654552433732313a20617070726f76652063616c6c6572206973206e6f74206f776e6572206e6f7220617070726f76656420666f7220616c6c4552433732313a2062616c616e636520717565727920666f7220746865207a65726f20616464726573734552433732313a206f776e657220717565727920666f72206e6f6e6578697374656e7420746f6b656e496e697469616c697a61626c653a20636f6e747261637420697320616c726561647920696e697469616c697a6564456e756d657261626c654d61703a20696e646578206f7574206f6620626f756e64734552433732313a20617070726f76656420717565727920666f72206e6f6e6578697374656e7420746f6b656e4552433732313a207472616e73666572206f6620746f6b656e2074686174206973206e6f74206f776e4552433732314d657461646174613a2055524920717565727920666f72206e6f6e6578697374656e7420746f6b656e4552433732314c6963656e73653a2063616c6c6572206973206e6f74206f776e6572206e6f7220617070726f7665644552433732313a20617070726f76616c20746f2063757272656e74206f776e65724552433732313a207472616e736665722063616c6c6572206973206e6f74206f776e6572206e6f7220617070726f766564416363657373436f6e74726f6c3a2063616e206f6e6c792072656e6f756e636520726f6c657320666f722073656c66a26469706673582212204b9c9c8bdbaee29e962d43309fed063b14b750de87ea99ce42612559ef52316364736f6c63430006020033",
  "linkReferences": {},
  "deployedLinkReferences": {}
}