{
  "address": "0x63f508bd47bCEBEdf888C44DADC32FA46ec1d720",
  "abi": [
    {
      "anonymous": false,
      "inputs": [
        {
          "indexed": true,
          "internalType": "address",
          "name": "_payer",
          "type": "address"
        },
        {
          "indexed": false,
          "internalType": "int96",
          "name": "contributionRate",
          "type": "int96"
        }
      ],
      "name": "PayerContributionRateUpdated",
      "type": "event"
    },
    {
      "anonymous": false,
      "inputs": [
        {
          "indexed": true,
          "internalType": "address",
          "name": "_payer",
          "type": "address"
        },
        {
          "indexed": false,
          "internalType": "uint256",
          "name": "forSalePrice",
          "type": "uint256"
        }
      ],
      "name": "PayerForSalePriceUpdated",
      "type": "event"
    },
    {
      "inputs": [],
      "name": "contributionRate",
      "outputs": [
        {
          "internalType": "int96",
          "name": "",
          "type": "int96"
        }
      ],
      "stateMutability": "view",
      "type": "function"
    },
    {
      "inputs": [],
      "name": "forSalePrice",
      "outputs": [
        {
          "internalType": "uint256",
          "name": "",
          "type": "uint256"
        }
      ],
      "stateMutability": "view",
      "type": "function"
    },
    {
      "inputs": [
        {
          "internalType": "contract IPCOLicenseParamsStore",
          "name": "paramsStore",
          "type": "address"
        },
        {
          "internalType": "contract IERC721",
          "name": "_license",
          "type": "address"
        },
        {
          "internalType": "uint256",
          "name": "_licenseId",
          "type": "uint256"
        },
        {
          "internalType": "address",
          "name": "bidder",
          "type": "address"
        },
        {
          "internalType": "int96",
          "name": "newContributionRate",
          "type": "int96"
        },
        {
          "internalType": "uint256",
          "name": "newForSalePrice",
          "type": "uint256"
        }
      ],
      "name": "initializeBid",
      "outputs": [],
      "stateMutability": "nonpayable",
      "type": "function"
    },
    {
      "inputs": [],
      "name": "isPayerBidActive",
      "outputs": [
        {
          "internalType": "bool",
          "name": "",
          "type": "bool"
        }
      ],
      "stateMutability": "view",
      "type": "function"
    },
    {
      "inputs": [],
      "name": "license",
      "outputs": [
        {
          "internalType": "contract IERC721",
          "name": "",
          "type": "address"
        }
      ],
      "stateMutability": "view",
      "type": "function"
    },
    {
      "inputs": [],
      "name": "licenseId",
      "outputs": [
        {
          "internalType": "uint256",
          "name": "",
          "type": "uint256"
        }
      ],
      "stateMutability": "view",
      "type": "function"
    },
    {
      "inputs": [],
      "name": "payer",
      "outputs": [
        {
          "internalType": "address",
          "name": "",
          "type": "address"
        }
      ],
      "stateMutability": "view",
      "type": "function"
    }
  ],
  "transactionHash": "0xc45e095e635b2cf0cb33885a0b73e546624b036e8ae8fa5a49ff91291ba741a2",
  "args": [],
  "numDeployments": 1,
  "solcInputHash": "0c9a44f0fdafb3a0f1e13f96e13aadda",
  "bytecode": "0x608060405234801561001057600080fd5b50610fb9806100206000396000f3fe608060405234801561001057600080fd5b506004361061007d5760003560e01c80636df38b841161005b5780636df38b84146100c75780638d107ff5146100e25780639190f8d314610113578063cdd42e951461011b57600080fd5b8063123119cd146100825780632c55dbed146100a75780636b87d24c146100bf575b600080fd5b61008a610130565b6040516001600160a01b0390911681526020015b60405180910390f35b6100af610168565b604051901515815260200161009e565b61008a610177565b6100cf6101a0565b604051600b9190910b815260200161009e565b7f7afbdc140ed2feae39152d66ce3c9b7394a1bbd963c668f15d7196d48d2532cb545b60405190815260200161009e565b6101056101aa565b61012e610129366004610c8f565b6101e5565b005b6000807f3c72d60a0f1018560e1ecd381dcc70c04920ba28255c0b6f8b496f8f6f727f415b600101546001600160a01b031692915050565b600061017261078e565b905090565b6000807f7afbdc140ed2feae39152d66ce3c9b7394a1bbd963c668f15d7196d48d2532c9610155565b60006101726107a2565b60006101b461078e565b156101df57507f3c72d60a0f1018560e1ecd381dcc70c04920ba28255c0b6f8b496f8f6f727f455490565b50600090565b6101ed610973565b7f7afbdc140ed2feae39152d66ce3c9b7394a1bbd963c668f15d7196d48d2532c980546001600160a01b03199081166001600160a01b0389811691821784557f7afbdc140ed2feae39152d66ce3c9b7394a1bbd963c668f15d7196d48d2532ca8054909316908916179091557f7afbdc140ed2feae39152d66ce3c9b7394a1bbd963c668f15d7196d48d2532cb86905560408051630b51881360e11b81529051600092916316a310269160048083019260209291908290030181865afa1580156102bb573d6000803e3d6000fd5b505050506040513d601f19601f820116820180604052508101906102df9190610cff565b905060008260000160009054906101000a90046001600160a01b03166001600160a01b031663014df4146040518163ffffffff1660e01b8152600401602060405180830381865afa158015610338573d6000803e3d6000fd5b505050506040513d601f19601f8201168201806040525081019061035c9190610cff565b905061036a848684846109fc565b6103cd5760405162461bcd60e51b815260206004820152602960248201527f4346414261736550434f46616365743a20496e636f727265637420666f722073604482015268616c6520707269636560b81b60648201526084015b60405180910390fd5b8254604080516320bc442560e01b815290517feaf1cf088be31249661a61fc7743edf628a39210375613d4be0a9cda3ec06da6926000926001600160a01b03909116916320bc4425916004808201926020929091908290030181865afa15801561043b573d6000803e3d6000fd5b505050506040513d601f19601f8201168201806040525081019061045f9190610d18565b6040805180820182526001600160a01b0383168082529151635b69006f60e11b81527fa9214cc96615e0085d3bb077758db69497dc2dce3b2b1e97bc93c3d18d83efd360048201529293509160208301919063b6d200de90602401602060405180830381865afa1580156104d7573d6000803e3d6000fd5b505050506040513d601f19601f820116820180604052508101906104fb9190610d18565b6001600160a01b03908116909152815184549082166001600160a01b03199182161785556020928301516001860180549184169190921617905586546040805163d41c3a6560e01b81529051600094929093169263d41c3a65926004808401939192918290030181865afa158015610577573d6000803e3d6000fd5b505050506040513d601f19601f8201168201806040525081019061059b9190610d18565b905060008660000160009054906101000a90046001600160a01b03166001600160a01b031663565a2e2c6040518163ffffffff1660e01b8152600401602060405180830381865afa1580156105f4573d6000803e3d6000fd5b505050506040513d601f19601f820116820180604052508101906106189190610d18565b9050610627848b30858d610a2f565b506106348482848c610a5e565b427f3c72d60a0f1018560e1ecd381dcc70c04920ba28255c0b6f8b496f8f6f727f419081556bffffffffffffffffffffffff8a16600160a01b026001600160a01b038c169081177f3c72d60a0f1018560e1ecd381dcc70c04920ba28255c0b6f8b496f8f6f727f42557f3c72d60a0f1018560e1ecd381dcc70c04920ba28255c0b6f8b496f8f6f727f438890557f3c72d60a0f1018560e1ecd381dcc70c04920ba28255c0b6f8b496f8f6f727f448790557f3c72d60a0f1018560e1ecd381dcc70c04920ba28255c0b6f8b496f8f6f727f458a9055604080518b815290517fae3c4f18410e9cfcd20fc8664a5a0082a92f07a0a5febdc22bec0c53939373369181900360200190a2604051600b8b900b81526001600160a01b038c16907f6602f4d39e226f3807ddac3e7aab03883832e2ea2d07ccdeaf513c16679fdcd09060200160405180910390a25050505050505050505050505050565b6000806107996107a2565b600b0b13905090565b7feaf1cf088be31249661a61fc7743edf628a39210375613d4be0a9cda3ec06da7547f7afbdc140ed2feae39152d66ce3c9b7394a1bbd963c668f15d7196d48d2532c980546040805163d41c3a6560e01b815290516000947feaf1cf088be31249661a61fc7743edf628a39210375613d4be0a9cda3ec06da69386936001600160a01b039283169363e6a1e888939092169163d41c3a65916004808201926020929091908290030181865afa15801561085f573d6000803e3d6000fd5b505050506040513d601f19601f820116820180604052508101906108839190610d18565b8554604080516315968b8b60e21b8152905130926001600160a01b03169163565a2e2c9160048083019260209291908290030181865afa1580156108cb573d6000803e3d6000fd5b505050506040513d601f19601f820116820180604052508101906108ef9190610d18565b60405160e085901b6001600160e01b03191681526001600160a01b03938416600482015291831660248301529091166044820152606401608060405180830381865afa158015610943573d6000803e3d6000fd5b505050506040513d601f19601f820116820180604052508101906109679190610d3c565b50909695505050505050565b7fc8fcad8db84d3cc18b4c41d551ea0ee66dd599cde068d998e57d5e09332c131c600401546001600160a01b031633146109fa5760405162461bcd60e51b815260206004820152602260248201527f4c69624469616d6f6e643a204d75737420626520636f6e7472616374206f776e60448201526132b960f11b60648201526084016103c4565b565b60008082610a0a8588610d7a565b610a149190610da7565b6bffffffffffffffffffffffff861614915050949350505050565b604080516000815260208101909152606090610a549087908790879087908790610a84565b9695505050505050565b604080516000815260208101909152610a7e908590859085908590610b89565b50505050565b855460018701546060916001600160a01b03908116916339255d5b9116806394229ecb888b8b8a60006040519080825280601f01601f191660200182016040528015610ad7576020820181803683370190505b50604051602401610aec959493929190610e37565b60408051808303601f1901815291815260208201805160e094851b6001600160e01b03909116179052519185901b6001600160e01b0319168252610b37939250908790600401610e75565b6000604051808303816000875af1158015610b56573d6000803e3d6000fd5b505050506040513d6000823e601f3d908101601f19168201604052610b7e9190810190610eab565b979650505050505050565b845460018601546040805160008152602081019091526001600160a01b03928316926339255d5b92169081906362fc305e90610bce9089908b908a9060448101610f4d565b60408051808303601f1901815291815260208201805160e094851b6001600160e01b03909116179052519185901b6001600160e01b0319168252610c19939250908690600401610e75565b6000604051808303816000875af1158015610c38573d6000803e3d6000fd5b505050506040513d6000823e601f3d908101601f19168201604052610c609190810190610eab565b505050505050565b6001600160a01b0381168114610c7d57600080fd5b50565b80600b0b8114610c7d57600080fd5b60008060008060008060c08789031215610ca857600080fd5b8635610cb381610c68565b95506020870135610cc381610c68565b9450604087013593506060870135610cda81610c68565b92506080870135610cea81610c80565b8092505060a087013590509295509295509295565b600060208284031215610d1157600080fd5b5051919050565b600060208284031215610d2a57600080fd5b8151610d3581610c68565b9392505050565b60008060008060808587031215610d5257600080fd5b845193506020850151610d6481610c80565b6040860151606090960151949790965092505050565b6000816000190483118215151615610da257634e487b7160e01b600052601160045260246000fd5b500290565b600082610dc457634e487b7160e01b600052601260045260246000fd5b500490565b634e487b7160e01b600052604160045260246000fd5b60005b83811015610dfa578181015183820152602001610de2565b83811115610a7e5750506000910152565b60008151808452610e23816020860160208601610ddf565b601f01601f19169290920160200192915050565b6001600160a01b038681168252858116602083015284166040820152600b83900b606082015260a060808201819052600090610b7e90830184610e0b565b6001600160a01b0384168152606060208201819052600090610e9990830185610e0b565b8281036040840152610a548185610e0b565b600060208284031215610ebd57600080fd5b815167ffffffffffffffff80821115610ed557600080fd5b818401915084601f830112610ee957600080fd5b815181811115610efb57610efb610dc9565b604051601f8201601f19908116603f01168101908382118183101715610f2357610f23610dc9565b81604052828152876020848701011115610f3c57600080fd5b610b7e836020830160208801610ddf565b6001600160a01b03858116825284166020820152600b83900b6040820152608060608201819052600090610a5490830184610e0b56fea264697066735822122095a4bba9c5e37fe33935bfff5b63b569891110e131c5d73dbdff443614e98ff364736f6c634300080e0033",
  "devdoc": {
    "kind": "dev",
    "methods": {
      "initializeBid(address,address,uint256,address,int96,uint256)": {
        "params": {
          "_license": "Underlying ERC721 license",
          "_licenseId": "Token ID of license",
          "bidder": "Initial bidder",
          "newContributionRate": "New contribution rate for bid",
          "newForSalePrice": "Intented new for sale price. Must be within rounding bounds of newContributionRate",
          "paramsStore": "Global store for parameters"
        }
      }
    },
    "version": 1
  },
  "userdoc": {
    "events": {
      "PayerContributionRateUpdated(address,int96)": {
        "notice": "Emitted when an owner bid is updated"
      },
      "PayerForSalePriceUpdated(address,uint256)": {
        "notice": "Emitted when for sale price is updated"
      }
    },
    "kind": "user",
    "methods": {
      "contributionRate()": {
        "notice": "Current contribution rate of payer"
      },
      "forSalePrice()": {
        "notice": "Current price needed to purchase license"
      },
      "initializeBid(address,address,uint256,address,int96,uint256)": {
        "notice": "Initialize bid.      - Must be the contract owner      - Must have payment token buffer deposited      - Must have permissions to create flow for bidder"
      },
      "isPayerBidActive()": {
        "notice": "Is current bid actively being paid"
      },
      "license()": {
        "notice": "License"
      },
      "licenseId()": {
        "notice": "License Id"
      },
      "payer()": {
        "notice": "Current payer of license"
      }
    },
    "notice": "Handles basic PCO functionality using Constant Flow Agreement (CFA)",
    "version": 1
  },
  "storageLayout": {
    "storage": [],
    "types": null
  }
}