{
  "address": "0xe69d4dC13eafF5A7cE0a6485BBc1d13E18aA8260",
  "abi": [
    {
      "anonymous": false,
      "inputs": [
        {
          "indexed": true,
          "internalType": "address",
          "name": "_payer",
          "type": "address"
        },
        {
          "indexed": true,
          "internalType": "address",
          "name": "_bidder",
          "type": "address"
        },
        {
          "indexed": false,
          "internalType": "uint256",
          "name": "forSalePrice",
          "type": "uint256"
        }
      ],
      "name": "BidAccepted",
      "type": "event"
    },
    {
      "anonymous": false,
      "inputs": [
        {
          "indexed": true,
          "internalType": "address",
          "name": "_bidder",
          "type": "address"
        },
        {
          "indexed": false,
          "internalType": "int96",
          "name": "contributionRate",
          "type": "int96"
        },
        {
          "indexed": false,
          "internalType": "uint256",
          "name": "forSalePrice",
          "type": "uint256"
        }
      ],
      "name": "BidPlaced",
      "type": "event"
    },
    {
      "anonymous": false,
      "inputs": [
        {
          "indexed": true,
          "internalType": "address",
          "name": "_payer",
          "type": "address"
        },
        {
          "indexed": true,
          "internalType": "address",
          "name": "_bidder",
          "type": "address"
        },
        {
          "indexed": false,
          "internalType": "uint256",
          "name": "forSalePrice",
          "type": "uint256"
        }
      ],
      "name": "BidRejected",
      "type": "event"
    },
    {
      "anonymous": false,
      "inputs": [
        {
          "indexed": true,
          "internalType": "address",
          "name": "_sender",
          "type": "address"
        },
        {
          "indexed": true,
          "internalType": "address",
          "name": "_payer",
          "type": "address"
        },
        {
          "indexed": true,
          "internalType": "address",
          "name": "_bidder",
          "type": "address"
        },
        {
          "indexed": false,
          "internalType": "uint256",
          "name": "forSalePrice",
          "type": "uint256"
        }
      ],
      "name": "TransferTriggered",
      "type": "event"
    },
    {
      "inputs": [],
      "name": "acceptBid",
      "outputs": [],
      "stateMutability": "nonpayable",
      "type": "function"
    },
    {
      "inputs": [],
      "name": "calculatePenalty",
      "outputs": [
        {
          "internalType": "uint256",
          "name": "",
          "type": "uint256"
        }
      ],
      "stateMutability": "view",
      "type": "function"
    },
    {
      "inputs": [
        {
          "internalType": "int96",
          "name": "newContributionRate",
          "type": "int96"
        },
        {
          "internalType": "uint256",
          "name": "newForSalePrice",
          "type": "uint256"
        }
      ],
      "name": "editBid",
      "outputs": [],
      "stateMutability": "nonpayable",
      "type": "function"
    },
    {
      "inputs": [],
      "name": "hasPendingBid",
      "outputs": [
        {
          "internalType": "bool",
          "name": "",
          "type": "bool"
        }
      ],
      "stateMutability": "view",
      "type": "function"
    },
    {
      "inputs": [],
      "name": "pendingBid",
      "outputs": [
        {
          "components": [
            {
              "internalType": "uint256",
              "name": "timestamp",
              "type": "uint256"
            },
            {
              "internalType": "address",
              "name": "bidder",
              "type": "address"
            },
            {
              "internalType": "int96",
              "name": "contributionRate",
              "type": "int96"
            },
            {
              "internalType": "uint256",
              "name": "perSecondFeeNumerator",
              "type": "uint256"
            },
            {
              "internalType": "uint256",
              "name": "perSecondFeeDenominator",
              "type": "uint256"
            },
            {
              "internalType": "uint256",
              "name": "forSalePrice",
              "type": "uint256"
            }
          ],
          "internalType": "struct LibCFAPenaltyBid.Bid",
          "name": "",
          "type": "tuple"
        }
      ],
      "stateMutability": "pure",
      "type": "function"
    },
    {
      "inputs": [
        {
          "internalType": "int96",
          "name": "newContributionRate",
          "type": "int96"
        },
        {
          "internalType": "uint256",
          "name": "newForSalePrice",
          "type": "uint256"
        }
      ],
      "name": "placeBid",
      "outputs": [],
      "stateMutability": "nonpayable",
      "type": "function"
    },
    {
      "inputs": [
        {
          "internalType": "int96",
          "name": "newContributionRate",
          "type": "int96"
        },
        {
          "internalType": "uint256",
          "name": "newForSalePrice",
          "type": "uint256"
        }
      ],
      "name": "rejectBid",
      "outputs": [],
      "stateMutability": "nonpayable",
      "type": "function"
    },
    {
      "inputs": [],
      "name": "triggerTransfer",
      "outputs": [],
      "stateMutability": "nonpayable",
      "type": "function"
    }
  ],
  "transactionHash": "0x4772d5eadd8348a6f1634e47c6b50699862f06d87f2b11b7c17e84c4a1e6e5d3",
  "args": [],
  "numDeployments": 6,
  "solcInputHash": "ada46a53e5eccee72b26f807fae85821",
  "bytecode": "0x608060405234801561001057600080fd5b50613342806100206000396000f3fe608060405234801561001057600080fd5b50600436106100875760003560e01c80639e41ec671161005b5780639e41ec6714610142578063ce2ccb1514610158578063e52a787414610160578063f11663e81461016857600080fd5b8062fa68021461008c578063084024a2146100a1578063499ca2f5146100d457806392f1f73e146100e7575b600080fd5b61009f61009a366004612cc4565b61017b565b005b60008051602061322d833981519152546000600160a01b909104600b0b1360405190151581526020015b60405180910390f35b61009f6100e2366004612cc4565b610868565b6100ef610aa8565b6040516100cb9190815181526020808301516001600160a01b031690820152604080830151600b0b90820152606080830151908201526080808301519082015260a0918201519181019190915260c00190565b61014a610bb2565b6040519081526020016100cb565b61009f610bc1565b61009f610df7565b61009f610176366004612cc4565b611033565b610183611147565b6102045760405162461bcd60e51b815260206004820152604160248201527f4346414261736550434f46616365743a2043616e206f6e6c7920706572666f7260448201527f6d20616374696f6e207768656e207061796572206269642069732061637469766064820152606560f81b608482015260a4015b60405180910390fd5b60006000805160206132cd8339815191529050306001600160a01b031663084024a26040518163ffffffff1660e01b8152600401602060405180830381865afa158015610255573d6000803e3d6000fd5b505050506040513d601f19601f820116820180604052508101906102799190612cf0565b156102dd5760405162461bcd60e51b815260206004820152602e60248201527f43464150656e616c747942696446616365743a2050656e64696e67206269642060448201526d616c72656164792065786973747360901b60648201526084016101fb565b6000805160206132ed833981519152805460408051630b51881360e11b8152905160008051602061328d833981519152926000926001600160a01b03909116916316a31026916004808201926020929091908290030181865afa158015610348573d6000803e3d6000fd5b505050506040513d601f19601f8201168201806040525081019061036c9190612d12565b905060008360000160009054906101000a90046001600160a01b03166001600160a01b031663014df4146040518163ffffffff1660e01b8152600401602060405180830381865afa1580156103c5573d6000803e3d6000fd5b505050506040513d601f19601f820116820180604052508101906103e99190612d12565b90506000805160206132ad8339815191526104068789858561115b565b6104675760405162461bcd60e51b815260206004820152602c60248201527f43464150656e616c747942696446616365743a20496e636f727265637420666f60448201526b722073616c6520707269636560a01b60648201526084016101fb565b6001810154600160a01b9004600b90810b9089900b12156104f05760405162461bcd60e51b815260206004820152603c60248201527f43464150656e616c747942696446616365743a204e657720636f6e747269627560448201527f74696f6e2072617465206973206e6f74206869676820656e6f7567680000000060648201526084016101fb565b600184015485546040805163d41c3a6560e01b8152905160009384936001600160a01b039182169362422bbe93919092169163d41c3a659160048083019260209291908290030181865afa15801561054c573d6000803e3d6000fd5b505050506040513d601f19601f820116820180604052508101906105709190612d40565b33306040518463ffffffff1660e01b815260040161059093929190612d5d565b606060405180830381865afa1580156105ad573d6000803e3d6000fd5b505050506040513d601f19601f820116820180604052508101906105d19190612d80565b92509250506105e1826000611189565b61064c5760405162461bcd60e51b815260206004820152603660248201527f43464150656e616c747942696446616365743a204352454154455f464c4f57206044820152751c195c9b5a5cdcda5bdb881b9bdd0819dc985b9d195960521b60648201526084016101fb565b89600b0b81600b0b12156106da5760405162461bcd60e51b815260206004820152604960248201527f43464150656e616c747942696446616365743a204352454154455f464c4f572060448201527f7065726d697373696f6e20646f6573206e6f74206861766520656e6f75676820606482015268616c6c6f77616e636560b81b608482015260a4016101fb565b42885533600160a01b6001600160601b038c1602811760018a01556002890186905560038901859055600489018a905560408051600b8d900b8152602081018c90527f51dc3f0ae56a56b314941620a5450aa63fb32261ffdd59993bdd4a5645ed6d72910160405180910390a286546040805163d41c3a6560e01b815290516000926001600160a01b03169163d41c3a659160048083019260209291908290030181865afa158015610790573d6000803e3d6000fd5b505050506040513d601f19601f820116820180604052508101906107b49190612d40565b60018801546040516346ccbfb760e11b81526001600160a01b038084166004830152600b8f900b602483015292935060009290911690638d997f6e90604401602060405180830381865afa158015610810573d6000803e3d6000fd5b505050506040513d601f19601f820116820180604052508101906108349190612d12565b905060006108428c83612ddf565b90506108596001600160a01b0384163330846111e8565b50505050505050505050505050565b60008051602061326d833981519152546000805160206132ad833981519152906001600160a01b031633146108af5760405162461bcd60e51b81526004016101fb90612df7565b306001600160a01b031663084024a26040518163ffffffff1660e01b8152600401602060405180830381865afa1580156108ed573d6000803e3d6000fd5b505050506040513d601f19601f820116820180604052508101906109119190612cf0565b61092d5760405162461bcd60e51b81526004016101fb90612e54565b6000805160206132ed83398151915280546040805163400e2d8f60e11b815290516000805160206132cd833981519152936000805160206132ad8339815191529390926000926001600160a01b039092169163801c5b1e916004808201926020929091908290030181865afa1580156109aa573d6000803e3d6000fd5b505050506040513d601f19601f820116820180604052508101906109ce9190612d12565b84549091506000906109e09042612ea2565b9050818110610a015760405162461bcd60e51b81526004016101fb90612eb9565b60008051602061322d8339815191525460008051602061326d8339815191525460008051602061324d8339815191525460408051918252516000805160206132cd833981519152936000805160206132ad833981519152936001600160a01b03918216939116917f70ba5911930f2b49bef0e3806b54c696faa41fcf48becb8291d011ca4c1d8db49181900360200190a3610a9c8a8a611253565b50505050505050505050565b610aed6040518060c001604052806000815260200160006001600160a01b031681526020016000600b0b81526020016000815260200160008152602001600081525090565b506040805160c0810182526000805160206132cd83398151915254815260008051602061322d833981519152546001600160a01b0381166020830152600160a01b9004600b0b918101919091527fab844abc5ac35bdf8e8581a4c7c97fb9e92911442226ad6bdb029a2dbfe670df5460608201527fab844abc5ac35bdf8e8581a4c7c97fb9e92911442226ad6bdb029a2dbfe670e05460808201527fab844abc5ac35bdf8e8581a4c7c97fb9e92911442226ad6bdb029a2dbfe670e15460a082015290565b6000610bbc6116b8565b905090565b306001600160a01b031663084024a26040518163ffffffff1660e01b8152600401602060405180830381865afa158015610bff573d6000803e3d6000fd5b505050506040513d601f19601f82011682018060405250810190610c239190612cf0565b610c3f5760405162461bcd60e51b81526004016101fb90612e54565b6000805160206132cd8339815191526000805160206132ed833981519152610c65611147565b15610d555780546040805163400e2d8f60e11b815290516000926001600160a01b03169163801c5b1e9160048083019260209291908290030181865afa158015610cb3573d6000803e3d6000fd5b505050506040513d601f19601f82011682018060405250810190610cd79190612d12565b8354909150600090610ce99042612ea2565b905081811015610d525760405162461bcd60e51b815260206004820152602e60248201527f43464150656e616c747942696446616365743a2042696420706572696f64206860448201526d185cc81b9bdd08195b185c1cd95960921b60648201526084016101fb565b50505b60008051602061322d8339815191525460008051602061326d8339815191525460008051602061324d8339815191525460408051918252516000805160206132cd833981519152936000805160206132ad833981519152936001600160a01b039182169391169133917f5057e7232685b7cad2bf4919b2c3e735cf044c7b689b15fd24035359a9581458919081900360200190a4610df16117f0565b50505050565b60008051602061326d833981519152546000805160206132ad833981519152906001600160a01b03163314610e3e5760405162461bcd60e51b81526004016101fb90612df7565b306001600160a01b031663084024a26040518163ffffffff1660e01b8152600401602060405180830381865afa158015610e7c573d6000803e3d6000fd5b505050506040513d601f19601f82011682018060405250810190610ea09190612cf0565b610ebc5760405162461bcd60e51b81526004016101fb90612e54565b6000805160206132ed83398151915280546040805163400e2d8f60e11b815290516000805160206132cd833981519152936000805160206132ad8339815191529390926000926001600160a01b039092169163801c5b1e916004808201926020929091908290030181865afa158015610f39573d6000803e3d6000fd5b505050506040513d601f19601f82011682018060405250810190610f5d9190612d12565b8454909150600090610f6f9042612ea2565b9050818110610f905760405162461bcd60e51b81526004016101fb90612eb9565b60008051602061322d8339815191525460008051602061326d8339815191525460008051602061324d8339815191525460408051918252516000805160206132cd833981519152936000805160206132ad833981519152936001600160a01b03918216939116917fcea76e88a336bcad5acb8cf244393e65f4bbe4b4bcaa2e989f754f5f2bd29eaf9181900360200190a36110296117f0565b5050505050505050565b60008051602061326d833981519152546000805160206132ad833981519152906001600160a01b0316331461107a5760405162461bcd60e51b81526004016101fb90612df7565b306001600160a01b031663084024a26040518163ffffffff1660e01b8152600401602060405180830381865afa1580156110b8573d6000803e3d6000fd5b505050506040513d601f19601f820116820180604052508101906110dc9190612cf0565b156111385760405162461bcd60e51b815260206004820152602660248201527f43464150656e616c747942696446616365743a2050656e64696e67206269642060448201526565786973747360d01b60648201526084016101fb565b6111428383611f4a565b505050565b60008061115261255e565b600b0b13905090565b600080826111698588612f03565b6111739190612f22565b6001600160601b03861614915050949350505050565b60008082600281111561119e5761119e612f44565b036111af57506001828116146111e2565b60018260028111156111c3576111c3612f44565b036111d65750600182811c8116146111e2565b506001600283901c8116145b92915050565b6040516001600160a01b0380851660248301528316604482015260648101829052610df19085906323b872dd60e01b906084015b60408051601f198184030181529190526020810180516001600160e01b03166001600160e01b0319909316929092179091526126f2565b6040805160c0810182526000805160206132cd83398151915254815260008051602061322d833981519152546001600160a01b03808216602080850191909152600160a01b909204600b0b838501527fab844abc5ac35bdf8e8581a4c7c97fb9e92911442226ad6bdb029a2dbfe670df5460608401527fab844abc5ac35bdf8e8581a4c7c97fb9e92911442226ad6bdb029a2dbfe670e05460808401527fab844abc5ac35bdf8e8581a4c7c97fb9e92911442226ad6bdb029a2dbfe670e15460a08401526000805160206132ed8339815191528054855163d41c3a6560e01b81529551919560008051602061328d833981519152956000805160206132ad83398151915295909460009493169263d41c3a659260048181019392918290030181865afa158015611387573d6000803e3d6000fd5b505050506040513d601f19601f820116820180604052508101906113ab9190612d40565b905060008560000160009054906101000a90046001600160a01b03166001600160a01b031663565a2e2c6040518163ffffffff1660e01b8152600401602060405180830381865afa158015611404573d6000803e3d6000fd5b505050506040513d601f19601f820116820180604052508101906114289190612d40565b905060006114346116b8565b90508360400151600b0b89600b0b12156114b65760405162461bcd60e51b815260206004820152603e60248201527f4c696243464150656e616c74794269643a204e657720636f6e7472696275746960448201527f6f6e2072617465206d757374206265203e3d2070656e64696e6720626964000060648201526084016101fb565b6114d760008051602061322d83398151915280546001600160a01b03169055565b6114e18989611f4a565b604051632ec8eec760e01b815230600482015260009081906001600160a01b03861690632ec8eec790602401608060405180830381865afa15801561152a573d6000803e3d6000fd5b505050506040513d601f19601f8201168201806040525081019061154e9190612f5a565b50509150915060008082846115639190612f90565b12611575576115728284612f90565b90505b600189015460408089015190516346ccbfb760e11b81526000926001600160a01b031691638d997f6e916115c4918b916004016001600160a01b03929092168252600b0b602082015260400190565b602060405180830381865afa1580156115e1573d6000803e3d6000fd5b505050506040513d601f19601f820116820180604052508101906116059190612d12565b90508282111561169b576116198383612ea2565b91506000818960a0015161162d9190612ddf565b90508083111561167f576020890151611651906001600160a01b038a1690836127c4565b61165b8184612ea2565b60018b015490935061167a906001600160a01b038a81169116856127c4565b611699565b6020890151611699906001600160a01b038a1690856127c4565b505b6001890154610859906001600160a01b03898116911688886111e8565b6000805160206132ed83398151915280546040805163304fb4bb60e21b81529051600093926000805160206132cd8339815191529285926001600160a01b039092169163c13ed2ec916004808201926020929091908290030181865afa158015611726573d6000803e3d6000fd5b505050506040513d601f19601f8201168201806040525081019061174a9190612d12565b905060008360000160009054906101000a90046001600160a01b03166001600160a01b0316637d51ce906040518163ffffffff1660e01b8152600401602060405180830381865afa1580156117a3573d6000803e3d6000fd5b505050506040513d601f19601f820116820180604052508101906117c79190612d12565b90506000818385600401546117dc9190612f03565b6117e69190612f22565b9695505050505050565b6040805160c080820183526000805160206132ad8339815191528054835260008051602061326d833981519152546001600160a01b03808216602080870191909152600160a01b92839004600b90810b878901527f3c72d60a0f1018560e1ecd381dcc70c04920ba28255c0b6f8b496f8f6f727f43546060808901919091527f3c72d60a0f1018560e1ecd381dcc70c04920ba28255c0b6f8b496f8f6f727f44546080808a019190915260008051602061324d8339815191525460a0808b01919091528a519889018b526000805160206132cd83398151915254895260008051602061322d833981519152548087168a8701529690960490920b878a01527fab844abc5ac35bdf8e8581a4c7c97fb9e92911442226ad6bdb029a2dbfe670df54908701527fab844abc5ac35bdf8e8581a4c7c97fb9e92911442226ad6bdb029a2dbfe670e054908601527fab844abc5ac35bdf8e8581a4c7c97fb9e92911442226ad6bdb029a2dbfe670e154928501929092526000805160206132ed8339815191528054875163d41c3a6560e01b81529751919760008051602061328d83398151915297959694600094929092169263d41c3a65926004838101939192918290030181865afa1580156119c7573d6000803e3d6000fd5b505050506040513d601f19601f820116820180604052508101906119eb9190612d40565b82518555602083015160408401516001600160601b0316600160a01b026001600160a01b03909116176001860155606083015160028601556080830151600386015560a083015160048601559050611a5a60008051602061322d83398151915280546001600160a01b03169055565b60018501546020840151604051631cd43d1160e31b81526000926001600160a01b03169163e6a1e88891611a949186913090600401612d5d565b608060405180830381865afa158015611ab1573d6000803e3d6000fd5b505050506040513d601f19601f82011682018060405250810190611ad59190612fd1565b5050915050600081600b0b1315611af8576020840151611af890879030856127f4565b855460018701546020858101516040808801518151600081529384019091526001600160a01b03948516946339255d5b94169283926394229ecb92611b45928a929130916044810161307d565b60408051601f19818403018152918152602080830180516001600160e01b031660e095861b179052815160008152908101918290529286901b6001600160e01b0319169052611b9a93925090602481016130bb565b6000604051808303816000875af1925050508015611bda57506040513d6000823e601f3d908101601f19168201604052611bd791908101906130f1565b60015b15611be157505b8654604080516315968b8b60e21b815290516000926001600160a01b03169163565a2e2c9160048083019260209291908290030181865afa158015611c2a573d6000803e3d6000fd5b505050506040513d601f19601f82011682018060405250810190611c4e9190612d40565b6001880154604051631cd43d1160e31b81529192506001600160a01b03169063e6a1e88890611c8590869030908690600401612d5d565b608060405180830381865afa158015611ca2573d6000803e3d6000fd5b505050506040513d601f19601f82011682018060405250810190611cc69190612fd1565b5090935050506000600b83900b1315611cf2576040840151611ced90889083908690612814565b611d06565b6040840151611d0690889083908690612834565b60018801546020868101519086015160028b0154604051632142170760e11b81526001600160a01b039384166004820152918316602483015260448201529116906342842e0e90606401600060405180830381600087803b158015611d6a57600080fd5b505af1158015611d7e573d6000803e3d6000fd5b5050604051632ec8eec760e01b8152306004820152600092508291506001600160a01b03861690632ec8eec790602401608060405180830381865afa158015611dcb573d6000803e3d6000fd5b505050506040513d601f19601f82011682018060405250810190611def9190612f5a565b5050915091506000808284611e049190612f90565b12611e1657611e138284612f90565b90505b60018a015460408089015190516346ccbfb760e11b81526000926001600160a01b031691638d997f6e91611e65918b916004016001600160a01b03929092168252600b0b602082015260400190565b602060405180830381865afa158015611e82573d6000803e3d6000fd5b505050506040513d601f19601f82011682018060405250810190611ea69190612d12565b905080821115611f3c57611eba8183612ea2565b915060008960a001518960a00151611ed29190612ea2565b905080831115611f22576020890151611ef6906001600160a01b038a1690836127c4565b611f008184612ea2565b60208b0151909350611f1d906001600160a01b038a1690856127c4565b610859565b6020890151610859906001600160a01b038a1690856127c4565b505050505050505050505050565b6000805160206132ed833981519152805460408051630b51881360e11b8152905160008051602061328d833981519152926000805160206132ad833981519152926000926001600160a01b03909216916316a31026916004808201926020929091908290030181865afa158015611fc5573d6000803e3d6000fd5b505050506040513d601f19601f82011682018060405250810190611fe99190612d12565b905060008460000160009054906101000a90046001600160a01b03166001600160a01b031663014df4146040518163ffffffff1660e01b8152600401602060405180830381865afa158015612042573d6000803e3d6000fd5b505050506040513d601f19601f820116820180604052508101906120669190612d12565b90506120748688848461115b565b6120d05760405162461bcd60e51b815260206004820152602760248201527f4c69624346414261736550434f3a20496e636f727265637420666f722073616c6044820152666520707269636560c81b60648201526084016101fb565b84546040805163d41c3a6560e01b815290516000926001600160a01b03169163d41c3a659160048083019260209291908290030181865afa158015612119573d6000803e3d6000fd5b505050506040513d601f19601f8201168201806040525081019061213d9190612d40565b905060008660000160009054906101000a90046001600160a01b03166001600160a01b031663565a2e2c6040518163ffffffff1660e01b8152600401602060405180830381865afa158015612196573d6000803e3d6000fd5b505050506040513d601f19601f820116820180604052508101906121ba9190612d40565b4286556001860180546001600160601b038c16600160a01b026001600160a01b039182168181179093556002890188905560038901879055600489018c90556040518c81529394501617907fae3c4f18410e9cfcd20fc8664a5a0082a92f07a0a5febdc22bec0c53939373369060200160405180910390a26001850154604051600b8b900b81526001600160a01b03909116907f6602f4d39e226f3807ddac3e7aab03883832e2ea2d07ccdeaf513c16679fdcd09060200160405180910390a2604051632ec8eec760e01b81523060048201526000906001600160a01b03841690632ec8eec790602401608060405180830381865afa1580156122c1573d6000803e3d6000fd5b505050506040513d601f19601f820116820180604052508101906122e59190612f5a565b505060018901546040516346ccbfb760e11b81526001600160a01b038781166004830152600b8f900b602483015292945060009350911690638d997f6e90604401602060405180830381865afa158015612343573d6000803e3d6000fd5b505050506040513d601f19601f820116820180604052508101906123679190612d12565b9050818111156123925761239233306123808585612ea2565b6001600160a01b0388169291906111e8565b60018089015490880154604051631cd43d1160e31b81526000926001600160a01b039081169263e6a1e888926123d0928a9216903090600401612d5d565b608060405180830381865afa1580156123ed573d6000803e3d6000fd5b505050506040513d601f19601f820116820180604052508101906124119190612fd1565b5050915050600081600b0b131561245b576124558860010160009054906101000a90046001600160a01b031630878f8d60000161285490949392919063ffffffff16565b50612490565b61248e8860010160009054906101000a90046001600160a01b031630878f8d60000161287990949392919063ffffffff16565b505b6001890154604051631cd43d1160e31b81526001600160a01b039091169063e6a1e888906124c690889030908990600401612d5d565b608060405180830381865afa1580156124e3573d6000803e3d6000fd5b505050506040513d601f19601f820116820180604052508101906125079190612fd1565b5090925050506000600b82900b131561252b576125268985878f612814565b612537565b6125378985878f612834565b81831115611f3c57611f3c3361254d8486612ea2565b6001600160a01b03881691906127c4565b7feaf1cf088be31249661a61fc7743edf628a39210375613d4be0a9cda3ec06da7546000805160206132ed83398151915280546040805163d41c3a6560e01b8152905160009460008051602061328d8339815191529386936001600160a01b039283169363e6a1e888939092169163d41c3a65916004808201926020929091908290030181865afa1580156125f7573d6000803e3d6000fd5b505050506040513d601f19601f8201168201806040525081019061261b9190612d40565b8554604080516315968b8b60e21b8152905130926001600160a01b03169163565a2e2c9160048083019260209291908290030181865afa158015612663573d6000803e3d6000fd5b505050506040513d601f19601f820116820180604052508101906126879190612d40565b6040518463ffffffff1660e01b81526004016126a593929190612d5d565b608060405180830381865afa1580156126c2573d6000803e3d6000fd5b505050506040513d601f19601f820116820180604052508101906126e69190612fd1565b50909695505050505050565b6000612747826040518060400160405280602081526020017f5361666545524332303a206c6f772d6c6576656c2063616c6c206661696c6564815250856001600160a01b031661289e9092919063ffffffff16565b80519091501561114257808060200190518101906127659190612cf0565b6111425760405162461bcd60e51b815260206004820152602a60248201527f5361666545524332303a204552433230206f7065726174696f6e20646964206e6044820152691bdd081cdd58d8d9595960b21b60648201526084016101fb565b6040516001600160a01b03831660248201526044810182905261114290849063a9059cbb60e01b9060640161121c565b604080516000815260208101909152610df19085908590859085906128b7565b604080516000815260208101909152610df1908590859085908590612996565b604080516000815260208101909152610df19085908590859085906129fa565b6040805160008152602081019091526060906117e69087908790879087908790612a24565b6040805160008152602081019091526060906117e69087908790879087908790612b2a565b60606128ad8484600085612b58565b90505b9392505050565b845460018601546040805160008152602081019091526001600160a01b03928316926339255d5b921690819063b4b333c6906128fc9088908b908b9060448101613193565b60408051808303601f1901815291815260208201805160e094851b6001600160e01b03909116179052519185901b6001600160e01b03191682526129479392509086906004016130bb565b6000604051808303816000875af1158015612966573d6000803e3d6000fd5b505050506040513d6000823e601f3d908101601f1916820160405261298e91908101906130f1565b505050505050565b845460018601546001600160a01b03918216916339255d5b9116806350209a6287898860005b6040519080825280601f01601f1916602001820160405280156129e6576020820181803683370190505b506040516024016128fc94939291906131c7565b845460018601546001600160a01b03918216916339255d5b9116806362fc305e87898860006129bc565b855460018701546060916001600160a01b03908116916339255d5b91168063354b9590888b8b8a60005b6040519080825280601f01601f191660200182016040528015612a78576020820181803683370190505b50604051602401612a8d95949392919061307d565b60408051808303601f1901815291815260208201805160e094851b6001600160e01b03909116179052519185901b6001600160e01b0319168252612ad89392509087906004016130bb565b6000604051808303816000875af1158015612af7573d6000803e3d6000fd5b505050506040513d6000823e601f3d908101601f19168201604052612b1f91908101906130f1565b979650505050505050565b855460018701546060916001600160a01b03908116916339255d5b9116806394229ecb888b8b8a6000612a4e565b606082471015612bb95760405162461bcd60e51b815260206004820152602660248201527f416464726573733a20696e73756666696369656e742062616c616e636520666f6044820152651c8818d85b1b60d21b60648201526084016101fb565b6001600160a01b0385163b612c105760405162461bcd60e51b815260206004820152601d60248201527f416464726573733a2063616c6c20746f206e6f6e2d636f6e747261637400000060448201526064016101fb565b600080866001600160a01b03168587604051612c2c91906131fd565b60006040518083038185875af1925050503d8060008114612c69576040519150601f19603f3d011682016040523d82523d6000602084013e612c6e565b606091505b5091509150612b1f82828660608315612c885750816128b0565b825115612c985782518084602001fd5b8160405162461bcd60e51b81526004016101fb9190613219565b80600b0b8114612cc157600080fd5b50565b60008060408385031215612cd757600080fd5b8235612ce281612cb2565b946020939093013593505050565b600060208284031215612d0257600080fd5b815180151581146128b057600080fd5b600060208284031215612d2457600080fd5b5051919050565b6001600160a01b0381168114612cc157600080fd5b600060208284031215612d5257600080fd5b81516128b081612d2b565b6001600160a01b0393841681529183166020830152909116604082015260600190565b600080600060608486031215612d9557600080fd5b83519250602084015160ff81168114612dad57600080fd5b6040850151909250612dbe81612cb2565b809150509250925092565b634e487b7160e01b600052601160045260246000fd5b60008219821115612df257612df2612dc9565b500190565b6020808252603d908201527f4346414261736550434f46616365743a204f6e6c79207061796572206973206160408201527f6c6c6f77656420746f20706572666f726d207468697320616374696f6e000000606082015260800190565b6020808252602e908201527f43464150656e616c747942696446616365743a2050656e64696e67206269642060408201526d191bd95cc81b9bdd08195e1a5cdd60921b606082015260800190565b600082821015612eb457612eb4612dc9565b500390565b6020808252602a908201527f43464150656e616c747942696446616365743a2042696420706572696f642068604082015269185cc8195b185c1cd95960b21b606082015260800190565b6000816000190483118215151615612f1d57612f1d612dc9565b500290565b600082612f3f57634e487b7160e01b600052601260045260246000fd5b500490565b634e487b7160e01b600052602160045260246000fd5b60008060008060808587031215612f7057600080fd5b505082516020840151604085015160609095015191969095509092509050565b600080821280156001600160ff1b0384900385131615612fb257612fb2612dc9565b600160ff1b8390038412811615612fcb57612fcb612dc9565b50500190565b60008060008060808587031215612fe757600080fd5b845193506020850151612ff981612cb2565b6040860151606090960151949790965092505050565b634e487b7160e01b600052604160045260246000fd5b60005b83811015613040578181015183820152602001613028565b83811115610df15750506000910152565b60008151808452613069816020860160208601613025565b601f01601f19169290920160200192915050565b6001600160a01b038681168252858116602083015284166040820152600b83900b606082015260a060808201819052600090612b1f90830184613051565b6001600160a01b03841681526060602082018190526000906130df90830185613051565b82810360408401526117e68185613051565b60006020828403121561310357600080fd5b815167ffffffffffffffff8082111561311b57600080fd5b818401915084601f83011261312f57600080fd5b8151818111156131415761314161300f565b604051601f8201601f19908116603f011681019083821181831017156131695761316961300f565b8160405282815287602084870101111561318257600080fd5b612b1f836020830160208801613025565b6001600160a01b0385811682528481166020830152831660408201526080606082018190526000906117e690830184613051565b6001600160a01b03858116825284166020820152600b83900b60408201526080606082018190526000906117e690830184613051565b6000825161320f818460208701613025565b9190910192915050565b6020815260006128b0602083018461305156feab844abc5ac35bdf8e8581a4c7c97fb9e92911442226ad6bdb029a2dbfe670de3c72d60a0f1018560e1ecd381dcc70c04920ba28255c0b6f8b496f8f6f727f453c72d60a0f1018560e1ecd381dcc70c04920ba28255c0b6f8b496f8f6f727f42eaf1cf088be31249661a61fc7743edf628a39210375613d4be0a9cda3ec06da63c72d60a0f1018560e1ecd381dcc70c04920ba28255c0b6f8b496f8f6f727f41ab844abc5ac35bdf8e8581a4c7c97fb9e92911442226ad6bdb029a2dbfe670dd7afbdc140ed2feae39152d66ce3c9b7394a1bbd963c668f15d7196d48d2532c9a2646970667358221220e359cf307ade6e8961a3b3ef00c9e23ee192e1c83b09c7971f6b95f57f216cf864736f6c634300080e0033",
  "devdoc": {
    "kind": "dev",
    "methods": {
      "editBid(int96,uint256)": {
        "params": {
          "newContributionRate": "New contribution rate for bid",
          "newForSalePrice": "Intented new for sale price. Must be within rounding bounds of newContributionRate"
        }
      },
      "placeBid(int96,uint256)": {
        "params": {
          "newContributionRate": "New contribution rate for bid",
          "newForSalePrice": "Intented new for sale price. Must be within rounding bounds of newContributionRate"
        }
      },
      "rejectBid(int96,uint256)": {
        "params": {
          "newContributionRate": "New contribution rate for bid",
          "newForSalePrice": "Intented new for sale price. Must be within rounding bounds of newContributionRate"
        }
      }
    },
    "version": 1
  },
  "userdoc": {
    "events": {
      "BidAccepted(address,address,uint256)": {
        "notice": "Emitted when a bid is accepted"
      },
      "BidPlaced(address,int96,uint256)": {
        "notice": "Emitted when for sale price is updated"
      },
      "BidRejected(address,address,uint256)": {
        "notice": "Emitted when a bid is rejected"
      },
      "TransferTriggered(address,address,address,uint256)": {
        "notice": "Emitted when a transfer is triggered"
      }
    },
    "kind": "user",
    "methods": {
      "acceptBid()": {
        "notice": "Accept a pending bid as the current payer      - Must be payer      - Pending bid must exist      - Must be within bidding period"
      },
      "calculatePenalty()": {
        "notice": "Get penalty payment"
      },
      "editBid(int96,uint256)": {
        "notice": "Edit bid      - Must be the current payer      - Must have permissions to update flow for payer"
      },
      "hasPendingBid()": {
        "notice": "Checks if there is a pending bid"
      },
      "pendingBid()": {
        "notice": "Get pending bid"
      },
      "placeBid(int96,uint256)": {
        "notice": "Place a bid to purchase license as msg.sender      - Pending bid must not exist      - Must have permissions to create flow for bidder      - Must have ERC-20 approval of payment token"
      },
      "rejectBid(int96,uint256)": {
        "notice": "Reject a pending bid as the current payer      - Must be payer      - Pending bid must exist      - Must be within bidding period      - Must approve penalty amount"
      },
      "triggerTransfer()": {
        "notice": "Trigger a transfer after bidding period has elapsed      - Pending bid must exist      - Must be after bidding period"
      }
    },
    "notice": "Handles bidding using CFAs and penalities",
    "version": 1
  },
  "storageLayout": {
    "storage": [],
    "types": null
  }
}