{
  "address": "0x7aa662C94073B5C98a0f95eD0FC053682ae2499f",
  "abi": [
    {
      "anonymous": false,
      "inputs": [
        {
          "indexed": true,
          "internalType": "address",
          "name": "_payer",
          "type": "address"
        },
        {
          "indexed": true,
          "internalType": "address",
          "name": "_bidder",
          "type": "address"
        },
        {
          "indexed": false,
          "internalType": "uint256",
          "name": "forSalePrice",
          "type": "uint256"
        }
      ],
      "name": "BidAccepted",
      "type": "event"
    },
    {
      "anonymous": false,
      "inputs": [
        {
          "indexed": true,
          "internalType": "address",
          "name": "_bidder",
          "type": "address"
        },
        {
          "indexed": false,
          "internalType": "int96",
          "name": "contributionRate",
          "type": "int96"
        },
        {
          "indexed": false,
          "internalType": "uint256",
          "name": "forSalePrice",
          "type": "uint256"
        }
      ],
      "name": "BidPlaced",
      "type": "event"
    },
    {
      "anonymous": false,
      "inputs": [
        {
          "indexed": true,
          "internalType": "address",
          "name": "_payer",
          "type": "address"
        },
        {
          "indexed": true,
          "internalType": "address",
          "name": "_bidder",
          "type": "address"
        },
        {
          "indexed": false,
          "internalType": "uint256",
          "name": "forSalePrice",
          "type": "uint256"
        }
      ],
      "name": "BidRejected",
      "type": "event"
    },
    {
      "anonymous": false,
      "inputs": [
        {
          "indexed": true,
          "internalType": "address",
          "name": "_sender",
          "type": "address"
        },
        {
          "indexed": true,
          "internalType": "address",
          "name": "_payer",
          "type": "address"
        },
        {
          "indexed": true,
          "internalType": "address",
          "name": "_bidder",
          "type": "address"
        },
        {
          "indexed": false,
          "internalType": "uint256",
          "name": "forSalePrice",
          "type": "uint256"
        }
      ],
      "name": "TransferTriggered",
      "type": "event"
    },
    {
      "inputs": [],
      "name": "acceptBid",
      "outputs": [],
      "stateMutability": "nonpayable",
      "type": "function"
    },
    {
      "inputs": [],
      "name": "calculatePenalty",
      "outputs": [
        {
          "internalType": "uint256",
          "name": "",
          "type": "uint256"
        }
      ],
      "stateMutability": "view",
      "type": "function"
    },
    {
      "inputs": [
        {
          "internalType": "int96",
          "name": "newContributionRate",
          "type": "int96"
        },
        {
          "internalType": "uint256",
          "name": "newForSalePrice",
          "type": "uint256"
        }
      ],
      "name": "editBid",
      "outputs": [],
      "stateMutability": "nonpayable",
      "type": "function"
    },
    {
      "inputs": [],
      "name": "hasPendingBid",
      "outputs": [
        {
          "internalType": "bool",
          "name": "",
          "type": "bool"
        }
      ],
      "stateMutability": "view",
      "type": "function"
    },
    {
      "inputs": [],
      "name": "pendingBid",
      "outputs": [
        {
          "components": [
            {
              "internalType": "uint256",
              "name": "timestamp",
              "type": "uint256"
            },
            {
              "internalType": "address",
              "name": "bidder",
              "type": "address"
            },
            {
              "internalType": "int96",
              "name": "contributionRate",
              "type": "int96"
            },
            {
              "internalType": "uint256",
              "name": "perSecondFeeNumerator",
              "type": "uint256"
            },
            {
              "internalType": "uint256",
              "name": "perSecondFeeDenominator",
              "type": "uint256"
            },
            {
              "internalType": "uint256",
              "name": "forSalePrice",
              "type": "uint256"
            }
          ],
          "internalType": "struct LibCFAPenaltyBid.Bid",
          "name": "",
          "type": "tuple"
        }
      ],
      "stateMutability": "pure",
      "type": "function"
    },
    {
      "inputs": [
        {
          "internalType": "int96",
          "name": "newContributionRate",
          "type": "int96"
        },
        {
          "internalType": "uint256",
          "name": "newForSalePrice",
          "type": "uint256"
        }
      ],
      "name": "placeBid",
      "outputs": [],
      "stateMutability": "nonpayable",
      "type": "function"
    },
    {
      "inputs": [],
      "name": "rejectBid",
      "outputs": [],
      "stateMutability": "nonpayable",
      "type": "function"
    },
    {
      "inputs": [],
      "name": "triggerTransfer",
      "outputs": [],
      "stateMutability": "nonpayable",
      "type": "function"
    }
  ],
  "transactionHash": "0x662fa314d2c5ca245eb8f29482c79d6d9218cbdb0c9b47b29d1287b5ab25ad55",
  "args": [],
  "numDeployments": 3,
  "solcInputHash": "32de39dbfb0007aa9b3dc30f9a835914",
  "bytecode": "0x608060405234801561001057600080fd5b506132e0806100206000396000f3fe608060405234801561001057600080fd5b50600436106100875760003560e01c80639e41ec671161005b5780639e41ec6714610137578063ce2ccb151461014d578063e52a787414610155578063f11663e81461015d57600080fd5b8062fa68021461008c578063084024a2146100a15780633e3581a7146100d457806392f1f73e146100dc575b600080fd5b61009f61009a366004612c86565b610170565b005b6000805160206131eb833981519152546000600160a01b909104600b0b1360405190151581526020015b60405180910390f35b61009f610979565b6100e4610bcc565b6040516100cb9190815181526020808301516001600160a01b031690820152604080830151600b0b90820152606080830151908201526080808301519082015260a0918201519181019190915260c00190565b61013f610cd6565b6040519081526020016100cb565b61009f610ce5565b61009f610f36565b61009f61016b366004612c86565b61117f565b610178611293565b6101f95760405162461bcd60e51b815260206004820152604160248201527f4346414261736550434f46616365743a2043616e206f6e6c7920706572666f7260448201527f6d20616374696f6e207768656e207061796572206269642069732061637469766064820152606560f81b608482015260a4015b60405180910390fd5b600060008051602061326b8339815191529050306001600160a01b031663084024a26040518163ffffffff1660e01b8152600401602060405180830381865afa15801561024a573d6000803e3d6000fd5b505050506040513d601f19601f8201168201806040525081019061026e9190612cb2565b156102d25760405162461bcd60e51b815260206004820152602e60248201527f43464150656e616c747942696446616365743a2050656e64696e67206269642060448201526d616c72656164792065786973747360901b60648201526084016101f0565b60008051602061328b833981519152805460408051630b51881360e11b8152905160008051602061322b833981519152926000926001600160a01b03909116916316a31026916004808201926020929091908290030181865afa15801561033d573d6000803e3d6000fd5b505050506040513d601f19601f820116820180604052508101906103619190612cdb565b905060008360000160009054906101000a90046001600160a01b03166001600160a01b031663014df4146040518163ffffffff1660e01b8152600401602060405180830381865afa1580156103ba573d6000803e3d6000fd5b505050506040513d601f19601f820116820180604052508101906103de9190612cdb565b905060008051602061324b8339815191526103fb878985856112a7565b61045c5760405162461bcd60e51b815260206004820152602c60248201527f43464150656e616c747942696446616365743a20496e636f727265637420666f60448201526b722073616c6520707269636560a01b60648201526084016101f0565b6001810154600160a01b9004600b90810b9089900b12156104e55760405162461bcd60e51b815260206004820152603c60248201527f43464150656e616c747942696446616365743a204e657720636f6e747269627560448201527f74696f6e2072617465206973206e6f74206869676820656e6f7567680000000060648201526084016101f0565b600184015485546040805163d41c3a6560e01b8152905160009384936001600160a01b039182169362422bbe93919092169163d41c3a659160048083019260209291908290030181865afa158015610541573d6000803e3d6000fd5b505050506040513d601f19601f820116820180604052508101906105659190612d09565b33306040518463ffffffff1660e01b815260040161058593929190612d26565b606060405180830381865afa1580156105a2573d6000803e3d6000fd5b505050506040513d601f19601f820116820180604052508101906105c69190612d49565b92509250506105d68260006112d5565b6106415760405162461bcd60e51b815260206004820152603660248201527f43464150656e616c747942696446616365743a204352454154455f464c4f57206044820152751c195c9b5a5cdcda5bdb881b9bdd0819dc985b9d195960521b60648201526084016101f0565b89600b0b81600b0b12156106cf5760405162461bcd60e51b815260206004820152604960248201527f43464150656e616c747942696446616365743a204352454154455f464c4f572060448201527f7065726d697373696f6e20646f6573206e6f74206861766520656e6f75676820606482015268616c6c6f77616e636560b81b608482015260a4016101f0565b86546040805163d41c3a6560e01b815290516000926001600160a01b03169163d41c3a659160048083019260209291908290030181865afa158015610718573d6000803e3d6000fd5b505050506040513d601f19601f8201168201806040525081019061073c9190612d09565b60018801546040516346ccbfb760e11b81526001600160a01b038084166004830152600b8f900b602483015292935060009290911690638d997f6e90604401602060405180830381865afa158015610798573d6000803e3d6000fd5b505050506040513d601f19601f820116820180604052508101906107bc9190612cdb565b905060006107ca8c83612da8565b90506000836001600160a01b03166323b872dd3330856040518463ffffffff1660e01b81526004016107fe93929190612dc0565b6020604051808303816000875af115801561081d573d6000803e3d6000fd5b505050506040513d601f19601f820116820180604052508101906108419190612cb2565b90508061089f5760405162461bcd60e51b815260206004820152602660248201527f43464150656e616c747942696446616365743a20426964206465706f7369742060448201526519985a5b195960d21b60648201526084016101f0565b428c60000181905550338c60010160006101000a8154816001600160a01b0302191690836001600160a01b031602179055508d8c60010160146101000a8154816001600160601b030219169083600b0b6001600160601b03160217905550888c60020181905550878c600301819055508c8c60040181905550336001600160a01b03167f51dc3f0ae56a56b314941620a5450aa63fb32261ffdd59993bdd4a5645ed6d728f8f604051610961929190600b9290920b8252602082015260400190565b60405180910390a25050505050505050505050505050565b60008051602061320b8339815191525460008051602061324b833981519152906001600160a01b031633146109c05760405162461bcd60e51b81526004016101f090612de4565b306001600160a01b031663084024a26040518163ffffffff1660e01b8152600401602060405180830381865afa1580156109fe573d6000803e3d6000fd5b505050506040513d601f19601f82011682018060405250810190610a229190612cb2565b1515600114610a435760405162461bcd60e51b81526004016101f090612e41565b60008051602061328b83398151915280546040805163400e2d8f60e11b8152905160008051602061326b8339815191529360008051602061324b8339815191529390926000926001600160a01b039092169163801c5b1e916004808201926020929091908290030181865afa158015610ac0573d6000803e3d6000fd5b505050506040513d601f19601f82011682018060405250810190610ae49190612cdb565b8454909150600090610af69042612e8f565b9050818110610b175760405162461bcd60e51b81526004016101f090612ea6565b6000805160206131eb8339815191525460008051602061320b833981519152547f3c72d60a0f1018560e1ecd381dcc70c04920ba28255c0b6f8b496f8f6f727f4554604080519182525160008051602061326b8339815191529360008051602061324b833981519152936001600160a01b03918216939116917f70ba5911930f2b49bef0e3806b54c696faa41fcf48becb8291d011ca4c1d8db49181900360200190a3610bc2611334565b5050505050505050565b610c116040518060c001604052806000815260200160006001600160a01b031681526020016000600b0b81526020016000815260200160008152602001600081525090565b506040805160c08101825260008051602061326b8339815191525481526000805160206131eb833981519152546001600160a01b0381166020830152600160a01b9004600b0b918101919091527fab844abc5ac35bdf8e8581a4c7c97fb9e92911442226ad6bdb029a2dbfe670df5460608201527fab844abc5ac35bdf8e8581a4c7c97fb9e92911442226ad6bdb029a2dbfe670e05460808201527fab844abc5ac35bdf8e8581a4c7c97fb9e92911442226ad6bdb029a2dbfe670e15460a082015290565b6000610ce0611866565b905090565b306001600160a01b031663084024a26040518163ffffffff1660e01b8152600401602060405180830381865afa158015610d23573d6000803e3d6000fd5b505050506040513d601f19601f82011682018060405250810190610d479190612cb2565b1515600114610d685760405162461bcd60e51b81526004016101f090612e41565b60008051602061326b83398151915260008051602061328b833981519152610d8e611293565b1515600103610e825780546040805163400e2d8f60e11b815290516000926001600160a01b03169163801c5b1e9160048083019260209291908290030181865afa158015610de0573d6000803e3d6000fd5b505050506040513d601f19601f82011682018060405250810190610e049190612cdb565b8354909150600090610e169042612e8f565b905081811015610e7f5760405162461bcd60e51b815260206004820152602e60248201527f43464150656e616c747942696446616365743a2042696420706572696f64206860448201526d185cc81b9bdd08195b185c1cd95960921b60648201526084016101f0565b50505b6000805160206131eb8339815191525460008051602061320b833981519152547f3c72d60a0f1018560e1ecd381dcc70c04920ba28255c0b6f8b496f8f6f727f4554604080519182525160008051602061326b8339815191529360008051602061324b833981519152936001600160a01b039182169391169133917f5057e7232685b7cad2bf4919b2c3e735cf044c7b689b15fd24035359a9581458919081900360200190a4610f3061199e565b50505050565b60008051602061320b8339815191525460008051602061324b833981519152906001600160a01b03163314610f7d5760405162461bcd60e51b81526004016101f090612de4565b306001600160a01b031663084024a26040518163ffffffff1660e01b8152600401602060405180830381865afa158015610fbb573d6000803e3d6000fd5b505050506040513d601f19601f82011682018060405250810190610fdf9190612cb2565b15156001146110005760405162461bcd60e51b81526004016101f090612e41565b60008051602061328b83398151915280546040805163400e2d8f60e11b8152905160008051602061326b8339815191529360008051602061324b8339815191529390926000926001600160a01b039092169163801c5b1e916004808201926020929091908290030181865afa15801561107d573d6000803e3d6000fd5b505050506040513d601f19601f820116820180604052508101906110a19190612cdb565b84549091506000906110b39042612e8f565b90508181106110d45760405162461bcd60e51b81526004016101f090612ea6565b6000805160206131eb8339815191525460008051602061320b833981519152547f3c72d60a0f1018560e1ecd381dcc70c04920ba28255c0b6f8b496f8f6f727f4554604080519182525160008051602061326b8339815191529360008051602061324b833981519152936001600160a01b03918216939116917fcea76e88a336bcad5acb8cf244393e65f4bbe4b4bcaa2e989f754f5f2bd29eaf9181900360200190a3610bc261199e565b60008051602061320b8339815191525460008051602061324b833981519152906001600160a01b031633146111c65760405162461bcd60e51b81526004016101f090612de4565b306001600160a01b031663084024a26040518163ffffffff1660e01b8152600401602060405180830381865afa158015611204573d6000803e3d6000fd5b505050506040513d601f19601f820116820180604052508101906112289190612cb2565b156112845760405162461bcd60e51b815260206004820152602660248201527f43464150656e616c747942696446616365743a2050656e64696e67206269642060448201526565786973747360d01b60648201526084016101f0565b61128e8383612103565b505050565b60008061129e612795565b600b0b13905090565b600080826112b58588612ef0565b6112bf9190612f0f565b6001600160601b03861614915050949350505050565b6000808260028111156112ea576112ea612f31565b036112fb575060018281161461132e565b600182600281111561130f5761130f612f31565b036113225750600182811c81161461132e565b506001600283901c8116145b92915050565b60008051602061328b83398151915280546040805163d41c3a6560e01b8152905160008051602061322b8339815191529260008051602061324b8339815191529260008051602061326b833981519152926000926001600160a01b03169163d41c3a659160048083019260209291908290030181865afa1580156113bc573d6000803e3d6000fd5b505050506040513d601f19601f820116820180604052508101906113e09190612d09565b905060008560000160009054906101000a90046001600160a01b03166001600160a01b031663565a2e2c6040518163ffffffff1660e01b8152600401602060405180830381865afa158015611439573d6000803e3d6000fd5b505050506040513d601f19601f8201168201806040525081019061145d9190612d09565b90506000611469611866565b604051632ec8eec760e01b815230600482015290915060009081906001600160a01b03861690632ec8eec790602401608060405180830381865afa1580156114b5573d6000803e3d6000fd5b505050506040513d601f19601f820116820180604052508101906114d99190612f47565b50509150915060008082846114ee9190612f7d565b12611500576114fd8284612f7d565b90505b600189810154908801546040516346ccbfb760e11b81526001600160a01b038981166004830152600160a01b909204600b0b60248201526000929190911690638d997f6e90604401602060405180830381865afa158015611565573d6000803e3d6000fd5b505050506040513d601f19601f820116820180604052508101906115899190612cdb565b90508282111561173d5761159d8383612e8f565b915060008189600401546115b19190612da8565b9050808311156116c057600189015460405163a9059cbb60e01b81526001600160a01b039182166004820152602481018390529089169063a9059cbb906044016020604051808303816000875af1158015611610573d6000803e3d6000fd5b505050506040513d601f19601f820116820180604052508101906116349190612cb2565b5061163f8184612e8f565b60018b015460405163a9059cbb60e01b81526001600160a01b0391821660048201526024810183905291945089169063a9059cbb906044016020604051808303816000875af1158015611696573d6000803e3d6000fd5b505050506040513d601f19601f820116820180604052508101906116ba9190612cb2565b5061173b565b600189015460405163a9059cbb60e01b81526001600160a01b039182166004820152602481018590529089169063a9059cbb906044016020604051808303816000875af1158015611715573d6000803e3d6000fd5b505050506040513d601f19601f820116820180604052508101906117399190612cb2565b505b505b60018901546040516323b872dd60e01b81526000916001600160a01b03808b16926323b872dd926117769216908b908b90600401612dc0565b6020604051808303816000875af1158015611795573d6000803e3d6000fd5b505050506040513d601f19601f820116820180604052508101906117b99190612cb2565b9050806118195760405162461bcd60e51b815260206004820152602860248201527f4c696243464150656e616c74794269643a2050656e616c7479207061796d656e6044820152671d0819985a5b195960c21b60648201526084016101f0565b600189015460048a015461183791600160a01b9004600b0b90612103565b6118586000805160206131eb83398151915280546001600160a01b03169055565b505050505050505050505050565b60008051602061328b83398151915280546040805163304fb4bb60e21b815290516000939260008051602061326b8339815191529285926001600160a01b039092169163c13ed2ec916004808201926020929091908290030181865afa1580156118d4573d6000803e3d6000fd5b505050506040513d601f19601f820116820180604052508101906118f89190612cdb565b905060008360000160009054906101000a90046001600160a01b03166001600160a01b0316637d51ce906040518163ffffffff1660e01b8152600401602060405180830381865afa158015611951573d6000803e3d6000fd5b505050506040513d601f19601f820116820180604052508101906119759190612cdb565b905060008183856004015461198a9190612ef0565b6119949190612f0f565b9695505050505050565b60008051602061328b83398151915280546040805163d41c3a6560e01b8152905160008051602061322b8339815191529260008051602061324b8339815191529260008051602061326b833981519152926000926001600160a01b03169163d41c3a659160048083019260209291908290030181865afa158015611a26573d6000803e3d6000fd5b505050506040513d601f19601f82011682018060405250810190611a4a9190612d09565b60018581015490850154604051631cd43d1160e31b81529293506000926001600160a01b039283169263e6a1e88892611a8d928792909116903090600401612d26565b608060405180830381865afa158015611aaa573d6000803e3d6000fd5b505050506040513d601f19601f82011682018060405250810190611ace9190612fbe565b5050915050600081600b0b1315611afa576001840154611afa9086906001600160a01b03163085612929565b8454600180870154908501546040805160008152602081019091526001600160a01b03938416936339255d5b9381169283926394229ecb92611b52928a92918116913091600160a01b9004600b0b906044810161306a565b60408051601f19818403018152918152602080830180516001600160e01b031660e095861b179052815160008152908101918290529286901b6001600160e01b0319169052611ba793925090602481016130a8565b6000604051808303816000875af1925050508015611be757506040513d6000823e601f3d908101601f19168201604052611be491908101906130de565b60015b15611bee57505b8554604080516315968b8b60e21b815290516000926001600160a01b03169163565a2e2c9160048083019260209291908290030181865afa158015611c37573d6000803e3d6000fd5b505050506040513d601f19601f82011682018060405250810190611c5b9190612d09565b6001870154604051631cd43d1160e31b81529192506001600160a01b03169063e6a1e88890611c9290869030908690600401612d26565b608060405180830381865afa158015611caf573d6000803e3d6000fd5b505050506040513d601f19601f82011682018060405250810190611cd39190612fbe565b5090935050506000600b83900b1315611d09576001840154611d0490879083908690600160a01b9004600b0b612949565b611d27565b6001840154611d2790879083908690600160a01b9004600b0b612969565b600180880154868201549186015460028a0154604051632142170760e11b81526001600160a01b03938416946342842e0e94611d6c9491811693911691600401612dc0565b600060405180830381600087803b158015611d8657600080fd5b505af1158015611d9a573d6000803e3d6000fd5b5050604051632ec8eec760e01b8152306004820152600092508291506001600160a01b03861690632ec8eec790602401608060405180830381865afa158015611de7573d6000803e3d6000fd5b505050506040513d601f19601f82011682018060405250810190611e0b9190612f47565b5050915091506000808284611e209190612f7d565b12611e3257611e2f8284612f7d565b90505b600189810154908801546040516346ccbfb760e11b81526001600160a01b038981166004830152600160a01b909204600b0b60248201526000929190911690638d997f6e90604401602060405180830381865afa158015611e97573d6000803e3d6000fd5b505050506040513d601f19601f82011682018060405250810190611ebb9190612cdb565b90508082111561207357611ecf8183612e8f565b9150600089600401548960040154611ee79190612e8f565b905080831115611ff657600189015460405163a9059cbb60e01b81526001600160a01b039182166004820152602481018390529089169063a9059cbb906044016020604051808303816000875af1158015611f46573d6000803e3d6000fd5b505050506040513d601f19601f82011682018060405250810190611f6a9190612cb2565b50611f758184612e8f565b60018b015460405163a9059cbb60e01b81526001600160a01b0391821660048201526024810183905291945089169063a9059cbb906044016020604051808303816000875af1158015611fcc573d6000803e3d6000fd5b505050506040513d601f19601f82011682018060405250810190611ff09190612cb2565b50612071565b600189015460405163a9059cbb60e01b81526001600160a01b039182166004820152602481018590529089169063a9059cbb906044016020604051808303816000875af115801561204b573d6000803e3d6000fd5b505050506040513d601f19601f8201168201806040525081019061206f9190612cb2565b505b505b8754895560018089018054918b0180546001600160a01b0319166001600160a01b03909316928317815590546001600160601b03600160a01b9182900416029091179055600280890154908a0155600380890154908a0155600480890154908a01556120f66000805160206131eb83398151915280546001600160a01b03169055565b5050505050505050505050565b60008051602061328b833981519152805460408051630b51881360e11b8152905160008051602061322b8339815191529260008051602061324b833981519152926000926001600160a01b03909216916316a31026916004808201926020929091908290030181865afa15801561217e573d6000803e3d6000fd5b505050506040513d601f19601f820116820180604052508101906121a29190612cdb565b905060008460000160009054906101000a90046001600160a01b03166001600160a01b031663014df4146040518163ffffffff1660e01b8152600401602060405180830381865afa1580156121fb573d6000803e3d6000fd5b505050506040513d601f19601f8201168201806040525081019061221f9190612cdb565b905061222d868884846112a7565b6122895760405162461bcd60e51b815260206004820152602760248201527f4c69624346414261736550434f3a20496e636f727265637420666f722073616c6044820152666520707269636560c81b60648201526084016101f0565b84546040805163d41c3a6560e01b815290516000926001600160a01b03169163d41c3a659160048083019260209291908290030181865afa1580156122d2573d6000803e3d6000fd5b505050506040513d601f19601f820116820180604052508101906122f69190612d09565b905060008660000160009054906101000a90046001600160a01b03166001600160a01b031663565a2e2c6040518163ffffffff1660e01b8152600401602060405180830381865afa15801561234f573d6000803e3d6000fd5b505050506040513d601f19601f820116820180604052508101906123739190612d09565b604051632ec8eec760e01b81523060048201529091506000906001600160a01b03841690632ec8eec790602401608060405180830381865afa1580156123bd573d6000803e3d6000fd5b505050506040513d601f19601f820116820180604052508101906123e19190612f47565b505060018901546040516346ccbfb760e11b81526001600160a01b038781166004830152600b8f900b602483015292945060009350911690638d997f6e90604401602060405180830381865afa15801561243f573d6000803e3d6000fd5b505050506040513d601f19601f820116820180604052508101906124639190612cdb565b905060006001600160a01b0385166323b872dd33306124828787612e8f565b6040518463ffffffff1660e01b81526004016124a093929190612dc0565b6020604051808303816000875af11580156124bf573d6000803e3d6000fd5b505050506040513d601f19601f820116820180604052508101906124e39190612cb2565b9050806125485760405162461bcd60e51b815260206004820152602d60248201527f4c69624346414261736550434f3a20526571756972656420627566666572207060448201526c185e5b595b9d0819985a5b1959609a1b60648201526084016101f0565b50505060018087015490860154604051631cd43d1160e31b81526000926001600160a01b039081169263e6a1e8889261258992889216903090600401612d26565b608060405180830381865afa1580156125a6573d6000803e3d6000fd5b505050506040513d601f19601f820116820180604052508101906125ca9190612fbe565b5050915050600081600b0b13156125fd5760018601546125f79088906001600160a01b031630868e612989565b5061261b565b60018601546126199088906001600160a01b031630868e6129ae565b505b6001870154604051631cd43d1160e31b81526001600160a01b039091169063e6a1e8889061265190869030908790600401612d26565b608060405180830381865afa15801561266e573d6000803e3d6000fd5b505050506040513d601f19601f820116820180604052508101906126929190612fbe565b5090925050506000600b82900b13156126b6576126b18783858d612949565b6126c2565b6126c28783858d612969565b4286556001860180546001600160601b038c16600160a01b026001600160a01b039182168181179093556002890188905560038901879055600489018c90556040519116909117907fae3c4f18410e9cfcd20fc8664a5a0082a92f07a0a5febdc22bec0c539393733690612739908c815260200190565b60405180910390a26001860154604051600b8c900b81526001600160a01b03909116907f6602f4d39e226f3807ddac3e7aab03883832e2ea2d07ccdeaf513c16679fdcd09060200160405180910390a250505050505050505050565b7feaf1cf088be31249661a61fc7743edf628a39210375613d4be0a9cda3ec06da75460008051602061328b83398151915280546040805163d41c3a6560e01b8152905160009460008051602061322b8339815191529386936001600160a01b039283169363e6a1e888939092169163d41c3a65916004808201926020929091908290030181865afa15801561282e573d6000803e3d6000fd5b505050506040513d601f19601f820116820180604052508101906128529190612d09565b8554604080516315968b8b60e21b8152905130926001600160a01b03169163565a2e2c9160048083019260209291908290030181865afa15801561289a573d6000803e3d6000fd5b505050506040513d601f19601f820116820180604052508101906128be9190612d09565b6040518463ffffffff1660e01b81526004016128dc93929190612d26565b608060405180830381865afa1580156128f9573d6000803e3d6000fd5b505050506040513d601f19601f8201168201806040525081019061291d9190612fbe565b50909695505050505050565b604080516000815260208101909152610f309085908590859085906129d3565b604080516000815260208101909152610f30908590859085908590612ab2565b604080516000815260208101909152610f30908590859085908590612b16565b6040805160008152602081019091526060906119949087908790879087908790612b40565b6040805160008152602081019091526060906119949087908790879087908790612c46565b845460018601546040805160008152602081019091526001600160a01b03928316926339255d5b921690819063b4b333c690612a189088908b908b9060448101613180565b60408051808303601f1901815291815260208201805160e094851b6001600160e01b03909116179052519185901b6001600160e01b0319168252612a639392509086906004016130a8565b6000604051808303816000875af1158015612a82573d6000803e3d6000fd5b505050506040513d6000823e601f3d908101601f19168201604052612aaa91908101906130de565b505050505050565b845460018601546001600160a01b03918216916339255d5b9116806350209a6287898860005b6040519080825280601f01601f191660200182016040528015612b02576020820181803683370190505b50604051602401612a1894939291906131b4565b845460018601546001600160a01b03918216916339255d5b9116806362fc305e8789886000612ad8565b855460018701546060916001600160a01b03908116916339255d5b91168063354b9590888b8b8a60005b6040519080825280601f01601f191660200182016040528015612b94576020820181803683370190505b50604051602401612ba995949392919061306a565b60408051808303601f1901815291815260208201805160e094851b6001600160e01b03909116179052519185901b6001600160e01b0319168252612bf49392509087906004016130a8565b6000604051808303816000875af1158015612c13573d6000803e3d6000fd5b505050506040513d6000823e601f3d908101601f19168201604052612c3b91908101906130de565b979650505050505050565b855460018701546060916001600160a01b03908116916339255d5b9116806394229ecb888b8b8a6000612b6a565b80600b0b8114612c8357600080fd5b50565b60008060408385031215612c9957600080fd5b8235612ca481612c74565b946020939093013593505050565b600060208284031215612cc457600080fd5b81518015158114612cd457600080fd5b9392505050565b600060208284031215612ced57600080fd5b5051919050565b6001600160a01b0381168114612c8357600080fd5b600060208284031215612d1b57600080fd5b8151612cd481612cf4565b6001600160a01b0393841681529183166020830152909116604082015260600190565b600080600060608486031215612d5e57600080fd5b83519250602084015160ff81168114612d7657600080fd5b6040850151909250612d8781612c74565b809150509250925092565b634e487b7160e01b600052601160045260246000fd5b60008219821115612dbb57612dbb612d92565b500190565b6001600160a01b039384168152919092166020820152604081019190915260600190565b6020808252603d908201527f4346414261736550434f46616365743a204f6e6c79207061796572206973206160408201527f6c6c6f77656420746f20706572666f726d207468697320616374696f6e000000606082015260800190565b6020808252602e908201527f43464150656e616c747942696446616365743a2050656e64696e67206269642060408201526d191bd95cc81b9bdd08195e1a5cdd60921b606082015260800190565b600082821015612ea157612ea1612d92565b500390565b6020808252602a908201527f43464150656e616c747942696446616365743a2042696420706572696f642068604082015269185cc8195b185c1cd95960b21b606082015260800190565b6000816000190483118215151615612f0a57612f0a612d92565b500290565b600082612f2c57634e487b7160e01b600052601260045260246000fd5b500490565b634e487b7160e01b600052602160045260246000fd5b60008060008060808587031215612f5d57600080fd5b505082516020840151604085015160609095015191969095509092509050565b600080821280156001600160ff1b0384900385131615612f9f57612f9f612d92565b600160ff1b8390038412811615612fb857612fb8612d92565b50500190565b60008060008060808587031215612fd457600080fd5b845193506020850151612fe681612c74565b6040860151606090960151949790965092505050565b634e487b7160e01b600052604160045260246000fd5b60005b8381101561302d578181015183820152602001613015565b83811115610f305750506000910152565b60008151808452613056816020860160208601613012565b601f01601f19169290920160200192915050565b6001600160a01b038681168252858116602083015284166040820152600b83900b606082015260a060808201819052600090612c3b9083018461303e565b6001600160a01b03841681526060602082018190526000906130cc9083018561303e565b8281036040840152611994818561303e565b6000602082840312156130f057600080fd5b815167ffffffffffffffff8082111561310857600080fd5b818401915084601f83011261311c57600080fd5b81518181111561312e5761312e612ffc565b604051601f8201601f19908116603f0116810190838211818310171561315657613156612ffc565b8160405282815287602084870101111561316f57600080fd5b612c3b836020830160208801613012565b6001600160a01b0385811682528481166020830152831660408201526080606082018190526000906119949083018461303e565b6001600160a01b03858116825284166020820152600b83900b60408201526080606082018190526000906119949083018461303e56feab844abc5ac35bdf8e8581a4c7c97fb9e92911442226ad6bdb029a2dbfe670de3c72d60a0f1018560e1ecd381dcc70c04920ba28255c0b6f8b496f8f6f727f42eaf1cf088be31249661a61fc7743edf628a39210375613d4be0a9cda3ec06da63c72d60a0f1018560e1ecd381dcc70c04920ba28255c0b6f8b496f8f6f727f41ab844abc5ac35bdf8e8581a4c7c97fb9e92911442226ad6bdb029a2dbfe670dd7afbdc140ed2feae39152d66ce3c9b7394a1bbd963c668f15d7196d48d2532c9a26469706673582212204956d34f2f33d4ecd3e32133a8beaf7e56b78d4e057abfbc8f5a5c50f61ee2ca64736f6c634300080e0033",
  "devdoc": {
    "kind": "dev",
    "methods": {
      "editBid(int96,uint256)": {
        "params": {
          "newContributionRate": "New contribution rate for bid",
          "newForSalePrice": "Intented new for sale price. Must be within rounding bounds of newContributionRate"
        }
      },
      "placeBid(int96,uint256)": {
        "params": {
          "newContributionRate": "New contribution rate for bid",
          "newForSalePrice": "Intented new for sale price. Must be within rounding bounds of newContributionRate"
        }
      }
    },
    "version": 1
  },
  "userdoc": {
    "events": {
      "BidAccepted(address,address,uint256)": {
        "notice": "Emitted when a bid is accepted"
      },
      "BidPlaced(address,int96,uint256)": {
        "notice": "Emitted when for sale price is updated"
      },
      "BidRejected(address,address,uint256)": {
        "notice": "Emitted when a bid is rejected"
      },
      "TransferTriggered(address,address,address,uint256)": {
        "notice": "Emitted when a transfer is triggered"
      }
    },
    "kind": "user",
    "methods": {
      "acceptBid()": {
        "notice": "Accept a pending bid as the current payer      - Must be payer      - Pending bid must exist      - Must be within bidding period"
      },
      "calculatePenalty()": {
        "notice": "Get penalty payment"
      },
      "editBid(int96,uint256)": {
        "notice": "Edit bid      - Must be the current payer      - Must have permissions to update flow for payer"
      },
      "hasPendingBid()": {
        "notice": "Checks if there is a pending bid"
      },
      "pendingBid()": {
        "notice": "Get pending bid"
      },
      "placeBid(int96,uint256)": {
        "notice": "Place a bid to purchase license as msg.sender      - Pending bid must not exist      - Must have permissions to create flow for bidder      - Must have ERC-20 approval of payment token"
      },
      "rejectBid()": {
        "notice": "Reject a pending bid as the current payer      - Must be payer      - Pending bid must exist      - Must be within bidding period      - Must approve penalty amount"
      },
      "triggerTransfer()": {
        "notice": "Trigger a transfer after bidding period has elapsed      - Pending bid must exist      - Must be after bidding period"
      }
    },
    "notice": "Handles bidding using CFAs and penalities",
    "version": 1
  },
  "storageLayout": {
    "storage": [],
    "types": null
  }
}