{
  "address": "0xF48e5278eb6D377C43E4380b0781A7B39fb3dD74",
  "abi": [
    {
      "inputs": [
        {
          "internalType": "uint256",
          "name": "x",
          "type": "uint256"
        },
        {
          "internalType": "uint256",
          "name": "y",
          "type": "uint256"
        }
      ],
      "name": "availabilityIndex",
      "outputs": [
        {
          "internalType": "uint256",
          "name": "",
          "type": "uint256"
        }
      ],
      "stateMutability": "view",
      "type": "function"
    },
    {
      "inputs": [
        {
          "internalType": "uint256",
          "name": "id",
          "type": "uint256"
        }
      ],
      "name": "getLandParcel",
      "outputs": [
        {
          "internalType": "uint64",
          "name": "baseCoordinate",
          "type": "uint64"
        },
        {
          "internalType": "uint256[]",
          "name": "path",
          "type": "uint256[]"
        }
      ],
      "stateMutability": "view",
      "type": "function"
    }
  ],
  "transactionHash": "0xbb8fabbdae2f5a3daa9c1c78c43deaf57bd48cc04769c65be8859bfe95c770c0",
  "args": [],
  "numDeployments": 4,
  "solcInputHash": "db81f6e5b2d21ff082455967dde9ed77",
  "bytecode": "0x608060405234801561001057600080fd5b5061023f806100206000396000f3fe608060405234801561001057600080fd5b50600436106100365760003560e01c806331a5ee9c1461003b578063e7feff2e14610098575b600080fd5b610085610049366004610176565b60009182527f1d99a33cbbd99d244d8804dd6e7f77acb60cc0c0934fe2f7b00cabddc4b4b0f86020908152604080842092845291905290205490565b6040519081526020015b60405180910390f35b6100ab6100a6366004610198565b6100b9565b60405161008f9291906101b1565b60008181527f1d99a33cbbd99d244d8804dd6e7f77acb60cc0c0934fe2f7b00cabddc4b4b0f96020908152604080832080546001820180548451818702810187019095528085526060957f1d99a33cbbd99d244d8804dd6e7f77acb60cc0c0934fe2f7b00cabddc4b4b0f89567ffffffffffffffff9094169391839183018282801561016457602002820191906000526020600020905b815481526020019060010190808311610150575b50505050509050935093505050915091565b6000806040838503121561018957600080fd5b50508035926020909101359150565b6000602082840312156101aa57600080fd5b5035919050565b60006040820167ffffffffffffffff851683526020604081850152818551808452606086019150828701935060005b818110156101fc578451835293830193918301916001016101e0565b509097965050505050505056fea2646970667358221220d879eff3eb72446fdcfe61441a3f8a68601f5bfdd3e141866e9ebea79a41e59664736f6c634300080e0033",
  "devdoc": {
    "kind": "dev",
    "methods": {
      "availabilityIndex(uint256,uint256)": {
        "params": {
          "x": "X coordinate",
          "y": "Y coordinate"
        }
      },
      "getLandParcel(uint256)": {
        "params": {
          "id": "ID of land parcel"
        }
      }
    },
    "title": "Public access to parcel data",
    "version": 1
  },
  "userdoc": {
    "kind": "user",
    "methods": {
      "availabilityIndex(uint256,uint256)": {
        "notice": "Get availability index for coordinates"
      },
      "getLandParcel(uint256)": {
        "notice": "Get a land parcel"
      }
    },
    "version": 1
  },
  "storageLayout": {
    "storage": [],
    "types": null
  }
}