{
  "contractName": "GeoWebCoordinate",
  "abi": [
    {
      "inputs": [
        {
          "internalType": "uint64",
          "name": "origin",
          "type": "uint64"
        },
        {
          "internalType": "uint256",
          "name": "direction",
          "type": "uint256"
        }
      ],
      "name": "traverse",
      "outputs": [
        {
          "internalType": "uint64",
          "name": "destination",
          "type": "uint64"
        }
      ],
      "stateMutability": "pure",
      "type": "function",
      "constant": true
    },
    {
      "inputs": [
        {
          "internalType": "uint64",
          "name": "coord",
          "type": "uint64"
        }
      ],
      "name": "getX",
      "outputs": [
        {
          "internalType": "uint64",
          "name": "coord_x",
          "type": "uint64"
        }
      ],
      "stateMutability": "pure",
      "type": "function",
      "constant": true
    },
    {
      "inputs": [
        {
          "internalType": "uint64",
          "name": "coord",
          "type": "uint64"
        }
      ],
      "name": "getY",
      "outputs": [
        {
          "internalType": "uint64",
          "name": "coord_y",
          "type": "uint64"
        }
      ],
      "stateMutability": "pure",
      "type": "function",
      "constant": true
    },
    {
      "inputs": [
        {
          "internalType": "uint64",
          "name": "coord",
          "type": "uint64"
        }
      ],
      "name": "toWordIndex",
      "outputs": [
        {
          "internalType": "uint256",
          "name": "i_x",
          "type": "uint256"
        },
        {
          "internalType": "uint256",
          "name": "i_y",
          "type": "uint256"
        },
        {
          "internalType": "uint256",
          "name": "i",
          "type": "uint256"
        }
      ],
      "stateMutability": "pure",
      "type": "function",
      "constant": true
    }
  ],
  "bytecode": "0x610906610026600b82828239805160001a60731461001957fe5b30600052607381538281f3fe73000000000000000000000000000000000000000030146080604052600436106100565760003560e01c8063220c0b7e1461005b5780632b4926e3146100bb5780638f22b39d14610115578063a170b4b21461017f575b600080fd5b6100916004803603602081101561007157600080fd5b81019080803567ffffffffffffffff1690602001909291905050506101df565b604051808267ffffffffffffffff1667ffffffffffffffff16815260200191505060405180910390f35b6100f1600480360360208110156100d157600080fd5b81019080803567ffffffffffffffff169060200190929190505050610284565b60405180848152602001838152602001828152602001935050505060405180910390f35b6101556004803603604081101561012b57600080fd5b81019080803567ffffffffffffffff1690602001909291908035906020019092919050505061032f565b604051808267ffffffffffffffff1667ffffffffffffffff16815260200191505060405180910390f35b6101b56004803603602081101561019557600080fd5b81019080803567ffffffffffffffff169060200190929190505050610571565b604051808267ffffffffffffffff1667ffffffffffffffff16815260200191505060405180910390f35b600060208267ffffffffffffffff16901c905062ffffff67ffffffffffffffff168167ffffffffffffffff16111561027f576040517f08c379a000000000000000000000000000000000000000000000000000000000815260040180806020018281038252601d8152602001807f5820636f6f7264696e617465206973206f7574206f6620626f756e647300000081525060200191505060405180910390fd5b919050565b600080600080610293856101df565b67ffffffffffffffff16905060006102aa86610571565b67ffffffffffffffff1690506102ca60108361060e90919063ffffffff16565b94506102e060108261060e90919063ffffffff16565b9350600161032360016102fd60108561065890919063ffffffff16565b01600161031460108761065890919063ffffffff16565b016106a290919063ffffffff16565b03925050509193909250565b60008061033b846101df565b9050600061034885610571565b9050600084600381111561035857fe5b90506000600381111561036757fe5b81600381111561037357fe5b141561041157600182019150627fffff67ffffffffffffffff168267ffffffffffffffff16111561040c576040517f08c379a000000000000000000000000000000000000000000000000000000000815260040180806020018281038252601d8152602001807f446972656374696f6e2077656e7420746f6f20666172206e6f7274682100000081525060200191505060405180910390fd5b610555565b6001600381111561041e57fe5b81600381111561042a57fe5b14156104bc5760018203915060008267ffffffffffffffff1610156104b7576040517f08c379a000000000000000000000000000000000000000000000000000000000815260040180806020018281038252601d8152602001807f446972656374696f6e2077656e7420746f6f2066617220736f7574682100000081525060200191505060405180910390fd5b610554565b600260038111156104c957fe5b8160038111156104d557fe5b141561050e5762ffffff67ffffffffffffffff168367ffffffffffffffff16106105025760009250610509565b6001830192505b610553565b60038081111561051a57fe5b81600381111561052657fe5b14156105525760008367ffffffffffffffff16141561054a5762ffffff9250610551565b6001830392505b5b5b5b5b60208367ffffffffffffffff16901b8217935050505092915050565b600063ffffffff82169050627fffff67ffffffffffffffff168167ffffffffffffffff161115610609576040517f08c379a000000000000000000000000000000000000000000000000000000000815260040180806020018281038252601d8152602001807f5920636f6f7264696e617465206973206f7574206f6620626f756e647300000081525060200191505060405180910390fd5b919050565b600061065083836040518060400160405280601a81526020017f536166654d6174683a206469766973696f6e206279207a65726f000000000000815250610728565b905092915050565b600061069a83836040518060400160405280601881526020017f536166654d6174683a206d6f64756c6f206279207a65726f00000000000000008152506107ee565b905092915050565b6000808314156106b55760009050610722565b60008284029050828482816106c657fe5b041461071d576040517f08c379a00000000000000000000000000000000000000000000000000000000081526004018080602001828103825260218152602001806108b06021913960400191505060405180910390fd5b809150505b92915050565b600080831182906107d4576040517f08c379a00000000000000000000000000000000000000000000000000000000081526004018080602001828103825283818151815260200191508051906020019080838360005b8381101561079957808201518184015260208101905061077e565b50505050905090810190601f1680156107c65780820380516001836020036101000a031916815260200191505b509250505060405180910390fd5b5060008385816107e057fe5b049050809150509392505050565b600080831415829061089b576040517f08c379a00000000000000000000000000000000000000000000000000000000081526004018080602001828103825283818151815260200191508051906020019080838360005b83811015610860578082015181840152602081019050610845565b50505050905090810190601f16801561088d5780820380516001836020036101000a031916815260200191505b509250505060405180910390fd5b508284816108a557fe5b069050939250505056fe536166654d6174683a206d756c7469706c69636174696f6e206f766572666c6f77a264697066735822122062cfa7b4abd7998910384d0131e7c530000638d8ff92968aee8edf7a920af9f564736f6c63430006020033",
  "source": "pragma solidity ^0.6.0;\n\nimport \"@openzeppelin/contracts/math/SafeMath.sol\";\n\n/// @notice GeoWebCoordinate is an unsigned 64-bit integer that contains x and y coordinates in the upper and lower 32 bits, respectively\nlibrary GeoWebCoordinate {\n    using SafeMath for uint256;\n\n    /// @notice Represents a direction in a path\n    enum Direction {North, South, East, West}\n\n    // Fixed grid size is 2^24 longitude by 2^23 latitude, roughly 10 square meters of area at the equator\n    uint64 constant MAX_X = ((2**24) - 1);\n    uint64 constant MAX_Y = ((2**23) - 1);\n\n    /// @notice Traverse a single direction\n    /// @param origin The origin coordinate to start from\n    /// @param direction The direction to take\n    /// @return destination The destination coordinate\n    function traverse(uint64 origin, uint256 direction)\n        public\n        pure\n        returns (uint64 destination)\n    {\n        uint64 origin_x = getX(origin);\n        uint64 origin_y = getY(origin);\n\n        Direction dir = Direction(direction);\n        if (dir == Direction.North) {\n            origin_y += 1;\n            require(origin_y <= MAX_Y, \"Direction went too far north!\");\n        } else if (dir == Direction.South) {\n            origin_y -= 1;\n            require(origin_y >= 0, \"Direction went too far south!\");\n        } else if (dir == Direction.East) {\n            if (origin_x >= MAX_X) {\n                // Wrap to west\n                origin_x = 0;\n            } else {\n                origin_x += 1;\n            }\n        } else if (dir == Direction.West) {\n            if (origin_x == 0) {\n                // Wrap to east\n                origin_x = MAX_X;\n            } else {\n                origin_x -= 1;\n            }\n        }\n\n        destination = (origin_y | (origin_x << 32));\n    }\n\n    /// @notice Get the X coordinate\n    function getX(uint64 coord) public pure returns (uint64 coord_x) {\n        coord_x = (coord >> 32); // Take first 32 bits\n        require(coord_x <= MAX_X, \"X coordinate is out of bounds\");\n    }\n\n    /// @notice Get the Y coordinate\n    function getY(uint64 coord) public pure returns (uint64 coord_y) {\n        coord_y = (coord & ((2**32) - 1)); // Take last 32 bits\n        require(coord_y <= MAX_Y, \"Y coordinate is out of bounds\");\n    }\n\n    /// @notice Convert coordinate to word index\n    function toWordIndex(uint64 coord)\n        public\n        pure\n        returns (\n            uint256 i_x,\n            uint256 i_y,\n            uint256 i\n        )\n    {\n        uint256 coord_x = uint256(getX(coord));\n        uint256 coord_y = uint256(getY(coord));\n\n        i_x = coord_x.div(16);\n        i_y = coord_y.div(16);\n        i = (coord_x.mod(16) + 1).mul(coord_y.mod(16) + 1) - 1;\n    }\n}\n\n/// @notice GeoWebCoordinatePath stores a path of directions in a uint256. The most significant 8 bits encodes the length of the path\nlibrary GeoWebCoordinatePath {\n    using SafeMath for uint256;\n\n    uint256 constant INNER_PATH_MASK = (2**(256 - 8)) - 1;\n    uint256 constant PATH_SEGMENT_MASK = (2**2) - 1;\n\n    function hasNext(uint256 path) public pure returns (bool) {\n        uint256 length = (path >> (256 - 8)); // Take most significant 8 bits\n        return (length > 0);\n    }\n\n    /// @notice Get next direction from path\n    /// @param path The path to get the direction from\n    /// @return direction The next direction taken from path\n    /// @return nextPath The next path with the direction popped from it\n    function nextDirection(uint256 path)\n        public\n        pure\n        returns (uint256 direction, uint256 nextPath)\n    {\n        uint256 length = (path >> (256 - 8)); // Take most significant 8 bits\n        uint256 _path = (path & INNER_PATH_MASK);\n\n        direction = (_path & PATH_SEGMENT_MASK); // Take least significant 2 bits of path\n        nextPath = (_path >> 2) | (length.sub(1) << (256 - 8)); // Trim direction from path\n    }\n}\n",
  "sourcePath": "/Users/cody/Projects/GeoWeb/core-contracts/contracts/GeoWebCoordinate.sol",
  "compiler": {
    "name": "solc",
    "version": "0.6.2+commit.bacdbe57.Emscripten.clang"
  },
  "schemaVersion": "3.2.5",
  "updatedAt": "2020-10-19T21:37:46.625Z",
  "networkType": "ethereum",
  "devdoc": {
    "methods": {
      "traverse(uint64,uint256)": {
        "params": {
          "direction": "The direction to take",
          "origin": "The origin coordinate to start from"
        },
        "returns": {
          "destination": "The destination coordinate"
        }
      }
    }
  },
  "userdoc": {
    "methods": {
      "getX(uint64)": {
        "notice": "Get the X coordinate"
      },
      "getY(uint64)": {
        "notice": "Get the Y coordinate"
      },
      "toWordIndex(uint64)": {
        "notice": "Convert coordinate to word index"
      },
      "traverse(uint64,uint256)": {
        "notice": "Traverse a single direction"
      }
    },
    "notice": "GeoWebCoordinate is an unsigned 64-bit integer that contains x and y coordinates in the upper and lower 32 bits, respectively"
  }
}