{
  "contractName": "GeoWebParcel",
  "abi": [
    {
      "inputs": [
        {
          "internalType": "address",
          "name": "minter",
          "type": "address"
        }
      ],
      "stateMutability": "nonpayable",
      "type": "constructor"
    },
    {
      "anonymous": false,
      "inputs": [
        {
          "indexed": true,
          "internalType": "bytes32",
          "name": "role",
          "type": "bytes32"
        },
        {
          "indexed": true,
          "internalType": "bytes32",
          "name": "previousAdminRole",
          "type": "bytes32"
        },
        {
          "indexed": true,
          "internalType": "bytes32",
          "name": "newAdminRole",
          "type": "bytes32"
        }
      ],
      "name": "RoleAdminChanged",
      "type": "event"
    },
    {
      "anonymous": false,
      "inputs": [
        {
          "indexed": true,
          "internalType": "bytes32",
          "name": "role",
          "type": "bytes32"
        },
        {
          "indexed": true,
          "internalType": "address",
          "name": "account",
          "type": "address"
        },
        {
          "indexed": true,
          "internalType": "address",
          "name": "sender",
          "type": "address"
        }
      ],
      "name": "RoleGranted",
      "type": "event"
    },
    {
      "anonymous": false,
      "inputs": [
        {
          "indexed": true,
          "internalType": "bytes32",
          "name": "role",
          "type": "bytes32"
        },
        {
          "indexed": true,
          "internalType": "address",
          "name": "account",
          "type": "address"
        },
        {
          "indexed": true,
          "internalType": "address",
          "name": "sender",
          "type": "address"
        }
      ],
      "name": "RoleRevoked",
      "type": "event"
    },
    {
      "inputs": [],
      "name": "DEFAULT_ADMIN_ROLE",
      "outputs": [
        {
          "internalType": "bytes32",
          "name": "",
          "type": "bytes32"
        }
      ],
      "stateMutability": "view",
      "type": "function",
      "constant": true
    },
    {
      "inputs": [],
      "name": "MINTER_ROLE",
      "outputs": [
        {
          "internalType": "bytes32",
          "name": "",
          "type": "bytes32"
        }
      ],
      "stateMutability": "view",
      "type": "function",
      "constant": true
    },
    {
      "inputs": [
        {
          "internalType": "uint256",
          "name": "",
          "type": "uint256"
        },
        {
          "internalType": "uint256",
          "name": "",
          "type": "uint256"
        }
      ],
      "name": "availabilityIndex",
      "outputs": [
        {
          "internalType": "uint256",
          "name": "",
          "type": "uint256"
        }
      ],
      "stateMutability": "view",
      "type": "function",
      "constant": true
    },
    {
      "inputs": [
        {
          "internalType": "bytes32",
          "name": "role",
          "type": "bytes32"
        }
      ],
      "name": "getRoleAdmin",
      "outputs": [
        {
          "internalType": "bytes32",
          "name": "",
          "type": "bytes32"
        }
      ],
      "stateMutability": "view",
      "type": "function",
      "constant": true
    },
    {
      "inputs": [
        {
          "internalType": "bytes32",
          "name": "role",
          "type": "bytes32"
        },
        {
          "internalType": "uint256",
          "name": "index",
          "type": "uint256"
        }
      ],
      "name": "getRoleMember",
      "outputs": [
        {
          "internalType": "address",
          "name": "",
          "type": "address"
        }
      ],
      "stateMutability": "view",
      "type": "function",
      "constant": true
    },
    {
      "inputs": [
        {
          "internalType": "bytes32",
          "name": "role",
          "type": "bytes32"
        }
      ],
      "name": "getRoleMemberCount",
      "outputs": [
        {
          "internalType": "uint256",
          "name": "",
          "type": "uint256"
        }
      ],
      "stateMutability": "view",
      "type": "function",
      "constant": true
    },
    {
      "inputs": [
        {
          "internalType": "bytes32",
          "name": "role",
          "type": "bytes32"
        },
        {
          "internalType": "address",
          "name": "account",
          "type": "address"
        }
      ],
      "name": "grantRole",
      "outputs": [],
      "stateMutability": "nonpayable",
      "type": "function"
    },
    {
      "inputs": [
        {
          "internalType": "bytes32",
          "name": "role",
          "type": "bytes32"
        },
        {
          "internalType": "address",
          "name": "account",
          "type": "address"
        }
      ],
      "name": "hasRole",
      "outputs": [
        {
          "internalType": "bool",
          "name": "",
          "type": "bool"
        }
      ],
      "stateMutability": "view",
      "type": "function",
      "constant": true
    },
    {
      "inputs": [
        {
          "internalType": "uint256",
          "name": "",
          "type": "uint256"
        }
      ],
      "name": "landParcels",
      "outputs": [
        {
          "internalType": "uint64",
          "name": "baseCoordinate",
          "type": "uint64"
        }
      ],
      "stateMutability": "view",
      "type": "function",
      "constant": true
    },
    {
      "inputs": [
        {
          "internalType": "bytes32",
          "name": "role",
          "type": "bytes32"
        },
        {
          "internalType": "address",
          "name": "account",
          "type": "address"
        }
      ],
      "name": "renounceRole",
      "outputs": [],
      "stateMutability": "nonpayable",
      "type": "function"
    },
    {
      "inputs": [
        {
          "internalType": "bytes32",
          "name": "role",
          "type": "bytes32"
        },
        {
          "internalType": "address",
          "name": "account",
          "type": "address"
        }
      ],
      "name": "revokeRole",
      "outputs": [],
      "stateMutability": "nonpayable",
      "type": "function"
    },
    {
      "inputs": [
        {
          "internalType": "uint64",
          "name": "baseCoordinate",
          "type": "uint64"
        },
        {
          "internalType": "uint256[]",
          "name": "path",
          "type": "uint256[]"
        }
      ],
      "name": "mintLandParcel",
      "outputs": [],
      "stateMutability": "nonpayable",
      "type": "function"
    }
  ],
  "bytecode": "0x60806040523480156200001157600080fd5b50604051620013f6380380620013f6833981810160405260208110156200003757600080fd5b81019080805190602001909291905050506200008f60405180807f4d494e5445525f524f4c45000000000000000000000000000000000000000000815250600b0190506040518091039020826200009e60201b60201c565b60006003819055505062000234565b620000b08282620000b460201b60201c565b5050565b620000e2816000808581526020019081526020016000206000016200015760201b62000deb1790919060201c565b156200015357620000f86200018f60201b60201c565b73ffffffffffffffffffffffffffffffffffffffff168173ffffffffffffffffffffffffffffffffffffffff16837f2f8788117e7eff1d82e926ec794901d17c78024a50270940304540a733656f0d60405160405180910390a45b5050565b600062000187836000018373ffffffffffffffffffffffffffffffffffffffff1660001b6200019760201b60201c565b905092915050565b600033905090565b6000620001ab83836200021160201b60201c565b620002065782600001829080600181540180825580915050600190039060005260206000200160009091909190915055826000018054905083600101600084815260200190815260200160002081905550600190506200020b565b600090505b92915050565b600080836001016000848152602001908152602001600020541415905092915050565b6111b280620002446000396000f3fe608060405234801561001057600080fd5b50600436106100b45760003560e01c806391d148541161007157806391d14854146102b1578063a03838e214610317578063a217fddf146103a4578063ca15c873146103c2578063d539139314610404578063d547741f14610422576100b4565b806320e7c6d4146100b9578063248a9ca31461010f5780632f2ff15d1461015157806331a5ee9c1461019f57806336568abe146101eb5780639010d07c14610239575b600080fd5b6100e5600480360360208110156100cf57600080fd5b8101908080359060200190929190505050610470565b604051808267ffffffffffffffff1667ffffffffffffffff16815260200191505060405180910390f35b61013b6004803603602081101561012557600080fd5b81019080803590602001909291905050506104a2565b6040518082815260200191505060405180910390f35b61019d6004803603604081101561016757600080fd5b8101908080359060200190929190803573ffffffffffffffffffffffffffffffffffffffff1690602001909291905050506104c1565b005b6101d5600480360360408110156101b557600080fd5b81019080803590602001909291908035906020019092919050505061054a565b6040518082815260200191505060405180910390f35b6102376004803603604081101561020157600080fd5b8101908080359060200190929190803573ffffffffffffffffffffffffffffffffffffffff16906020019092919050505061056f565b005b61026f6004803603604081101561024f57600080fd5b810190808035906020019092919080359060200190929190505050610608565b604051808273ffffffffffffffffffffffffffffffffffffffff1673ffffffffffffffffffffffffffffffffffffffff16815260200191505060405180910390f35b6102fd600480360360408110156102c757600080fd5b8101908080359060200190929190803573ffffffffffffffffffffffffffffffffffffffff169060200190929190505050610639565b604051808215151515815260200191505060405180910390f35b6103a26004803603604081101561032d57600080fd5b81019080803567ffffffffffffffff1690602001909291908035906020019064010000000081111561035e57600080fd5b82018360208201111561037057600080fd5b8035906020019184602083028401116401000000008311171561039257600080fd5b909192939192939050505061066a565b005b6103ac610b6f565b6040518082815260200191505060405180910390f35b6103ee600480360360208110156103d857600080fd5b8101908080359060200190929190505050610b76565b6040518082815260200191505060405180910390f35b61040c610b9c565b6040518082815260200191505060405180910390f35b61046e6004803603604081101561043857600080fd5b8101908080359060200190929190803573ffffffffffffffffffffffffffffffffffffffff169060200190929190505050610bd5565b005b60026020528060005260406000206000915090508060000160009054906101000a900467ffffffffffffffff16905081565b6000806000838152602001908152602001600020600201549050919050565b6104e7600080848152602001908152602001600020600201546104e2610c5e565b610639565b61053c576040517f08c379a000000000000000000000000000000000000000000000000000000000815260040180806020018281038252602f8152602001806110ef602f913960400191505060405180910390fd5b6105468282610c66565b5050565b6001602052816000526040600020602052806000526040600020600091509150505481565b610577610c5e565b73ffffffffffffffffffffffffffffffffffffffff168173ffffffffffffffffffffffffffffffffffffffff16146105fa576040517f08c379a000000000000000000000000000000000000000000000000000000000815260040180806020018281038252602f81526020018061114e602f913960400191505060405180910390fd5b6106048282610cf9565b5050565b600061063182600080868152602001908152602001600020600001610d8c90919063ffffffff16565b905092915050565b600061066282600080868152602001908152602001600020600001610da690919063ffffffff16565b905092915050565b6106a960405180807f4d494e5445525f524f4c45000000000000000000000000000000000000000000815250600b019050604051809103902033610639565b61071b576040517f08c379a00000000000000000000000000000000000000000000000000000000081526004018080602001828103825260168152602001807f43616c6c6572206973206e6f742061206d696e7465720000000000000000000081525060200191505060405180910390fd5b60008390506000809050600084848381811061073357fe5b9050602002013590505b60008060008567ffffffffffffffff1673__GeoWebCoordinate______________________632b4926e390916040518263ffffffff1660e01b8152600401808267ffffffffffffffff1667ffffffffffffffff16815260200191505060606040518083038186803b1580156107b157600080fd5b505af41580156107c5573d6000803e3d6000fd5b505050506040513d60608110156107db57600080fd5b81019080805190602001909291908051906020019092919080519060200190929190505050925092509250600060016000858152602001908152602001600020600084815260200190815260200160002054905060008260020a8216146108aa576040517f08c379a000000000000000000000000000000000000000000000000000000000815260040180806020018281038252601b8152602001807f436f6f7264696e617465206973206e6f7420617661696c61626c65000000000081525060200191505060405180910390fd5b8160020a8117600160008681526020019081526020016000206000858152602001908152602001600020819055508473__GeoWebCoordinatePath__________________63cba2506b90916040518263ffffffff1660e01b81526004018082815260200191505060206040518083038186803b15801561092957600080fd5b505af415801561093d573d6000803e3d6000fd5b505050506040513d602081101561095357600080fd5b810190808051906020019092919050505015610ac3576000808673__GeoWebCoordinatePath__________________63f2cc143390916040518263ffffffff1660e01b815260040180828152602001915050604080518083038186803b1580156109bc57600080fd5b505af41580156109d0573d6000803e3d6000fd5b505050506040513d60408110156109e657600080fd5b810190808051906020019092919080519060200190929190505050915091508867ffffffffffffffff1673__GeoWebCoordinate______________________638f22b39d9091846040518363ffffffff1660e01b8152600401808367ffffffffffffffff1667ffffffffffffffff1681526020018281526020019250505060206040518083038186803b158015610a7c57600080fd5b505af4158015610a90573d6000803e3d6000fd5b505050506040513d6020811015610aa657600080fd5b810190808051906020019092919050505098508096505050610af2565b600186019550888890508610610adc5750505050610afd565b888887818110610ae857fe5b9050602002013594505b50505050600161073d575b60006002600060035481526020019081526020016000209050868160000160006101000a81548167ffffffffffffffff021916908367ffffffffffffffff1602179055508585826001019190610b5492919061105a565b50600160036000828254019250508190555050505050505050565b6000801b81565b6000610b95600080848152602001908152602001600020600001610dd6565b9050919050565b60405180807f4d494e5445525f524f4c45000000000000000000000000000000000000000000815250600b019050604051809103902081565b610bfb60008084815260200190815260200160002060020154610bf6610c5e565b610639565b610c50576040517f08c379a000000000000000000000000000000000000000000000000000000000815260040180806020018281038252603081526020018061111e6030913960400191505060405180910390fd5b610c5a8282610cf9565b5050565b600033905090565b610c8d81600080858152602001908152602001600020600001610deb90919063ffffffff16565b15610cf557610c9a610c5e565b73ffffffffffffffffffffffffffffffffffffffff168173ffffffffffffffffffffffffffffffffffffffff16837f2f8788117e7eff1d82e926ec794901d17c78024a50270940304540a733656f0d60405160405180910390a45b5050565b610d2081600080858152602001908152602001600020600001610e1b90919063ffffffff16565b15610d8857610d2d610c5e565b73ffffffffffffffffffffffffffffffffffffffff168173ffffffffffffffffffffffffffffffffffffffff16837ff6391f5c32d9c69d2a47ea670b442974b53935d1edc7fd64eb21e047a839171b60405160405180910390a45b5050565b6000610d9b8360000183610e4b565b60001c905092915050565b6000610dce836000018373ffffffffffffffffffffffffffffffffffffffff1660001b610ece565b905092915050565b6000610de482600001610ef1565b9050919050565b6000610e13836000018373ffffffffffffffffffffffffffffffffffffffff1660001b610f02565b905092915050565b6000610e43836000018373ffffffffffffffffffffffffffffffffffffffff1660001b610f72565b905092915050565b600081836000018054905011610eac576040517f08c379a00000000000000000000000000000000000000000000000000000000081526004018080602001828103825260228152602001806110cd6022913960400191505060405180910390fd5b826000018281548110610ebb57fe5b9060005260206000200154905092915050565b600080836001016000848152602001908152602001600020541415905092915050565b600081600001805490509050919050565b6000610f0e8383610ece565b610f67578260000182908060018154018082558091505060019003906000526020600020016000909190919091505582600001805490508360010160008481526020019081526020016000208190555060019050610f6c565b600090505b92915050565b6000808360010160008481526020019081526020016000205490506000811461104e5760006001820390506000600186600001805490500390506000866000018281548110610fbd57fe5b9060005260206000200154905080876000018481548110610fda57fe5b906000526020600020018190555060018301876001016000838152602001908152602001600020819055508660000180548061101257fe5b60019003818190600052602060002001600090559055866001016000878152602001908152602001600020600090556001945050505050611054565b60009150505b92915050565b828054828255906000526020600020908101928215611096579160200282015b8281111561109557823582559160200191906001019061107a565b5b5090506110a391906110a7565b5090565b6110c991905b808211156110c55760008160009055506001016110ad565b5090565b9056fe456e756d657261626c655365743a20696e646578206f7574206f6620626f756e6473416363657373436f6e74726f6c3a2073656e646572206d75737420626520616e2061646d696e20746f206772616e74416363657373436f6e74726f6c3a2073656e646572206d75737420626520616e2061646d696e20746f207265766f6b65416363657373436f6e74726f6c3a2063616e206f6e6c792072656e6f756e636520726f6c657320666f722073656c66a2646970667358221220438bf7487a23d1dc045a33a22525f2dd3629f3ab5d414e9bb6dc69a8b66bd98264736f6c63430006020033",
  "source": "pragma solidity ^0.6.0;\n\nimport \"./GeoWebCoordinate.sol\";\nimport \"@openzeppelin/contracts/access/AccessControl.sol\";\n\n/// @notice GeoWebParcel manages the formation and representation of land parcels\ncontract GeoWebParcel is AccessControl {\n    using GeoWebCoordinate for uint64;\n    using GeoWebCoordinatePath for uint256;\n\n    bytes32 public constant MINTER_ROLE = keccak256(\"MINTER_ROLE\");\n\n    struct LandParcel {\n        uint64 baseCoordinate;\n        uint256[] path;\n    }\n\n    /// @notice availabilityIndex stores which coordinates are available to include in a parcel\n    mapping(uint256 => mapping(uint256 => uint256)) public availabilityIndex;\n\n    mapping(uint256 => LandParcel) public landParcels;\n\n    uint256 maxId;\n\n    constructor(address minter) public {\n        _setupRole(MINTER_ROLE, minter);\n\n        maxId = 0;\n    }\n\n    function mintLandParcel(uint64 baseCoordinate, uint256[] calldata path)\n        external\n    {\n        require(hasRole(MINTER_ROLE, msg.sender), \"Caller is not a minter\");\n\n        uint64 currentCoord = baseCoordinate;\n\n        uint256 p_i = 0;\n        uint256 currentPath = path[p_i];\n        do {\n            (uint256 i_x, uint256 i_y, uint256 i) = currentCoord.toWordIndex();\n            uint256 word = availabilityIndex[i_x][i_y];\n\n            // Check if coordinate is available\n            require((word & (2**i) == 0), \"Coordinate is not available\");\n\n            // Mark coordinate as unavailable\n            availabilityIndex[i_x][i_y] = word | (2**i);\n\n            // Check if any path remains\n            if (currentPath.hasNext()) {\n                // Get next direction\n                (uint256 direction, uint256 nextPath) = currentPath\n                    .nextDirection();\n\n                // Traverse to next coordinate\n                currentCoord = currentCoord.traverse(direction);\n\n                // Set next path\n                currentPath = nextPath;\n            } else {\n                // Try next path\n                p_i += 1;\n                if (p_i >= path.length) {\n                    break;\n                }\n                currentPath = path[p_i];\n            }\n        } while (true);\n\n        LandParcel storage p = landParcels[maxId];\n        p.baseCoordinate = baseCoordinate;\n        p.path = path;\n\n        maxId += 1;\n    }\n}\n",
  "sourcePath": "/Users/cody/Projects/GeoWeb/core-contracts/contracts/GeoWebParcel.sol",
  "compiler": {
    "name": "solc",
    "version": "0.6.2+commit.bacdbe57.Emscripten.clang"
  },
  "schemaVersion": "3.2.5",
  "updatedAt": "2020-10-19T21:37:46.635Z",
  "networkType": "ethereum",
  "devdoc": {
    "methods": {
      "getRoleAdmin(bytes32)": {
        "details": "Returns the admin role that controls `role`. See {grantRole} and {revokeRole}.     * To change a role's admin, use {_setRoleAdmin}."
      },
      "getRoleMember(bytes32,uint256)": {
        "details": "Returns one of the accounts that have `role`. `index` must be a value between 0 and {getRoleMemberCount}, non-inclusive.     * Role bearers are not sorted in any particular way, and their ordering may change at any point.     * WARNING: When using {getRoleMember} and {getRoleMemberCount}, make sure you perform all queries on the same block. See the following https://forum.openzeppelin.com/t/iterating-over-elements-on-enumerableset-in-openzeppelin-contracts/2296[forum post] for more information."
      },
      "getRoleMemberCount(bytes32)": {
        "details": "Returns the number of accounts that have `role`. Can be used together with {getRoleMember} to enumerate all bearers of a role."
      },
      "grantRole(bytes32,address)": {
        "details": "Grants `role` to `account`.     * If `account` had not been already granted `role`, emits a {RoleGranted} event.     * Requirements:     * - the caller must have ``role``'s admin role."
      },
      "hasRole(bytes32,address)": {
        "details": "Returns `true` if `account` has been granted `role`."
      },
      "renounceRole(bytes32,address)": {
        "details": "Revokes `role` from the calling account.     * Roles are often managed via {grantRole} and {revokeRole}: this function's purpose is to provide a mechanism for accounts to lose their privileges if they are compromised (such as when a trusted device is misplaced).     * If the calling account had been granted `role`, emits a {RoleRevoked} event.     * Requirements:     * - the caller must be `account`."
      },
      "revokeRole(bytes32,address)": {
        "details": "Revokes `role` from `account`.     * If `account` had been granted `role`, emits a {RoleRevoked} event.     * Requirements:     * - the caller must have ``role``'s admin role."
      }
    }
  },
  "userdoc": {
    "methods": {},
    "notice": "GeoWebParcel manages the formation and representation of land parcels"
  }
}