{
  "contractName": "H3",
  "abi": [
    {
      "inputs": [
        {
          "internalType": "uint256",
          "name": "path",
          "type": "uint256"
        }
      ],
      "name": "nextDirection",
      "outputs": [
        {
          "internalType": "uint256",
          "name": "direction",
          "type": "uint256"
        },
        {
          "internalType": "uint256",
          "name": "nextPath",
          "type": "uint256"
        }
      ],
      "stateMutability": "pure",
      "type": "function"
    },
    {
      "inputs": [
        {
          "internalType": "uint64",
          "name": "origin",
          "type": "uint64"
        },
        {
          "internalType": "uint256",
          "name": "direction",
          "type": "uint256"
        }
      ],
      "name": "traverse",
      "outputs": [
        {
          "internalType": "uint64",
          "name": "destination",
          "type": "uint64"
        }
      ],
      "stateMutability": "pure",
      "type": "function"
    },
    {
      "inputs": [
        {
          "internalType": "uint64",
          "name": "h3Index",
          "type": "uint64"
        }
      ],
      "name": "getResolution",
      "outputs": [
        {
          "internalType": "uint64",
          "name": "",
          "type": "uint64"
        }
      ],
      "stateMutability": "pure",
      "type": "function"
    },
    {
      "inputs": [
        {
          "internalType": "uint64",
          "name": "h3Index",
          "type": "uint64"
        }
      ],
      "name": "getBaseCell",
      "outputs": [
        {
          "internalType": "uint64",
          "name": "",
          "type": "uint64"
        }
      ],
      "stateMutability": "pure",
      "type": "function"
    },
    {
      "inputs": [
        {
          "internalType": "uint64",
          "name": "h3Index",
          "type": "uint64"
        },
        {
          "internalType": "uint64",
          "name": "baseCell",
          "type": "uint64"
        }
      ],
      "name": "withBaseCell",
      "outputs": [
        {
          "internalType": "uint64",
          "name": "",
          "type": "uint64"
        }
      ],
      "stateMutability": "pure",
      "type": "function"
    },
    {
      "inputs": [
        {
          "internalType": "uint64",
          "name": "h3Index",
          "type": "uint64"
        },
        {
          "internalType": "uint64",
          "name": "res",
          "type": "uint64"
        }
      ],
      "name": "getIndexDigit",
      "outputs": [
        {
          "internalType": "uint256",
          "name": "",
          "type": "uint256"
        }
      ],
      "stateMutability": "pure",
      "type": "function"
    },
    {
      "inputs": [
        {
          "internalType": "uint64",
          "name": "h3Index",
          "type": "uint64"
        },
        {
          "internalType": "uint64",
          "name": "res",
          "type": "uint64"
        },
        {
          "internalType": "uint64",
          "name": "digit",
          "type": "uint64"
        }
      ],
      "name": "withIndexDigit",
      "outputs": [
        {
          "internalType": "uint64",
          "name": "",
          "type": "uint64"
        }
      ],
      "stateMutability": "pure",
      "type": "function"
    }
  ],
  "bytecode": "0x6105a6610026600b82828239805160001a60731461001957fe5b30600052607381538281f3fe73000000000000000000000000000000000000000030146080604052600436106100875760003560e01c80636cc696df116100655780636cc696df146101d45780638f22b39d14610234578063c06a685c1461029e578063f2cc14331461031257610087565b80630b9441371461008c5780635549600e146100ec5780635e1133a21461014c575b600080fd5b6100c2600480360360208110156100a257600080fd5b81019080803567ffffffffffffffff16906020019092919050505061035b565b604051808267ffffffffffffffff1667ffffffffffffffff16815260200191505060405180910390f35b6101226004803603602081101561010257600080fd5b81019080803567ffffffffffffffff169060200190929190505050610398565b604051808267ffffffffffffffff1667ffffffffffffffff16815260200191505060405180910390f35b6101aa6004803603606081101561016257600080fd5b81019080803567ffffffffffffffff169060200190929190803567ffffffffffffffff169060200190929190803567ffffffffffffffff1690602001909291905050506103d5565b604051808267ffffffffffffffff1667ffffffffffffffff16815260200191505060405180910390f35b61021e600480360360408110156101ea57600080fd5b81019080803567ffffffffffffffff169060200190929190803567ffffffffffffffff169060200190929190505050610421565b6040518082815260200191505060405180910390f35b6102746004803603604081101561024a57600080fd5b81019080803567ffffffffffffffff16906020019092919080359060200190929190505050610456565b604051808267ffffffffffffffff1667ffffffffffffffff16815260200191505060405180910390f35b6102e8600480360360408110156102b457600080fd5b81019080803567ffffffffffffffff169060200190929190803567ffffffffffffffff1690602001909291905050506104f0565b604051808267ffffffffffffffff1667ffffffffffffffff16815260200191505060405180910390f35b61033e6004803603602081101561032857600080fd5b8101908080359060200190929190505050610531565b604051808381526020018281526020019250505060405180910390f35b6000603467ffffffffffffffff16603467ffffffffffffffff16600f67ffffffffffffffff16901b831667ffffffffffffffff16901c9050919050565b6000602d67ffffffffffffffff16602d67ffffffffffffffff16607f67ffffffffffffffff16901b831667ffffffffffffffff16901c9050919050565b6000600383600f030267ffffffffffffffff168267ffffffffffffffff16901b600384600f030267ffffffffffffffff16600767ffffffffffffffff16901b1985161790509392505050565b60006007600383600f030267ffffffffffffffff168467ffffffffffffffff16901c1667ffffffffffffffff16905092915050565b6000829050600061046682610398565b9050600060016104758461035b565b039050600b67ffffffffffffffff166001820167ffffffffffffffff16146104e8576040517f08c379a00000000000000000000000000000000000000000000000000000000081526004018080602001828103825260298152602001806105486029913960400191505060405180910390fd5b505092915050565b6000602d67ffffffffffffffff168267ffffffffffffffff16901b602d67ffffffffffffffff16607f67ffffffffffffffff16901b19841617905092915050565b60008060fd83901c9150600383901b905091509156fe4f6e6c7920746865207370656369666963207265736f6c7574696f6e20697320737570706f72746564a26469706673582212206c855ceb42ca7634625749aec2fe54f741399a8355a4366a51662e550656e5ea64736f6c63430006000033",
  "source": "pragma solidity ^0.6.0;\n\nlibrary H3 {\n    /** Hardcoding a resolution */\n    uint64 constant STATIC_RESOLUTION = 11;\n\n    uint64 constant MAX_H3_RES = 15;\n\n    /** The bit offset of the base cell in an H3 index. */\n    uint64 constant H3_BC_OFFSET = 45;\n\n    /** The bit offset of the resolution in an H3 index. */\n    uint64 constant H3_RES_OFFSET = 52;\n\n    /** The number of bits in a single H3 resolution digit. */\n    uint64 constant H3_PER_DIGIT_OFFSET = 3;\n\n    /** 1's in the 7 base cell bits, 0's everywhere else. */\n    uint64 constant H3_BC_MASK = uint64(127) << H3_BC_OFFSET;\n\n    /** 1's in the 4 resolution bits, 0's everywhere else. */\n    uint64 constant H3_RES_MASK = uint64(15) << H3_RES_OFFSET;\n\n    /** 0's in the 7 base cell bits, 1's everywhere else. */\n    uint64 constant H3_BC_MASK_NEGATIVE = ~H3_BC_MASK;\n\n    /** 1's in the 3 bits of res 15 digit bits, 0's everywhere else. */\n    uint64 constant H3_DIGIT_MASK = 7;\n\n    function nextDirection(uint256 path)\n        public\n        pure\n        returns (uint256 direction, uint256 nextPath)\n    {\n        direction = (path >> (256 - 3)); // Take first 3 bits of path\n        nextPath = path << 3; // Trim direction from path\n    }\n\n    function traverse(uint64 origin, uint256 direction)\n        public\n        pure\n        returns (uint64 destination)\n    {\n        destination = origin;\n        uint64 oldBaseCell = getBaseCell(destination);\n\n        uint64 r = getResolution(destination) - 1;\n        require(\n            r + 1 == STATIC_RESOLUTION,\n            \"Only the specific resolution is supported\"\n        );\n    }\n\n    function getResolution(uint64 h3Index) public pure returns (uint64) {\n        return (h3Index & H3_RES_MASK) >> H3_RES_OFFSET;\n    }\n\n    function getBaseCell(uint64 h3Index) public pure returns (uint64) {\n        return (h3Index & H3_BC_MASK) >> H3_BC_OFFSET;\n    }\n\n    function withBaseCell(uint64 h3Index, uint64 baseCell)\n        public\n        pure\n        returns (uint64)\n    {\n        return (h3Index & H3_BC_MASK_NEGATIVE) | (baseCell << H3_BC_OFFSET);\n    }\n\n    function getIndexDigit(uint64 h3Index, uint64 res)\n        public\n        pure\n        returns (uint256)\n    {\n        return\n            (h3Index >> ((MAX_H3_RES - res) * H3_PER_DIGIT_OFFSET)) &\n            H3_DIGIT_MASK;\n    }\n\n    function withIndexDigit(\n        uint64 h3Index,\n        uint64 res,\n        uint64 digit\n    ) public pure returns (uint64) {\n        return\n            (h3Index &\n                ~(H3_DIGIT_MASK <<\n                    ((MAX_H3_RES - res) * H3_PER_DIGIT_OFFSET))) |\n            (digit << ((MAX_H3_RES - res) * H3_PER_DIGIT_OFFSET));\n    }\n}\n",
  "sourcePath": "/Users/cody/Projects/GeoWeb/core-contracts/contracts/H3.sol",
  "compiler": {
    "name": "solc",
    "version": "0.6.0+commit.26b70077.Emscripten.clang"
  },
  "schemaVersion": "3.2.5",
  "updatedAt": "2020-10-14T03:30:18.515Z",
  "devdoc": {
    "methods": {}
  },
  "userdoc": {
    "methods": {}
  }
}