{
  "_format": "hh-sol-artifact-1",
  "contractName": "GeoWebAdminERC20_v0",
  "sourceName": "contracts/GeoWebAdminERC20_v0.sol",
  "abi": [
    {
      "anonymous": false,
      "inputs": [
        {
          "indexed": true,
          "internalType": "uint256",
          "name": "_licenseId",
          "type": "uint256"
        },
        {
          "indexed": false,
          "internalType": "uint256",
          "name": "value",
          "type": "uint256"
        },
        {
          "indexed": false,
          "internalType": "uint256",
          "name": "expirationTimestamp",
          "type": "uint256"
        }
      ],
      "name": "LicenseInfoUpdated",
      "type": "event"
    },
    {
      "anonymous": false,
      "inputs": [
        {
          "indexed": true,
          "internalType": "address",
          "name": "previousOwner",
          "type": "address"
        },
        {
          "indexed": true,
          "internalType": "address",
          "name": "newOwner",
          "type": "address"
        }
      ],
      "name": "OwnershipTransferred",
      "type": "event"
    },
    {
      "inputs": [
        {
          "internalType": "uint256",
          "name": "expirationTimestamp",
          "type": "uint256"
        },
        {
          "internalType": "uint256",
          "name": "value",
          "type": "uint256"
        },
        {
          "internalType": "uint256",
          "name": "currentTime",
          "type": "uint256"
        }
      ],
      "name": "_calculateTotalBuyPrice",
      "outputs": [
        {
          "internalType": "uint256",
          "name": "",
          "type": "uint256"
        }
      ],
      "stateMutability": "view",
      "type": "function"
    },
    {
      "inputs": [
        {
          "internalType": "uint256",
          "name": "licenseId",
          "type": "uint256"
        }
      ],
      "name": "calculateTotalBuyPrice",
      "outputs": [
        {
          "internalType": "uint256",
          "name": "",
          "type": "uint256"
        }
      ],
      "stateMutability": "view",
      "type": "function"
    },
    {
      "inputs": [
        {
          "internalType": "address",
          "name": "_to",
          "type": "address"
        },
        {
          "internalType": "uint64",
          "name": "baseCoordinate",
          "type": "uint64"
        },
        {
          "internalType": "uint256[]",
          "name": "path",
          "type": "uint256[]"
        },
        {
          "internalType": "uint256",
          "name": "initialValue",
          "type": "uint256"
        },
        {
          "internalType": "uint256",
          "name": "initialFeePayment",
          "type": "uint256"
        },
        {
          "internalType": "string",
          "name": "ceramicDocId",
          "type": "string"
        }
      ],
      "name": "claim",
      "outputs": [],
      "stateMutability": "nonpayable",
      "type": "function"
    },
    {
      "inputs": [],
      "name": "dutchAuctionLengthInSeconds",
      "outputs": [
        {
          "internalType": "uint256",
          "name": "",
          "type": "uint256"
        }
      ],
      "stateMutability": "view",
      "type": "function"
    },
    {
      "inputs": [
        {
          "internalType": "uint256",
          "name": "_minInitialValue",
          "type": "uint256"
        },
        {
          "internalType": "uint256",
          "name": "_perSecondFeeNumerator",
          "type": "uint256"
        },
        {
          "internalType": "uint256",
          "name": "_perSecondFeeDenominator",
          "type": "uint256"
        },
        {
          "internalType": "uint256",
          "name": "_dutchAuctionLengthInSeconds",
          "type": "uint256"
        }
      ],
      "name": "initialize",
      "outputs": [],
      "stateMutability": "nonpayable",
      "type": "function"
    },
    {
      "inputs": [
        {
          "internalType": "address",
          "name": "paymentTokenContractAddress",
          "type": "address"
        },
        {
          "internalType": "uint256",
          "name": "_minInitialValue",
          "type": "uint256"
        },
        {
          "internalType": "uint256",
          "name": "_perSecondFeeNumerator",
          "type": "uint256"
        },
        {
          "internalType": "uint256",
          "name": "_perSecondFeeDenominator",
          "type": "uint256"
        },
        {
          "internalType": "uint256",
          "name": "_dutchAuctionLengthInSeconds",
          "type": "uint256"
        }
      ],
      "name": "initialize",
      "outputs": [],
      "stateMutability": "nonpayable",
      "type": "function"
    },
    {
      "inputs": [],
      "name": "licenseContract",
      "outputs": [
        {
          "internalType": "contract ERC721License",
          "name": "",
          "type": "address"
        }
      ],
      "stateMutability": "view",
      "type": "function"
    },
    {
      "inputs": [
        {
          "internalType": "uint256",
          "name": "",
          "type": "uint256"
        }
      ],
      "name": "licenseInfo",
      "outputs": [
        {
          "internalType": "uint256",
          "name": "value",
          "type": "uint256"
        },
        {
          "internalType": "uint256",
          "name": "expirationTimestamp",
          "type": "uint256"
        }
      ],
      "stateMutability": "view",
      "type": "function"
    },
    {
      "inputs": [],
      "name": "minInitialValue",
      "outputs": [
        {
          "internalType": "uint256",
          "name": "",
          "type": "uint256"
        }
      ],
      "stateMutability": "view",
      "type": "function"
    },
    {
      "inputs": [],
      "name": "owner",
      "outputs": [
        {
          "internalType": "address",
          "name": "",
          "type": "address"
        }
      ],
      "stateMutability": "view",
      "type": "function"
    },
    {
      "inputs": [],
      "name": "parcelContract",
      "outputs": [
        {
          "internalType": "contract GeoWebParcel",
          "name": "",
          "type": "address"
        }
      ],
      "stateMutability": "view",
      "type": "function"
    },
    {
      "inputs": [],
      "name": "paymentTokenContract",
      "outputs": [
        {
          "internalType": "contract IERC20",
          "name": "",
          "type": "address"
        }
      ],
      "stateMutability": "view",
      "type": "function"
    },
    {
      "inputs": [],
      "name": "perSecondFeeDenominator",
      "outputs": [
        {
          "internalType": "uint256",
          "name": "",
          "type": "uint256"
        }
      ],
      "stateMutability": "view",
      "type": "function"
    },
    {
      "inputs": [],
      "name": "perSecondFeeNumerator",
      "outputs": [
        {
          "internalType": "uint256",
          "name": "",
          "type": "uint256"
        }
      ],
      "stateMutability": "view",
      "type": "function"
    },
    {
      "inputs": [
        {
          "internalType": "uint256",
          "name": "licenseId",
          "type": "uint256"
        },
        {
          "internalType": "uint256",
          "name": "maxPurchasePrice",
          "type": "uint256"
        },
        {
          "internalType": "uint256",
          "name": "newValue",
          "type": "uint256"
        },
        {
          "internalType": "uint256",
          "name": "additionalFeePayment",
          "type": "uint256"
        },
        {
          "internalType": "string",
          "name": "ceramicDocId",
          "type": "string"
        }
      ],
      "name": "purchaseLicense",
      "outputs": [],
      "stateMutability": "nonpayable",
      "type": "function"
    },
    {
      "inputs": [],
      "name": "renounceOwnership",
      "outputs": [],
      "stateMutability": "nonpayable",
      "type": "function"
    },
    {
      "inputs": [
        {
          "internalType": "uint256",
          "name": "_dutchAuctionLengthInSeconds",
          "type": "uint256"
        }
      ],
      "name": "setDutchAuctionLength",
      "outputs": [],
      "stateMutability": "nonpayable",
      "type": "function"
    },
    {
      "inputs": [
        {
          "internalType": "address",
          "name": "licenseContractAddress",
          "type": "address"
        }
      ],
      "name": "setLicenseContract",
      "outputs": [],
      "stateMutability": "nonpayable",
      "type": "function"
    },
    {
      "inputs": [
        {
          "internalType": "uint256",
          "name": "_minInitialValue",
          "type": "uint256"
        }
      ],
      "name": "setMinInitialValue",
      "outputs": [],
      "stateMutability": "nonpayable",
      "type": "function"
    },
    {
      "inputs": [
        {
          "internalType": "address",
          "name": "parcelContractAddress",
          "type": "address"
        }
      ],
      "name": "setParcelContract",
      "outputs": [],
      "stateMutability": "nonpayable",
      "type": "function"
    },
    {
      "inputs": [
        {
          "internalType": "address",
          "name": "newOwner",
          "type": "address"
        }
      ],
      "name": "transferOwnership",
      "outputs": [],
      "stateMutability": "nonpayable",
      "type": "function"
    },
    {
      "inputs": [
        {
          "internalType": "uint256",
          "name": "licenseId",
          "type": "uint256"
        },
        {
          "internalType": "uint256",
          "name": "newValue",
          "type": "uint256"
        },
        {
          "internalType": "uint256",
          "name": "additionalFeePayment",
          "type": "uint256"
        }
      ],
      "name": "updateValue",
      "outputs": [],
      "stateMutability": "nonpayable",
      "type": "function"
    }
  ],
  "bytecode": "0x608060405234801561001057600080fd5b50611c81806100206000396000f3fe608060405234801561001057600080fd5b50600436106101415760003560e01c8063870f987d116100b8578063ce88e7951161007c578063ce88e79514610437578063d274491a1461043f578063e2c52b9d1461045c578063f2fde38b14610464578063f757f9291461048a578063f92ad219146104b357610141565b8063870f987d146102f75780638da5cb5b146103e4578063935cc61d146103ec5780639ae3aff8146103f4578063b7f0146b1461041a57610141565b806351edd5b51161010a57806351edd5b5146101df5780635abb3371146101e757806360a2da44146102715780636a109a07146102a0578063715018a6146102c6578063865af891146102ce57610141565b806279c6e914610146578063020314bd1461016057806309465cea146101845780631e084558146101a15780634dcffde0146101d7575b600080fd5b61014e6104f1565b60408051918252519081900360200190f35b6101686104f7565b604080516001600160a01b039092168252519081900360200190f35b61014e6004803603602081101561019a57600080fd5b5035610506565b6101be600480360360208110156101b757600080fd5b503561052d565b6040805192835260208301919091528051918290030190f35b610168610546565b61014e610555565b61026f600480360360a08110156101fd57600080fd5b81359160208101359160408201359160608101359181019060a08101608082013564010000000081111561023057600080fd5b82018360208201111561024257600080fd5b8035906020019184600183028401116401000000008311171561026457600080fd5b50909250905061055b565b005b61026f6004803603608081101561028757600080fd5b50803590602081013590604081013590606001356105f3565b61026f600480360360208110156102b657600080fd5b50356001600160a01b03166106b5565b61026f61072f565b61026f600480360360608110156102e457600080fd5b50803590602081013590604001356107d1565b61026f600480360360c081101561030d57600080fd5b6001600160a01b038235169167ffffffffffffffff6020820135169181019060608101604082013564010000000081111561034757600080fd5b82018360208201111561035957600080fd5b8035906020019184602083028401116401000000008311171561037b57600080fd5b9193909282359260208101359291906060810190604001356401000000008111156103a557600080fd5b8201836020820111156103b757600080fd5b803590602001918460018302840111640100000000831117156103d957600080fd5b50909250905061089f565b61016861091f565b61014e61092e565b61026f6004803603602081101561040a57600080fd5b50356001600160a01b0316610934565b61026f6004803603602081101561043057600080fd5b50356109ae565b61014e610a0b565b61026f6004803603602081101561045557600080fd5b5035610a11565b610168610a6e565b61026f6004803603602081101561047a57600080fd5b50356001600160a01b0316610a7d565b61014e600480360360608110156104a057600080fd5b5080359060208101359060400135610b76565b61026f600480360360a08110156104c957600080fd5b506001600160a01b038135169060208101359060408101359060608101359060800135610c4e565b60685481565b6066546001600160a01b031681565b6000818152606b6020526040812060018101548154610526919042610b76565b9392505050565b606b602052600090815260409020805460019091015482565b606c546001600160a01b031681565b606a5481565b600061056687610506565b9050858111156105a75760405162461bcd60e51b8152600401808060200182810382526050815260200180611b9a6050913960600191505060405180910390fd5b6105ea8782878787878080601f016020809104026020016040519081016040528093929190818152602001838380828437600092019190915250610d1c92505050565b50505050505050565b600054610100900460ff168061060c575061060c610f65565b8061061a575060005460ff16155b6106555760405162461bcd60e51b815260040180806020018281038252602e815260200180611ac8602e913960400191505060405180910390fd5b600054610100900460ff16158015610680576000805460ff1961ff0019909116610100171660011790555b610688610f6b565b606785905560688490556069839055606a82905580156106ae576000805461ff00191690555b5050505050565b6106bd61101d565b6033546001600160a01b0390811691161461070d576040805162461bcd60e51b81526020600482018190526024820152600080516020611b47833981519152604482015290519081900360640190fd5b606680546001600160a01b0319166001600160a01b0392909216919091179055565b61073761101d565b6033546001600160a01b03908116911614610787576040805162461bcd60e51b81526020600482018190526024820152600080516020611b47833981519152604482015290519081900360640190fd5b6033546040516000916001600160a01b0316907f8be0079c531659141344cd1fd0a4f28419497f9722a3daafe3b4186f6b6457e0908390a3603380546001600160a01b0319169055565b606554604080516331a9108f60e11b815260048101869052905185926001600160a01b031691636352211e916024808301926020929190829003018186803b15801561081c57600080fd5b505afa158015610830573d6000803e3d6000fd5b505050506040513d602081101561084657600080fd5b50516001600160a01b0316331461088e5760405162461bcd60e51b815260040180806020018281038252602e815260200180611a9a602e913960400191505060405180910390fd5b610899848484611021565b50505050565b610915888888888080602002602001604051908101604052809392919081815260200183836020028082843760009201919091525050604080516020601f8a018190048102820181019092528881528b93508a925090899089908190840183828082843760009201919091525061103192505050565b5050505050505050565b6033546001600160a01b031690565b60695481565b61093c61101d565b6033546001600160a01b0390811691161461098c576040805162461bcd60e51b81526020600482018190526024820152600080516020611b47833981519152604482015290519081900360640190fd5b606580546001600160a01b0319166001600160a01b0392909216919091179055565b6109b661101d565b6033546001600160a01b03908116911614610a06576040805162461bcd60e51b81526020600482018190526024820152600080516020611b47833981519152604482015290519081900360640190fd5b606a55565b60675481565b610a1961101d565b6033546001600160a01b03908116911614610a69576040805162461bcd60e51b81526020600482018190526024820152600080516020611b47833981519152604482015290519081900360640190fd5b606755565b6065546001600160a01b031681565b610a8561101d565b6033546001600160a01b03908116911614610ad5576040805162461bcd60e51b81526020600482018190526024820152600080516020611b47833981519152604482015290519081900360640190fd5b6001600160a01b038116610b1a5760405162461bcd60e51b8152600401808060200182810382526026815260200180611a746026913960400191505060405180910390fd5b6033546040516001600160a01b038084169216907f8be0079c531659141344cd1fd0a4f28419497f9722a3daafe3b4186f6b6457e090600090a3603380546001600160a01b0319166001600160a01b0392909216919091179055565b600081841015610be9576000610b92838663ffffffff61136816565b9050606a54811115610ba8576000915050610526565b606a54600090610bce90610bc2878563ffffffff6113b316565b9063ffffffff61140c16565b9050610be0858263ffffffff61136816565b92505050610526565b6000610bfb858463ffffffff61136816565b90506000610c1a606954610bc2606854886113b390919063ffffffff16565b90506000610c2e838363ffffffff6113b316565b90506000610c42878363ffffffff61144e16565b94506105269350505050565b600054610100900460ff1680610c675750610c67610f65565b80610c75575060005460ff16155b610cb05760405162461bcd60e51b815260040180806020018281038252602e815260200180611ac8602e913960400191505060405180910390fd5b600054610100900460ff16158015610cdb576000805460ff1961ff0019909116610100171660011790555b610ce7858585856105f3565b606c80546001600160a01b0319166001600160a01b0388161790558015610d14576000805461ff00191690555b505050505050565b606554604080516331a9108f60e11b8152600481018890529051610d9b926001600160a01b031691636352211e916024808301926020929190829003018186803b158015610d6957600080fd5b505afa158015610d7d573d6000803e3d6000fd5b505050506040513d6020811015610d9357600080fd5b5051856114a8565b606554604080516331a9108f60e11b81526004810188905290516001600160a01b03909216916323b872dd918391636352211e91602480820192602092909190829003018186803b158015610def57600080fd5b505afa158015610e03573d6000803e3d6000fd5b505050506040513d6020811015610e1957600080fd5b5051604080516001600160e01b031960e085901b1681526001600160a01b0390921660048301523360248301526044820189905251606480830192600092919082900301818387803b158015610e6e57600080fd5b505af1158015610e82573d6000803e3d6000fd5b50505050610e9185848461152e565b6065546040805163b3789e0960e01b815260048101888152602482019283528451604483015284516001600160a01b039094169363b3789e09938a93879392606490910190602085019080838360005b83811015610ef9578181015183820152602001610ee1565b50505050905090810190601f168015610f265780820380516001836020036101000a031916815260200191505b509350505050600060405180830381600087803b158015610f4657600080fd5b505af1158015610f5a573d6000803e3d6000fd5b505050505050505050565b303b1590565b600054610100900460ff1680610f845750610f84610f65565b80610f92575060005460ff16155b610fcd5760405162461bcd60e51b815260040180806020018281038252602e815260200180611ac8602e913960400191505060405180910390fd5b600054610100900460ff16158015610ff8576000805460ff1961ff0019909116610100171660011790555b6110006116f1565b611008611791565b801561101a576000805461ff00191690555b50565b3390565b61102c83838361152e565b505050565b6067548310156110725760405162461bcd60e51b8152600401808060200182810382526033815260200180611b676033913960400191505060405180910390fd5b600061108f606954610bc2606854876113b390919063ffffffff16565b905060006110b3426110a7868563ffffffff61140c16565b9063ffffffff61144e16565b90506301e133806110ca824263ffffffff61136816565b10156111075760405162461bcd60e51b8152600401808060200182810382526033815260200180611bea6033913960400191505060405180910390fd5b6303c2670061111c824263ffffffff61136816565b11156111595760405162461bcd60e51b8152600401808060200182810382526040815260200180611a346040913960400191505060405180910390fd5b6111628461188a565b6066546040805163501c1c7160e11b815267ffffffffffffffff8a1660048201908152602482019283528951604483015289516000946001600160a01b03169363a03838e2938d938d9390929160640190602080860191028083838c5b838110156111d75781810151838201526020016111bf565b505050509050019350505050602060405180830381600087803b1580156111fd57600080fd5b505af1158015611211573d6000803e3d6000fd5b505050506040513d602081101561122757600080fd5b505160655460405163f18bce5b60e01b81526001600160a01b038c81166004830190815260248301859052606060448401908152895160648501528951959650919093169363f18bce5b938e9387938b93909160840190602085019080838360005b838110156112a1578181015183820152602001611289565b50505050905090810190601f1680156112ce5780820380516001836020036101000a031916815260200191505b50945050505050600060405180830381600087803b1580156112ef57600080fd5b505af1158015611303573d6000803e3d6000fd5b5050506000828152606b60209081526040918290208981556001810186905582518a8152918201869052825190935084927feb7500f54b92978cf4c7f143f3b6dd72aace556e25e03ca5939ea4a14cf9d0aa928290030190a250505050505050505050565b60006113aa83836040518060400160405280601e81526020017f536166654d6174683a207375627472616374696f6e206f766572666c6f770000815250611937565b90505b92915050565b6000826113c2575060006113ad565b828202828482816113cf57fe5b04146113aa5760405162461bcd60e51b8152600401808060200182810382526021815260200180611b266021913960400191505060405180910390fd5b60006113aa83836040518060400160405280601a81526020017f536166654d6174683a206469766973696f6e206279207a65726f0000000000008152506119ce565b6000828201838110156113aa576040805162461bcd60e51b815260206004820152601b60248201527f536166654d6174683a206164646974696f6e206f766572666c6f770000000000604482015290519081900360640190fd5b606c54604080516323b872dd60e01b81523360048201526001600160a01b03858116602483015260448201859052915191909216916323b872dd9160648083019260209291908290030181600087803b15801561150457600080fd5b505af1158015611518573d6000803e3d6000fd5b505050506040513d602081101561089957600080fd5b60675482101561156f5760405162461bcd60e51b815260040180806020018281038252602f815260200180611c1d602f913960400191505060405180910390fd5b6000838152606b6020526040812060018101549091904210156115a85760018201546115a1904263ffffffff61136816565b90506115ac565b5060005b60006115c985610bc28560000154856113b390919063ffffffff16565b905060006115e8606954610bc2606854896113b390919063ffffffff16565b905060006115fc868363ffffffff61140c16565b90506000611614426110a7868563ffffffff61144e16565b90506201518061162a824263ffffffff61136816565b10156116675760405162461bcd60e51b8152600401808060200182810382526030815260200180611af66030913960400191505060405180910390fd5b6303c2670061167c824263ffffffff61136816565b111561169957611696426303c2670063ffffffff61144e16565b90505b6116a28761188a565b87865560018601819055604080518981526020810183905281518b927feb7500f54b92978cf4c7f143f3b6dd72aace556e25e03ca5939ea4a14cf9d0aa928290030190a2505050505050505050565b600054610100900460ff168061170a575061170a610f65565b80611718575060005460ff16155b6117535760405162461bcd60e51b815260040180806020018281038252602e815260200180611ac8602e913960400191505060405180910390fd5b600054610100900460ff16158015611008576000805460ff1961ff001990911661010017166001179055801561101a576000805461ff001916905550565b600054610100900460ff16806117aa57506117aa610f65565b806117b8575060005460ff16155b6117f35760405162461bcd60e51b815260040180806020018281038252602e815260200180611ac8602e913960400191505060405180910390fd5b600054610100900460ff1615801561181e576000805460ff1961ff0019909116610100171660011790555b600061182861101d565b603380546001600160a01b0319166001600160a01b038316908117909155604051919250906000907f8be0079c531659141344cd1fd0a4f28419497f9722a3daafe3b4186f6b6457e0908290a350801561101a576000805461ff001916905550565b606c546001600160a01b03166323b872dd336118a461091f565b846040518463ffffffff1660e01b815260040180846001600160a01b03166001600160a01b03168152602001836001600160a01b03166001600160a01b031681526020018281526020019350505050602060405180830381600087803b15801561190d57600080fd5b505af1158015611921573d6000803e3d6000fd5b505050506040513d602081101561102c57600080fd5b600081848411156119c65760405162461bcd60e51b81526004018080602001828103825283818151815260200191508051906020019080838360005b8381101561198b578181015183820152602001611973565b50505050905090810190601f1680156119b85780820380516001836020036101000a031916815260200191505b509250505060405180910390fd5b505050900390565b60008183611a1d5760405162461bcd60e51b815260206004820181815283516024840152835190928392604490910191908501908083836000831561198b578181015183820152602001611973565b506000838581611a2957fe5b049594505050505056fe526573756c74696e672065787069726174696f6e2064617465206d757374206265206c657373207468616e206f7220657175616c20746f2037333020646179734f776e61626c653a206e6577206f776e657220697320746865207a65726f20616464726573734f6e6c7920686f6c646572206f66206c6963656e73652063616e2063616c6c20746869732066756e6374696f6e2e496e697469616c697a61626c653a20636f6e747261637420697320616c726561647920696e697469616c697a6564526573756c74696e672065787069726174696f6e2064617465206d757374206265206174206c65617374203120646179536166654d6174683a206d756c7469706c69636174696f6e206f766572666c6f774f776e61626c653a2063616c6c6572206973206e6f7420746865206f776e6572496e697469616c2076616c7565206d757374206265203e3d20746865207265717569726564206d696e696d756d2076616c756543757272656e74206c6963656e736520666f722073616c65207072696365202b2063757272656e74206665652062616c616e63652069732061626f7665206d6178207075726368617365207072696365526573756c74696e672065787069726174696f6e2064617465206d757374206265206174206c656173742033363520646179734e65772076616c7565206d757374206265203e3d20746865207265717569726564206d696e696d756d2076616c7565a26469706673582212204454406fda5fc63280ea6f12400c9ec83b96caacb8bb5f733bbe40afea4c104c64736f6c63430006020033",
  "linkReferences": {},
  "deployedLinkReferences": {}
}