{
  "_format": "hh-sol-artifact-1",
  "contractName": "GeoWebAdminERC20_v0",
  "sourceName": "contracts/GeoWebAdminERC20_v0.sol",
  "abi": [
    {
      "anonymous": false,
      "inputs": [
        {
          "indexed": true,
          "internalType": "uint256",
          "name": "_licenseId",
          "type": "uint256"
        },
        {
          "indexed": false,
          "internalType": "uint256",
          "name": "value",
          "type": "uint256"
        },
        {
          "indexed": false,
          "internalType": "uint256",
          "name": "expirationTimestamp",
          "type": "uint256"
        }
      ],
      "name": "LicenseInfoUpdated",
      "type": "event"
    },
    {
      "anonymous": false,
      "inputs": [
        {
          "indexed": true,
          "internalType": "address",
          "name": "previousOwner",
          "type": "address"
        },
        {
          "indexed": true,
          "internalType": "address",
          "name": "newOwner",
          "type": "address"
        }
      ],
      "name": "OwnershipTransferred",
      "type": "event"
    },
    {
      "inputs": [
        {
          "internalType": "uint256",
          "name": "expirationTimestamp",
          "type": "uint256"
        },
        {
          "internalType": "uint256",
          "name": "value",
          "type": "uint256"
        },
        {
          "internalType": "uint256",
          "name": "currentTime",
          "type": "uint256"
        }
      ],
      "name": "_calculateTotalBuyPrice",
      "outputs": [
        {
          "internalType": "uint256",
          "name": "",
          "type": "uint256"
        }
      ],
      "stateMutability": "view",
      "type": "function"
    },
    {
      "inputs": [
        {
          "internalType": "uint256",
          "name": "licenseId",
          "type": "uint256"
        }
      ],
      "name": "calculateTotalBuyPrice",
      "outputs": [
        {
          "internalType": "uint256",
          "name": "",
          "type": "uint256"
        }
      ],
      "stateMutability": "view",
      "type": "function"
    },
    {
      "inputs": [
        {
          "internalType": "address",
          "name": "_to",
          "type": "address"
        },
        {
          "internalType": "uint64",
          "name": "baseCoordinate",
          "type": "uint64"
        },
        {
          "internalType": "uint256[]",
          "name": "path",
          "type": "uint256[]"
        },
        {
          "internalType": "uint256",
          "name": "initialValue",
          "type": "uint256"
        },
        {
          "internalType": "uint256",
          "name": "initialFeePayment",
          "type": "uint256"
        },
        {
          "internalType": "string",
          "name": "ceramicDocId",
          "type": "string"
        }
      ],
      "name": "claim",
      "outputs": [],
      "stateMutability": "nonpayable",
      "type": "function"
    },
    {
      "inputs": [],
      "name": "dutchAuctionLengthInSeconds",
      "outputs": [
        {
          "internalType": "uint256",
          "name": "",
          "type": "uint256"
        }
      ],
      "stateMutability": "view",
      "type": "function"
    },
    {
      "inputs": [
        {
          "internalType": "uint256",
          "name": "_minInitialValue",
          "type": "uint256"
        },
        {
          "internalType": "uint256",
          "name": "_perSecondFeeNumerator",
          "type": "uint256"
        },
        {
          "internalType": "uint256",
          "name": "_perSecondFeeDenominator",
          "type": "uint256"
        },
        {
          "internalType": "uint256",
          "name": "_dutchAuctionLengthInSeconds",
          "type": "uint256"
        }
      ],
      "name": "initialize",
      "outputs": [],
      "stateMutability": "nonpayable",
      "type": "function"
    },
    {
      "inputs": [
        {
          "internalType": "address",
          "name": "paymentTokenContractAddress",
          "type": "address"
        },
        {
          "internalType": "uint256",
          "name": "_minInitialValue",
          "type": "uint256"
        },
        {
          "internalType": "uint256",
          "name": "_perSecondFeeNumerator",
          "type": "uint256"
        },
        {
          "internalType": "uint256",
          "name": "_perSecondFeeDenominator",
          "type": "uint256"
        },
        {
          "internalType": "uint256",
          "name": "_dutchAuctionLengthInSeconds",
          "type": "uint256"
        }
      ],
      "name": "initialize",
      "outputs": [],
      "stateMutability": "nonpayable",
      "type": "function"
    },
    {
      "inputs": [],
      "name": "licenseContract",
      "outputs": [
        {
          "internalType": "contract ERC721License",
          "name": "",
          "type": "address"
        }
      ],
      "stateMutability": "view",
      "type": "function"
    },
    {
      "inputs": [
        {
          "internalType": "uint256",
          "name": "",
          "type": "uint256"
        }
      ],
      "name": "licenseInfo",
      "outputs": [
        {
          "internalType": "uint256",
          "name": "value",
          "type": "uint256"
        },
        {
          "internalType": "uint256",
          "name": "expirationTimestamp",
          "type": "uint256"
        }
      ],
      "stateMutability": "view",
      "type": "function"
    },
    {
      "inputs": [],
      "name": "minInitialValue",
      "outputs": [
        {
          "internalType": "uint256",
          "name": "",
          "type": "uint256"
        }
      ],
      "stateMutability": "view",
      "type": "function"
    },
    {
      "inputs": [],
      "name": "owner",
      "outputs": [
        {
          "internalType": "address",
          "name": "",
          "type": "address"
        }
      ],
      "stateMutability": "view",
      "type": "function"
    },
    {
      "inputs": [],
      "name": "parcelContract",
      "outputs": [
        {
          "internalType": "contract GeoWebParcel",
          "name": "",
          "type": "address"
        }
      ],
      "stateMutability": "view",
      "type": "function"
    },
    {
      "inputs": [],
      "name": "paymentTokenContract",
      "outputs": [
        {
          "internalType": "contract IERC20",
          "name": "",
          "type": "address"
        }
      ],
      "stateMutability": "view",
      "type": "function"
    },
    {
      "inputs": [],
      "name": "perSecondFeeDenominator",
      "outputs": [
        {
          "internalType": "uint256",
          "name": "",
          "type": "uint256"
        }
      ],
      "stateMutability": "view",
      "type": "function"
    },
    {
      "inputs": [],
      "name": "perSecondFeeNumerator",
      "outputs": [
        {
          "internalType": "uint256",
          "name": "",
          "type": "uint256"
        }
      ],
      "stateMutability": "view",
      "type": "function"
    },
    {
      "inputs": [
        {
          "internalType": "uint256",
          "name": "licenseId",
          "type": "uint256"
        },
        {
          "internalType": "uint256",
          "name": "maxPurchasePrice",
          "type": "uint256"
        },
        {
          "internalType": "uint256",
          "name": "newValue",
          "type": "uint256"
        },
        {
          "internalType": "uint256",
          "name": "additionalFeePayment",
          "type": "uint256"
        },
        {
          "internalType": "string",
          "name": "ceramicDocId",
          "type": "string"
        }
      ],
      "name": "purchaseLicense",
      "outputs": [],
      "stateMutability": "nonpayable",
      "type": "function"
    },
    {
      "inputs": [],
      "name": "renounceOwnership",
      "outputs": [],
      "stateMutability": "nonpayable",
      "type": "function"
    },
    {
      "inputs": [
        {
          "internalType": "uint256",
          "name": "_dutchAuctionLengthInSeconds",
          "type": "uint256"
        }
      ],
      "name": "setDutchAuctionLength",
      "outputs": [],
      "stateMutability": "nonpayable",
      "type": "function"
    },
    {
      "inputs": [
        {
          "internalType": "address",
          "name": "licenseContractAddress",
          "type": "address"
        }
      ],
      "name": "setLicenseContract",
      "outputs": [],
      "stateMutability": "nonpayable",
      "type": "function"
    },
    {
      "inputs": [
        {
          "internalType": "uint256",
          "name": "_minInitialValue",
          "type": "uint256"
        }
      ],
      "name": "setMinInitialValue",
      "outputs": [],
      "stateMutability": "nonpayable",
      "type": "function"
    },
    {
      "inputs": [
        {
          "internalType": "address",
          "name": "parcelContractAddress",
          "type": "address"
        }
      ],
      "name": "setParcelContract",
      "outputs": [],
      "stateMutability": "nonpayable",
      "type": "function"
    },
    {
      "inputs": [
        {
          "internalType": "address",
          "name": "newOwner",
          "type": "address"
        }
      ],
      "name": "transferOwnership",
      "outputs": [],
      "stateMutability": "nonpayable",
      "type": "function"
    },
    {
      "inputs": [
        {
          "internalType": "uint256",
          "name": "licenseId",
          "type": "uint256"
        },
        {
          "internalType": "uint256",
          "name": "newValue",
          "type": "uint256"
        },
        {
          "internalType": "uint256",
          "name": "additionalFeePayment",
          "type": "uint256"
        }
      ],
      "name": "updateValue",
      "outputs": [],
      "stateMutability": "nonpayable",
      "type": "function"
    }
  ],
  "bytecode": "0x608060405234801561001057600080fd5b50612b9e806100206000396000f3fe608060405234801561001057600080fd5b50600436106101415760003560e01c8063870f987d116100b8578063ce88e7951161007c578063ce88e7951461060e578063d274491a1461062c578063e2c52b9d1461065a578063f2fde38b146106a4578063f757f929146106e8578063f92ad2191461073e57610141565b8063870f987d1461041e5780638da5cb5b14610534578063935cc61d1461057e5780639ae3aff81461059c578063b7f0146b146105e057610141565b806351edd5b51161010a57806351edd5b5146102835780635abb3371146102a157806360a2da44146103425780636a109a071461038e578063715018a6146103d2578063865af891146103dc57610141565b806279c6e914610146578063020314bd1461016457806309465cea146101ae5780631e084558146101f05780634dcffde014610239575b600080fd5b61014e6107aa565b6040518082815260200191505060405180910390f35b61016c6107b0565b604051808273ffffffffffffffffffffffffffffffffffffffff1673ffffffffffffffffffffffffffffffffffffffff16815260200191505060405180910390f35b6101da600480360360208110156101c457600080fd5b81019080803590602001909291905050506107d6565b6040518082815260200191505060405180910390f35b61021c6004803603602081101561020657600080fd5b8101908080359060200190929190505050610809565b604051808381526020018281526020019250505060405180910390f35b61024161082d565b604051808273ffffffffffffffffffffffffffffffffffffffff1673ffffffffffffffffffffffffffffffffffffffff16815260200191505060405180910390f35b61028b610853565b6040518082815260200191505060405180910390f35b610340600480360360a08110156102b757600080fd5b8101908080359060200190929190803590602001909291908035906020019092919080359060200190929190803590602001906401000000008111156102fc57600080fd5b82018360208201111561030e57600080fd5b8035906020019184600183028401116401000000008311171561033057600080fd5b9091929391929390505050610859565b005b61038c6004803603608081101561035857600080fd5b8101908080359060200190929190803590602001909291908035906020019092919080359060200190929190505050610919565b005b6103d0600480360360208110156103a457600080fd5b81019080803573ffffffffffffffffffffffffffffffffffffffff169060200190929190505050610a40565b005b6103da610b4e565b005b61041c600480360360608110156103f257600080fd5b81019080803590602001909291908035906020019092919080359060200190929190505050610cd9565b005b610532600480360360c081101561043457600080fd5b81019080803573ffffffffffffffffffffffffffffffffffffffff169060200190929190803567ffffffffffffffff1690602001909291908035906020019064010000000081111561048557600080fd5b82018360208201111561049757600080fd5b803590602001918460208302840111640100000000831117156104b957600080fd5b90919293919293908035906020019092919080359060200190929190803590602001906401000000008111156104ee57600080fd5b82018360208201111561050057600080fd5b8035906020019184600183028401116401000000008311171561052257600080fd5b9091929391929390505050610e1c565b005b61053c610eb9565b604051808273ffffffffffffffffffffffffffffffffffffffff1673ffffffffffffffffffffffffffffffffffffffff16815260200191505060405180910390f35b610586610ee3565b6040518082815260200191505060405180910390f35b6105de600480360360208110156105b257600080fd5b81019080803573ffffffffffffffffffffffffffffffffffffffff169060200190929190505050610ee9565b005b61060c600480360360208110156105f657600080fd5b8101908080359060200190929190505050610ff7565b005b6106166110cb565b6040518082815260200191505060405180910390f35b6106586004803603602081101561064257600080fd5b81019080803590602001909291905050506110d1565b005b6106626111a5565b604051808273ffffffffffffffffffffffffffffffffffffffff1673ffffffffffffffffffffffffffffffffffffffff16815260200191505060405180910390f35b6106e6600480360360208110156106ba57600080fd5b81019080803573ffffffffffffffffffffffffffffffffffffffff1690602001909291905050506111cb565b005b610728600480360360608110156106fe57600080fd5b810190808035906020019092919080359060200190929190803590602001909291905050506113db565b6040518082815260200191505060405180910390f35b6107a8600480360360a081101561075457600080fd5b81019080803573ffffffffffffffffffffffffffffffffffffffff169060200190929190803590602001909291908035906020019092919080359060200190929190803590602001909291905050506114d8565b005b60685481565b606660009054906101000a900473ffffffffffffffffffffffffffffffffffffffff1681565b600080606b6000848152602001908152602001600020905061080181600101548260000154426113db565b915050919050565b606b6020528060005260406000206000915090508060000154908060010154905082565b606c60009054906101000a900473ffffffffffffffffffffffffffffffffffffffff1681565b606a5481565b6000610864876107d6565b9050858111156108bf576040517f08c379a0000000000000000000000000000000000000000000000000000000008152600401808060200182810382526050815260200180612ab76050913960600191505060405180910390fd5b6109108782878787878080601f016020809104026020016040519081016040528093929190818152602001838380828437600081840152601f19601f82011690508083019250505050505050611629565b50505050505050565b600060019054906101000a900460ff1680610938575061093761198e565b5b8061094f57506000809054906101000a900460ff16155b6109a4576040517f08c379a000000000000000000000000000000000000000000000000000000000815260040180806020018281038252602e815260200180612a05602e913960400191505060405180910390fd5b60008060019054906101000a900460ff1615905080156109f4576001600060016101000a81548160ff02191690831515021790555060016000806101000a81548160ff0219169083151502179055505b6109fc6119a5565b84606781905550836068819055508260698190555081606a819055508015610a395760008060016101000a81548160ff0219169083151502179055505b5050505050565b610a48611ab4565b73ffffffffffffffffffffffffffffffffffffffff16603360009054906101000a900473ffffffffffffffffffffffffffffffffffffffff1673ffffffffffffffffffffffffffffffffffffffff1614610b0a576040517f08c379a00000000000000000000000000000000000000000000000000000000081526004018080602001828103825260208152602001807f4f776e61626c653a2063616c6c6572206973206e6f7420746865206f776e657281525060200191505060405180910390fd5b80606660006101000a81548173ffffffffffffffffffffffffffffffffffffffff021916908373ffffffffffffffffffffffffffffffffffffffff16021790555050565b610b56611ab4565b73ffffffffffffffffffffffffffffffffffffffff16603360009054906101000a900473ffffffffffffffffffffffffffffffffffffffff1673ffffffffffffffffffffffffffffffffffffffff1614610c18576040517f08c379a00000000000000000000000000000000000000000000000000000000081526004018080602001828103825260208152602001807f4f776e61626c653a2063616c6c6572206973206e6f7420746865206f776e657281525060200191505060405180910390fd5b600073ffffffffffffffffffffffffffffffffffffffff16603360009054906101000a900473ffffffffffffffffffffffffffffffffffffffff1673ffffffffffffffffffffffffffffffffffffffff167f8be0079c531659141344cd1fd0a4f28419497f9722a3daafe3b4186f6b6457e060405160405180910390a36000603360006101000a81548173ffffffffffffffffffffffffffffffffffffffff021916908373ffffffffffffffffffffffffffffffffffffffff160217905550565b82606560009054906101000a900473ffffffffffffffffffffffffffffffffffffffff1673ffffffffffffffffffffffffffffffffffffffff16636352211e826040518263ffffffff1660e01b81526004018082815260200191505060206040518083038186803b158015610d4d57600080fd5b505afa158015610d61573d6000803e3d6000fd5b505050506040513d6020811015610d7757600080fd5b810190808051906020019092919050505073ffffffffffffffffffffffffffffffffffffffff163373ffffffffffffffffffffffffffffffffffffffff1614610e0b576040517f08c379a000000000000000000000000000000000000000000000000000000000815260040180806020018281038252602e8152602001806129d7602e913960400191505060405180910390fd5b610e16848484611abc565b50505050565b610eaf8888888880806020026020016040519081016040528093929190818152602001838360200280828437600081840152601f19601f82011690508083019250505050505050878787878080601f016020809104026020016040519081016040528093929190818152602001838380828437600081840152601f19601f82011690508083019250505050505050611acc565b5050505050505050565b6000603360009054906101000a900473ffffffffffffffffffffffffffffffffffffffff16905090565b60695481565b610ef1611ab4565b73ffffffffffffffffffffffffffffffffffffffff16603360009054906101000a900473ffffffffffffffffffffffffffffffffffffffff1673ffffffffffffffffffffffffffffffffffffffff1614610fb3576040517f08c379a00000000000000000000000000000000000000000000000000000000081526004018080602001828103825260208152602001807f4f776e61626c653a2063616c6c6572206973206e6f7420746865206f776e657281525060200191505060405180910390fd5b80606560006101000a81548173ffffffffffffffffffffffffffffffffffffffff021916908373ffffffffffffffffffffffffffffffffffffffff16021790555050565b610fff611ab4565b73ffffffffffffffffffffffffffffffffffffffff16603360009054906101000a900473ffffffffffffffffffffffffffffffffffffffff1673ffffffffffffffffffffffffffffffffffffffff16146110c1576040517f08c379a00000000000000000000000000000000000000000000000000000000081526004018080602001828103825260208152602001807f4f776e61626c653a2063616c6c6572206973206e6f7420746865206f776e657281525060200191505060405180910390fd5b80606a8190555050565b60675481565b6110d9611ab4565b73ffffffffffffffffffffffffffffffffffffffff16603360009054906101000a900473ffffffffffffffffffffffffffffffffffffffff1673ffffffffffffffffffffffffffffffffffffffff161461119b576040517f08c379a00000000000000000000000000000000000000000000000000000000081526004018080602001828103825260208152602001807f4f776e61626c653a2063616c6c6572206973206e6f7420746865206f776e657281525060200191505060405180910390fd5b8060678190555050565b606560009054906101000a900473ffffffffffffffffffffffffffffffffffffffff1681565b6111d3611ab4565b73ffffffffffffffffffffffffffffffffffffffff16603360009054906101000a900473ffffffffffffffffffffffffffffffffffffffff1673ffffffffffffffffffffffffffffffffffffffff1614611295576040517f08c379a00000000000000000000000000000000000000000000000000000000081526004018080602001828103825260208152602001807f4f776e61626c653a2063616c6c6572206973206e6f7420746865206f776e657281525060200191505060405180910390fd5b600073ffffffffffffffffffffffffffffffffffffffff168173ffffffffffffffffffffffffffffffffffffffff16141561131b576040517f08c379a00000000000000000000000000000000000000000000000000000000081526004018080602001828103825260268152602001806129b16026913960400191505060405180910390fd5b8073ffffffffffffffffffffffffffffffffffffffff16603360009054906101000a900473ffffffffffffffffffffffffffffffffffffffff1673ffffffffffffffffffffffffffffffffffffffff167f8be0079c531659141344cd1fd0a4f28419497f9722a3daafe3b4186f6b6457e060405160405180910390a380603360006101000a81548173ffffffffffffffffffffffffffffffffffffffff021916908373ffffffffffffffffffffffffffffffffffffffff16021790555050565b6000818410156114575760006113fa8584611f1890919063ffffffff16565b9050606a548111156114105760009150506114d1565b6000611439606a5461142b8488611f6290919063ffffffff16565b611fe890919063ffffffff16565b905061144e8186611f1890919063ffffffff16565b925050506114d1565b600061146c8386611f1890919063ffffffff16565b9050600061149960695461148b60685488611f6290919063ffffffff16565b611fe890919063ffffffff16565b905060006114b08284611f6290919063ffffffff16565b905060006114c7828861203290919063ffffffff16565b9050809450505050505b9392505050565b600060019054906101000a900460ff16806114f757506114f661198e565b5b8061150e57506000809054906101000a900460ff16155b611563576040517f08c379a000000000000000000000000000000000000000000000000000000000815260040180806020018281038252602e815260200180612a05602e913960400191505060405180910390fd5b60008060019054906101000a900460ff1615905080156115b3576001600060016101000a81548160ff02191690831515021790555060016000806101000a81548160ff0219169083151502179055505b6115bf85858585610919565b85606c60006101000a81548173ffffffffffffffffffffffffffffffffffffffff021916908373ffffffffffffffffffffffffffffffffffffffff16021790555080156116215760008060016101000a81548160ff0219169083151502179055505b505050505050565b6116e0606560009054906101000a900473ffffffffffffffffffffffffffffffffffffffff1673ffffffffffffffffffffffffffffffffffffffff16636352211e876040518263ffffffff1660e01b81526004018082815260200191505060206040518083038186803b15801561169f57600080fd5b505afa1580156116b3573d6000803e3d6000fd5b505050506040513d60208110156116c957600080fd5b8101908080519060200190929190505050856120ba565b606560009054906101000a900473ffffffffffffffffffffffffffffffffffffffff1673ffffffffffffffffffffffffffffffffffffffff166323b872dd606560009054906101000a900473ffffffffffffffffffffffffffffffffffffffff1673ffffffffffffffffffffffffffffffffffffffff16636352211e886040518263ffffffff1660e01b81526004018082815260200191505060206040518083038186803b15801561179157600080fd5b505afa1580156117a5573d6000803e3d6000fd5b505050506040513d60208110156117bb57600080fd5b810190808051906020019092919050505033886040518463ffffffff1660e01b8152600401808473ffffffffffffffffffffffffffffffffffffffff1673ffffffffffffffffffffffffffffffffffffffff1681526020018373ffffffffffffffffffffffffffffffffffffffff1673ffffffffffffffffffffffffffffffffffffffff1681526020018281526020019350505050600060405180830381600087803b15801561186a57600080fd5b505af115801561187e573d6000803e3d6000fd5b5050505061188d8584846121d7565b606560009054906101000a900473ffffffffffffffffffffffffffffffffffffffff1673ffffffffffffffffffffffffffffffffffffffff1663b3789e0986836040518363ffffffff1660e01b81526004018083815260200180602001828103825283818151815260200191508051906020019080838360005b83811015611922578082015181840152602081019050611907565b50505050905090810190601f16801561194f5780820380516001836020036101000a031916815260200191505b509350505050600060405180830381600087803b15801561196f57600080fd5b505af1158015611983573d6000803e3d6000fd5b505050505050505050565b6000803090506000813b9050600081149250505090565b600060019054906101000a900460ff16806119c457506119c361198e565b5b806119db57506000809054906101000a900460ff16155b611a30576040517f08c379a000000000000000000000000000000000000000000000000000000000815260040180806020018281038252602e815260200180612a05602e913960400191505060405180910390fd5b60008060019054906101000a900460ff161590508015611a80576001600060016101000a81548160ff02191690831515021790555060016000806101000a81548160ff0219169083151502179055505b611a88612420565b611a9061251f565b8015611ab15760008060016101000a81548160ff0219169083151502179055505b50565b600033905090565b611ac78383836121d7565b505050565b606754831015611b27576040517f08c379a0000000000000000000000000000000000000000000000000000000008152600401808060200182810382526033815260200180612a846033913960400191505060405180910390fd5b6000611b52606954611b4460685487611f6290919063ffffffff16565b611fe890919063ffffffff16565b90506000611b7b42611b6d8487611fe890919063ffffffff16565b61203290919063ffffffff16565b90506301e13380611b954283611f1890919063ffffffff16565b1015611bec576040517f08c379a0000000000000000000000000000000000000000000000000000000008152600401808060200182810382526033815260200180612b076033913960400191505060405180910390fd5b6303c26700611c044283611f1890919063ffffffff16565b1115611c5b576040517f08c379a00000000000000000000000000000000000000000000000000000000081526004018080602001828103825260408152602001806129716040913960400191505060405180910390fd5b611c64846126c7565b6000606660009054906101000a900473ffffffffffffffffffffffffffffffffffffffff1673ffffffffffffffffffffffffffffffffffffffff1663a03838e289896040518363ffffffff1660e01b8152600401808367ffffffffffffffff1667ffffffffffffffff16815260200180602001828103825283818151815260200191508051906020019060200280838360005b83811015611d12578082015181840152602081019050611cf7565b505050509050019350505050602060405180830381600087803b158015611d3857600080fd5b505af1158015611d4c573d6000803e3d6000fd5b505050506040513d6020811015611d6257600080fd5b81019080805190602001909291905050509050606560009054906101000a900473ffffffffffffffffffffffffffffffffffffffff1673ffffffffffffffffffffffffffffffffffffffff1663f18bce5b8a83876040518463ffffffff1660e01b8152600401808473ffffffffffffffffffffffffffffffffffffffff1673ffffffffffffffffffffffffffffffffffffffff16815260200183815260200180602001828103825283818151815260200191508051906020019080838360005b83811015611e3d578082015181840152602081019050611e22565b50505050905090810190601f168015611e6a5780820380516001836020036101000a031916815260200191505b50945050505050600060405180830381600087803b158015611e8b57600080fd5b505af1158015611e9f573d6000803e3d6000fd5b505050506000606b60008381526020019081526020016000209050868160000181905550828160010181905550817feb7500f54b92978cf4c7f143f3b6dd72aace556e25e03ca5939ea4a14cf9d0aa8885604051808381526020018281526020019250505060405180910390a250505050505050505050565b6000611f5a83836040518060400160405280601e81526020017f536166654d6174683a207375627472616374696f6e206f766572666c6f7700008152506127ea565b905092915050565b600080831415611f755760009050611fe2565b6000828402905082848281611f8657fe5b0414611fdd576040517f08c379a0000000000000000000000000000000000000000000000000000000008152600401808060200182810382526021815260200180612a636021913960400191505060405180910390fd5b809150505b92915050565b600061202a83836040518060400160405280601a81526020017f536166654d6174683a206469766973696f6e206279207a65726f0000000000008152506128aa565b905092915050565b6000808284019050838110156120b0576040517f08c379a000000000000000000000000000000000000000000000000000000000815260040180806020018281038252601b8152602001807f536166654d6174683a206164646974696f6e206f766572666c6f77000000000081525060200191505060405180910390fd5b8091505092915050565b606c60009054906101000a900473ffffffffffffffffffffffffffffffffffffffff1673ffffffffffffffffffffffffffffffffffffffff166323b872dd3384846040518463ffffffff1660e01b8152600401808473ffffffffffffffffffffffffffffffffffffffff1673ffffffffffffffffffffffffffffffffffffffff1681526020018373ffffffffffffffffffffffffffffffffffffffff1673ffffffffffffffffffffffffffffffffffffffff1681526020018281526020019350505050602060405180830381600087803b15801561219757600080fd5b505af11580156121ab573d6000803e3d6000fd5b505050506040513d60208110156121c157600080fd5b8101908080519060200190929190505050505050565b606754821015612232576040517f08c379a000000000000000000000000000000000000000000000000000000000815260040180806020018281038252602f815260200180612b3a602f913960400191505060405180910390fd5b6000606b60008581526020019081526020016000209050600042826001015411156122755761226e428360010154611f1890919063ffffffff16565b905061227a565b600090505b60006122a585612297856000015485611f6290919063ffffffff16565b611fe890919063ffffffff16565b905060006122d26069546122c460685489611f6290919063ffffffff16565b611fe890919063ffffffff16565b905060006122e98287611fe890919063ffffffff16565b9050600061231242612304848761203290919063ffffffff16565b61203290919063ffffffff16565b90506201518061232b4283611f1890919063ffffffff16565b1015612382576040517f08c379a0000000000000000000000000000000000000000000000000000000008152600401808060200182810382526030815260200180612a336030913960400191505060405180910390fd5b6303c2670061239a4283611f1890919063ffffffff16565b11156123ba576123b76303c267004261203290919063ffffffff16565b90505b6123c3876126c7565b878660000181905550808660010181905550887feb7500f54b92978cf4c7f143f3b6dd72aace556e25e03ca5939ea4a14cf9d0aa8983604051808381526020018281526020019250505060405180910390a2505050505050505050565b600060019054906101000a900460ff168061243f575061243e61198e565b5b8061245657506000809054906101000a900460ff16155b6124ab576040517f08c379a000000000000000000000000000000000000000000000000000000000815260040180806020018281038252602e815260200180612a05602e913960400191505060405180910390fd5b60008060019054906101000a900460ff1615905080156124fb576001600060016101000a81548160ff02191690831515021790555060016000806101000a81548160ff0219169083151502179055505b801561251c5760008060016101000a81548160ff0219169083151502179055505b50565b600060019054906101000a900460ff168061253e575061253d61198e565b5b8061255557506000809054906101000a900460ff16155b6125aa576040517f08c379a000000000000000000000000000000000000000000000000000000000815260040180806020018281038252602e815260200180612a05602e913960400191505060405180910390fd5b60008060019054906101000a900460ff1615905080156125fa576001600060016101000a81548160ff02191690831515021790555060016000806101000a81548160ff0219169083151502179055505b6000612604611ab4565b905080603360006101000a81548173ffffffffffffffffffffffffffffffffffffffff021916908373ffffffffffffffffffffffffffffffffffffffff1602179055508073ffffffffffffffffffffffffffffffffffffffff16600073ffffffffffffffffffffffffffffffffffffffff167f8be0079c531659141344cd1fd0a4f28419497f9722a3daafe3b4186f6b6457e060405160405180910390a35080156126c45760008060016101000a81548160ff0219169083151502179055505b50565b606c60009054906101000a900473ffffffffffffffffffffffffffffffffffffffff1673ffffffffffffffffffffffffffffffffffffffff166323b872dd3361270e610eb9565b846040518463ffffffff1660e01b8152600401808473ffffffffffffffffffffffffffffffffffffffff1673ffffffffffffffffffffffffffffffffffffffff1681526020018373ffffffffffffffffffffffffffffffffffffffff1673ffffffffffffffffffffffffffffffffffffffff1681526020018281526020019350505050602060405180830381600087803b1580156127ab57600080fd5b505af11580156127bf573d6000803e3d6000fd5b505050506040513d60208110156127d557600080fd5b81019080805190602001909291905050505050565b6000838311158290612897576040517f08c379a00000000000000000000000000000000000000000000000000000000081526004018080602001828103825283818151815260200191508051906020019080838360005b8381101561285c578082015181840152602081019050612841565b50505050905090810190601f1680156128895780820380516001836020036101000a031916815260200191505b509250505060405180910390fd5b5060008385039050809150509392505050565b60008083118290612956576040517f08c379a00000000000000000000000000000000000000000000000000000000081526004018080602001828103825283818151815260200191508051906020019080838360005b8381101561291b578082015181840152602081019050612900565b50505050905090810190601f1680156129485780820380516001836020036101000a031916815260200191505b509250505060405180910390fd5b50600083858161296257fe5b04905080915050939250505056fe526573756c74696e672065787069726174696f6e2064617465206d757374206265206c657373207468616e206f7220657175616c20746f2037333020646179734f776e61626c653a206e6577206f776e657220697320746865207a65726f20616464726573734f6e6c7920686f6c646572206f66206c6963656e73652063616e2063616c6c20746869732066756e6374696f6e2e496e697469616c697a61626c653a20636f6e747261637420697320616c726561647920696e697469616c697a6564526573756c74696e672065787069726174696f6e2064617465206d757374206265206174206c65617374203120646179536166654d6174683a206d756c7469706c69636174696f6e206f766572666c6f77496e697469616c2076616c7565206d757374206265203e3d20746865207265717569726564206d696e696d756d2076616c756543757272656e74206c6963656e736520666f722073616c65207072696365202b2063757272656e74206665652062616c616e63652069732061626f7665206d6178207075726368617365207072696365526573756c74696e672065787069726174696f6e2064617465206d757374206265206174206c656173742033363520646179734e65772076616c7565206d757374206265203e3d20746865207265717569726564206d696e696d756d2076616c7565a264697066735822122018428d40edc0c2c2b66ed73c04726724ec4339bf49cc107800f550be68454d5764736f6c63430006020033",
  "linkReferences": {},
  "deployedLinkReferences": {}
}