{
  "_format": "hh-sol-artifact-1",
  "contractName": "GeoWebAdminNative_v0",
  "sourceName": "contracts/GeoWebAdminNative_v0.sol",
  "abi": [
    {
      "anonymous": false,
      "inputs": [
        {
          "indexed": true,
          "internalType": "uint256",
          "name": "_licenseId",
          "type": "uint256"
        },
        {
          "indexed": false,
          "internalType": "uint256",
          "name": "value",
          "type": "uint256"
        },
        {
          "indexed": false,
          "internalType": "uint256",
          "name": "expirationTimestamp",
          "type": "uint256"
        }
      ],
      "name": "LicenseInfoUpdated",
      "type": "event"
    },
    {
      "anonymous": false,
      "inputs": [
        {
          "indexed": true,
          "internalType": "address",
          "name": "previousOwner",
          "type": "address"
        },
        {
          "indexed": true,
          "internalType": "address",
          "name": "newOwner",
          "type": "address"
        }
      ],
      "name": "OwnershipTransferred",
      "type": "event"
    },
    {
      "inputs": [
        {
          "internalType": "uint256",
          "name": "expirationTimestamp",
          "type": "uint256"
        },
        {
          "internalType": "uint256",
          "name": "value",
          "type": "uint256"
        },
        {
          "internalType": "uint256",
          "name": "currentTime",
          "type": "uint256"
        }
      ],
      "name": "_calculateTotalBuyPrice",
      "outputs": [
        {
          "internalType": "uint256",
          "name": "",
          "type": "uint256"
        }
      ],
      "stateMutability": "view",
      "type": "function"
    },
    {
      "inputs": [
        {
          "internalType": "uint256",
          "name": "licenseId",
          "type": "uint256"
        }
      ],
      "name": "calculateTotalBuyPrice",
      "outputs": [
        {
          "internalType": "uint256",
          "name": "",
          "type": "uint256"
        }
      ],
      "stateMutability": "view",
      "type": "function"
    },
    {
      "inputs": [
        {
          "internalType": "address",
          "name": "_to",
          "type": "address"
        },
        {
          "internalType": "uint64",
          "name": "baseCoordinate",
          "type": "uint64"
        },
        {
          "internalType": "uint256[]",
          "name": "path",
          "type": "uint256[]"
        },
        {
          "internalType": "uint256",
          "name": "initialValue",
          "type": "uint256"
        },
        {
          "internalType": "string",
          "name": "ceramicDocId",
          "type": "string"
        }
      ],
      "name": "claim",
      "outputs": [],
      "stateMutability": "payable",
      "type": "function"
    },
    {
      "inputs": [],
      "name": "dutchAuctionLengthInSeconds",
      "outputs": [
        {
          "internalType": "uint256",
          "name": "",
          "type": "uint256"
        }
      ],
      "stateMutability": "view",
      "type": "function"
    },
    {
      "inputs": [
        {
          "internalType": "uint256",
          "name": "_minInitialValue",
          "type": "uint256"
        },
        {
          "internalType": "uint256",
          "name": "_minClaimExpiration",
          "type": "uint256"
        },
        {
          "internalType": "uint256",
          "name": "_minExpiration",
          "type": "uint256"
        },
        {
          "internalType": "uint256",
          "name": "_maxExpiration",
          "type": "uint256"
        },
        {
          "internalType": "uint256",
          "name": "_perSecondFeeNumerator",
          "type": "uint256"
        },
        {
          "internalType": "uint256",
          "name": "_perSecondFeeDenominator",
          "type": "uint256"
        },
        {
          "internalType": "uint256",
          "name": "_dutchAuctionLengthInSeconds",
          "type": "uint256"
        }
      ],
      "name": "initialize",
      "outputs": [],
      "stateMutability": "nonpayable",
      "type": "function"
    },
    {
      "inputs": [],
      "name": "licenseContract",
      "outputs": [
        {
          "internalType": "contract ERC721License",
          "name": "",
          "type": "address"
        }
      ],
      "stateMutability": "view",
      "type": "function"
    },
    {
      "inputs": [
        {
          "internalType": "uint256",
          "name": "",
          "type": "uint256"
        }
      ],
      "name": "licenseInfo",
      "outputs": [
        {
          "internalType": "uint256",
          "name": "value",
          "type": "uint256"
        },
        {
          "internalType": "uint256",
          "name": "expirationTimestamp",
          "type": "uint256"
        }
      ],
      "stateMutability": "view",
      "type": "function"
    },
    {
      "inputs": [],
      "name": "maxExpiration",
      "outputs": [
        {
          "internalType": "uint256",
          "name": "",
          "type": "uint256"
        }
      ],
      "stateMutability": "view",
      "type": "function"
    },
    {
      "inputs": [],
      "name": "minClaimExpiration",
      "outputs": [
        {
          "internalType": "uint256",
          "name": "",
          "type": "uint256"
        }
      ],
      "stateMutability": "view",
      "type": "function"
    },
    {
      "inputs": [],
      "name": "minExpiration",
      "outputs": [
        {
          "internalType": "uint256",
          "name": "",
          "type": "uint256"
        }
      ],
      "stateMutability": "view",
      "type": "function"
    },
    {
      "inputs": [],
      "name": "minInitialValue",
      "outputs": [
        {
          "internalType": "uint256",
          "name": "",
          "type": "uint256"
        }
      ],
      "stateMutability": "view",
      "type": "function"
    },
    {
      "inputs": [],
      "name": "owner",
      "outputs": [
        {
          "internalType": "address",
          "name": "",
          "type": "address"
        }
      ],
      "stateMutability": "view",
      "type": "function"
    },
    {
      "inputs": [],
      "name": "parcelContract",
      "outputs": [
        {
          "internalType": "contract GeoWebParcel",
          "name": "",
          "type": "address"
        }
      ],
      "stateMutability": "view",
      "type": "function"
    },
    {
      "inputs": [
        {
          "internalType": "address",
          "name": "",
          "type": "address"
        }
      ],
      "name": "pendingWithdrawals",
      "outputs": [
        {
          "internalType": "uint256",
          "name": "",
          "type": "uint256"
        }
      ],
      "stateMutability": "view",
      "type": "function"
    },
    {
      "inputs": [],
      "name": "perSecondFeeDenominator",
      "outputs": [
        {
          "internalType": "uint256",
          "name": "",
          "type": "uint256"
        }
      ],
      "stateMutability": "view",
      "type": "function"
    },
    {
      "inputs": [],
      "name": "perSecondFeeNumerator",
      "outputs": [
        {
          "internalType": "uint256",
          "name": "",
          "type": "uint256"
        }
      ],
      "stateMutability": "view",
      "type": "function"
    },
    {
      "inputs": [
        {
          "internalType": "uint256",
          "name": "licenseId",
          "type": "uint256"
        },
        {
          "internalType": "uint256",
          "name": "maxPurchasePrice",
          "type": "uint256"
        },
        {
          "internalType": "uint256",
          "name": "newValue",
          "type": "uint256"
        },
        {
          "internalType": "string",
          "name": "ceramicDocId",
          "type": "string"
        }
      ],
      "name": "purchaseLicense",
      "outputs": [],
      "stateMutability": "payable",
      "type": "function"
    },
    {
      "inputs": [],
      "name": "renounceOwnership",
      "outputs": [],
      "stateMutability": "nonpayable",
      "type": "function"
    },
    {
      "inputs": [
        {
          "internalType": "uint256",
          "name": "_dutchAuctionLengthInSeconds",
          "type": "uint256"
        }
      ],
      "name": "setDutchAuctionLength",
      "outputs": [],
      "stateMutability": "nonpayable",
      "type": "function"
    },
    {
      "inputs": [
        {
          "internalType": "address",
          "name": "licenseContractAddress",
          "type": "address"
        }
      ],
      "name": "setLicenseContract",
      "outputs": [],
      "stateMutability": "nonpayable",
      "type": "function"
    },
    {
      "inputs": [
        {
          "internalType": "uint256",
          "name": "_minInitialValue",
          "type": "uint256"
        }
      ],
      "name": "setMinInitialValue",
      "outputs": [],
      "stateMutability": "nonpayable",
      "type": "function"
    },
    {
      "inputs": [
        {
          "internalType": "address",
          "name": "parcelContractAddress",
          "type": "address"
        }
      ],
      "name": "setParcelContract",
      "outputs": [],
      "stateMutability": "nonpayable",
      "type": "function"
    },
    {
      "inputs": [
        {
          "internalType": "address",
          "name": "newOwner",
          "type": "address"
        }
      ],
      "name": "transferOwnership",
      "outputs": [],
      "stateMutability": "nonpayable",
      "type": "function"
    },
    {
      "inputs": [
        {
          "internalType": "uint256",
          "name": "licenseId",
          "type": "uint256"
        },
        {
          "internalType": "uint256",
          "name": "newValue",
          "type": "uint256"
        }
      ],
      "name": "updateValue",
      "outputs": [],
      "stateMutability": "payable",
      "type": "function"
    },
    {
      "inputs": [],
      "name": "withdraw",
      "outputs": [],
      "stateMutability": "nonpayable",
      "type": "function"
    }
  ],
  "bytecode": "0x608060405234801561001057600080fd5b50611d19806100206000396000f3fe6080604052600436106101655760003560e01c8063935cc61d116100d1578063d9337d0d1161008a578063f2fde38b11610064578063f2fde38b14610581578063f3f43703146105b4578063f757f929146105e7578063f9a8c50b1461061d57610165565b8063d9337d0d146104d4578063de56d01f146104e9578063e2c52b9d1461056c57610165565b8063935cc61d146103d55780639ae3aff8146103ea578063b6610ace1461041d578063b7f0146b1461046b578063ce88e79514610495578063d274491a146104aa57610165565b80634d76d756116101235780634d76d7561461025b57806351edd5b5146103405780635b500826146103555780636a109a0714610378578063715018a6146103ab5780638da5cb5b146103c057610165565b806279c6e91461016a578063020314bd1461019157806309465cea146101c25780631e084558146101ec57806325bee3e91461022f5780633ccfd60b14610244575b600080fd5b34801561017657600080fd5b5061017f610632565b60408051918252519081900360200190f35b34801561019d57600080fd5b506101a6610638565b604080516001600160a01b039092168252519081900360200190f35b3480156101ce57600080fd5b5061017f600480360360208110156101e557600080fd5b5035610647565b3480156101f857600080fd5b506102166004803603602081101561020f57600080fd5b503561066e565b6040805192835260208301919091528051918290030190f35b34801561023b57600080fd5b5061017f610687565b34801561025057600080fd5b5061025961068d565b005b610259600480360360a081101561027157600080fd5b6001600160a01b038235169167ffffffffffffffff602082013516918101906060810160408201356401000000008111156102ab57600080fd5b8201836020820111156102bd57600080fd5b803590602001918460208302840111640100000000831117156102df57600080fd5b9193909282359260408101906020013564010000000081111561030157600080fd5b82018360208201111561031357600080fd5b8035906020019184600183028401116401000000008311171561033557600080fd5b5090925090506106d2565b34801561034c57600080fd5b5061017f610751565b6102596004803603604081101561036b57600080fd5b5080359060200135610757565b34801561038457600080fd5b506102596004803603602081101561039b57600080fd5b50356001600160a01b0316610824565b3480156103b757600080fd5b5061025961089e565b3480156103cc57600080fd5b506101a6610940565b3480156103e157600080fd5b5061017f61094f565b3480156103f657600080fd5b506102596004803603602081101561040d57600080fd5b50356001600160a01b0316610955565b34801561042957600080fd5b50610259600480360360e081101561044057600080fd5b5080359060208101359060408101359060608101359060808101359060a08101359060c001356109cf565b34801561047757600080fd5b506102596004803603602081101561048e57600080fd5b5035610aa3565b3480156104a157600080fd5b5061017f610b00565b3480156104b657600080fd5b50610259600480360360208110156104cd57600080fd5b5035610b06565b3480156104e057600080fd5b5061017f610b63565b610259600480360360808110156104ff57600080fd5b8135916020810135916040820135919081019060808101606082013564010000000081111561052d57600080fd5b82018360208201111561053f57600080fd5b8035906020019184600183028401116401000000008311171561056157600080fd5b509092509050610b69565b34801561057857600080fd5b506101a6610c4e565b34801561058d57600080fd5b50610259600480360360208110156105a457600080fd5b50356001600160a01b0316610c5d565b3480156105c057600080fd5b5061017f600480360360208110156105d757600080fd5b50356001600160a01b0316610d56565b3480156105f357600080fd5b5061017f6004803603606081101561060a57600080fd5b5080359060208101359060400135610d68565b34801561062957600080fd5b5061017f610e40565b606b5481565b6066546001600160a01b031681565b6000818152606e6020526040812060018101548154610667919042610d68565b9392505050565b606e602052600090815260409020805460019091015482565b606a5481565b336000818152606f6020526040808220805490839055905190929183156108fc02918491818181858888f193505050501580156106ce573d6000803e3d6000fd5b5050565b610748878787878080602002602001604051908101604052809392919081815260200183836020028082843760009201919091525050604080516020601f8a018190048102820181019092528881528a9350349250908990899081908401838280828437600092019190915250610e4692505050565b50505050505050565b606d5481565b606554604080516331a9108f60e11b815260048101859052905184926001600160a01b031691636352211e916024808301926020929190829003018186803b1580156107a257600080fd5b505afa1580156107b6573d6000803e3d6000fd5b505050506040513d60208110156107cc57600080fd5b50516001600160a01b031633146108145760405162461bcd60e51b815260040180806020018281038252602e815260200180611b13602e913960400191505060405180910390fd5b61081f83833461117a565b505050565b61082c611185565b6033546001600160a01b0390811691161461087c576040805162461bcd60e51b81526020600482018190526024820152600080516020611bd5833981519152604482015290519081900360640190fd5b606680546001600160a01b0319166001600160a01b0392909216919091179055565b6108a6611185565b6033546001600160a01b039081169116146108f6576040805162461bcd60e51b81526020600482018190526024820152600080516020611bd5833981519152604482015290519081900360640190fd5b6033546040516000916001600160a01b0316907f8be0079c531659141344cd1fd0a4f28419497f9722a3daafe3b4186f6b6457e0908390a3603380546001600160a01b0319169055565b6033546001600160a01b031690565b606c5481565b61095d611185565b6033546001600160a01b039081169116146109ad576040805162461bcd60e51b81526020600482018190526024820152600080516020611bd5833981519152604482015290519081900360640190fd5b606580546001600160a01b0319166001600160a01b0392909216919091179055565b600054610100900460ff16806109e857506109e8611189565b806109f6575060005460ff16155b610a315760405162461bcd60e51b815260040180806020018281038252602e815260200180611b41602e913960400191505060405180910390fd5b600054610100900460ff16158015610a5c576000805460ff1961ff0019909116610100171660011790555b610a6461118f565b606788905560688790556069869055606a859055606b849055606c839055606d8290558015610a99576000805461ff00191690555b5050505050505050565b610aab611185565b6033546001600160a01b03908116911614610afb576040805162461bcd60e51b81526020600482018190526024820152600080516020611bd5833981519152604482015290519081900360640190fd5b606d55565b60675481565b610b0e611185565b6033546001600160a01b03908116911614610b5e576040805162461bcd60e51b81526020600482018190526024820152600080516020611bd5833981519152604482015290519081900360640190fd5b606755565b60685481565b6000610b7486610647565b905084811115610bb55760405162461bcd60e51b8152600401808060200182810382526050815260200180611c286050913960600191505060405180910390fd5b80341015610bf45760405162461bcd60e51b8152600401808060200182810382526042815260200180611ad16042913960600191505060405180910390fd5b610c46868286610c0a348363ffffffff61124116565b87878080601f01602080910402602001604051908101604052809392919081815260200183838082843760009201919091525061128c92505050565b505050505050565b6065546001600160a01b031681565b610c65611185565b6033546001600160a01b03908116911614610cb5576040805162461bcd60e51b81526020600482018190526024820152600080516020611bd5833981519152604482015290519081900360640190fd5b6001600160a01b038116610cfa5760405162461bcd60e51b8152600401808060200182810382526026815260200180611aab6026913960400191505060405180910390fd5b6033546040516001600160a01b038084169216907f8be0079c531659141344cd1fd0a4f28419497f9722a3daafe3b4186f6b6457e090600090a3603380546001600160a01b0319166001600160a01b0392909216919091179055565b606f6020526000908152604090205481565b600081841015610ddb576000610d84838663ffffffff61124116565b9050606d54811115610d9a576000915050610667565b606d54600090610dc090610db4878563ffffffff6114d516565b9063ffffffff61152e16565b9050610dd2858263ffffffff61124116565b92505050610667565b6000610ded858463ffffffff61124116565b90506000610e0c606c54610db4606b54886114d590919063ffffffff16565b90506000610e20838363ffffffff6114d516565b90506000610e34878363ffffffff61157016565b94506106679350505050565b60695481565b606754831015610e875760405162461bcd60e51b8152600401808060200182810382526033815260200180611bf56033913960400191505060405180910390fd5b6000610ea4606c54610db4606b54876114d590919063ffffffff16565b90506000610ec842610ebc868563ffffffff61152e16565b9063ffffffff61157016565b606854909150610ede824263ffffffff61124116565b1015610f1b5760405162461bcd60e51b815260040180806020018281038252603d815260200180611c78603d913960400191505060405180910390fd5b606a54610f2e824263ffffffff61124116565b1115610f6b5760405162461bcd60e51b8152600401808060200182810382526045815260200180611b6f6045913960600191505060405180910390fd5b610f74846115ca565b6066546040805163501c1c7160e11b815267ffffffffffffffff8a1660048201908152602482019283528951604483015289516000946001600160a01b03169363a03838e2938d938d9390929160640190602080860191028083838c5b83811015610fe9578181015183820152602001610fd1565b505050509050019350505050602060405180830381600087803b15801561100f57600080fd5b505af1158015611023573d6000803e3d6000fd5b505050506040513d602081101561103957600080fd5b505160655460405163f18bce5b60e01b81526001600160a01b038c81166004830190815260248301859052606060448401908152895160648501528951959650919093169363f18bce5b938e9387938b93909160840190602085019080838360005b838110156110b357818101518382015260200161109b565b50505050905090810190601f1680156110e05780820380516001836020036101000a031916815260200191505b50945050505050600060405180830381600087803b15801561110157600080fd5b505af1158015611115573d6000803e3d6000fd5b5050506000828152606e60209081526040918290208981556001810186905582518a8152918201869052825190935084927feb7500f54b92978cf4c7f143f3b6dd72aace556e25e03ca5939ea4a14cf9d0aa928290030190a250505050505050505050565b61081f8383836115fa565b3390565b303b1590565b600054610100900460ff16806111a857506111a8611189565b806111b6575060005460ff16155b6111f15760405162461bcd60e51b815260040180806020018281038252602e815260200180611b41602e913960400191505060405180910390fd5b600054610100900460ff1615801561121c576000805460ff1961ff0019909116610100171660011790555b6112246117bb565b61122c61185b565b801561123e576000805461ff00191690555b50565b600061128383836040518060400160405280601e81526020017f536166654d6174683a207375627472616374696f6e206f766572666c6f770000815250611954565b90505b92915050565b606554604080516331a9108f60e11b815260048101889052905161130b926001600160a01b031691636352211e916024808301926020929190829003018186803b1580156112d957600080fd5b505afa1580156112ed573d6000803e3d6000fd5b505050506040513d602081101561130357600080fd5b5051856119eb565b606554604080516331a9108f60e11b81526004810188905290516001600160a01b03909216916323b872dd918391636352211e91602480820192602092909190829003018186803b15801561135f57600080fd5b505afa158015611373573d6000803e3d6000fd5b505050506040513d602081101561138957600080fd5b5051604080516001600160e01b031960e085901b1681526001600160a01b0390921660048301523360248301526044820189905251606480830192600092919082900301818387803b1580156113de57600080fd5b505af11580156113f2573d6000803e3d6000fd5b505050506114018584846115fa565b6065546040805163b3789e0960e01b815260048101888152602482019283528451604483015284516001600160a01b039094169363b3789e09938a93879392606490910190602085019080838360005b83811015611469578181015183820152602001611451565b50505050905090810190601f1680156114965780820380516001836020036101000a031916815260200191505b509350505050600060405180830381600087803b1580156114b657600080fd5b505af11580156114ca573d6000803e3d6000fd5b505050505050505050565b6000826114e457506000611286565b828202828482816114f157fe5b04146112835760405162461bcd60e51b8152600401808060200182810382526021815260200180611bb46021913960400191505060405180910390fd5b600061128383836040518060400160405280601a81526020017f536166654d6174683a206469766973696f6e206279207a65726f000000000000815250611a0d565b600082820183811015611283576040805162461bcd60e51b815260206004820152601b60248201527f536166654d6174683a206164646974696f6e206f766572666c6f770000000000604482015290519081900360640190fd5b80606f60006115d7610940565b6001600160a01b0316815260208101919091526040016000208054909101905550565b60675482101561163b5760405162461bcd60e51b815260040180806020018281038252602f815260200180611cb5602f913960400191505060405180910390fd5b6000838152606e60205260408120600181015490919042101561167457600182015461166d904263ffffffff61124116565b9050611678565b5060005b600061169585610db48560000154856114d590919063ffffffff16565b905060006116b4606c54610db4606b54896114d590919063ffffffff16565b905060006116c8868363ffffffff61152e16565b905060006116e042610ebc868563ffffffff61157016565b6069549091506116f6824263ffffffff61124116565b10156117335760405162461bcd60e51b8152600401808060200182810382526038815260200180611a736038913960400191505060405180910390fd5b606a54611746824263ffffffff61124116565b111561176357606a5461176090429063ffffffff61157016565b90505b61176c876115ca565b87865560018601819055604080518981526020810183905281518b927feb7500f54b92978cf4c7f143f3b6dd72aace556e25e03ca5939ea4a14cf9d0aa928290030190a2505050505050505050565b600054610100900460ff16806117d457506117d4611189565b806117e2575060005460ff16155b61181d5760405162461bcd60e51b815260040180806020018281038252602e815260200180611b41602e913960400191505060405180910390fd5b600054610100900460ff1615801561122c576000805460ff1961ff001990911661010017166001179055801561123e576000805461ff001916905550565b600054610100900460ff16806118745750611874611189565b80611882575060005460ff16155b6118bd5760405162461bcd60e51b815260040180806020018281038252602e815260200180611b41602e913960400191505060405180910390fd5b600054610100900460ff161580156118e8576000805460ff1961ff0019909116610100171660011790555b60006118f2611185565b603380546001600160a01b0319166001600160a01b038316908117909155604051919250906000907f8be0079c531659141344cd1fd0a4f28419497f9722a3daafe3b4186f6b6457e0908290a350801561123e576000805461ff001916905550565b600081848411156119e35760405162461bcd60e51b81526004018080602001828103825283818151815260200191508051906020019080838360005b838110156119a8578181015183820152602001611990565b50505050905090810190601f1680156119d55780820380516001836020036101000a031916815260200191505b509250505060405180910390fd5b505050900390565b6001600160a01b039091166000908152606f6020526040902080549091019055565b60008183611a5c5760405162461bcd60e51b81526020600482018181528351602484015283519092839260449091019190850190808383600083156119a8578181015183820152602001611990565b506000838581611a6857fe5b049594505050505056fe526573756c74696e672065787069726174696f6e2064617465206d757374206265206174206c65617374206d696e45787069726174696f6e4f776e61626c653a206e6577206f776e657220697320746865207a65726f20616464726573734d6573736167652076616c7565206d7573742062652067726561746572207468616e206f7220657175616c20746f2074686520746f74616c206275792070726963654f6e6c7920686f6c646572206f66206c6963656e73652063616e2063616c6c20746869732066756e6374696f6e2e496e697469616c697a61626c653a20636f6e747261637420697320616c726561647920696e697469616c697a6564526573756c74696e672065787069726174696f6e2064617465206d757374206265206c657373207468616e206f7220657175616c20746f206d617845787069726174696f6e536166654d6174683a206d756c7469706c69636174696f6e206f766572666c6f774f776e61626c653a2063616c6c6572206973206e6f7420746865206f776e6572496e697469616c2076616c7565206d757374206265203e3d20746865207265717569726564206d696e696d756d2076616c756543757272656e74206c6963656e736520666f722073616c65207072696365202b2063757272656e74206665652062616c616e63652069732061626f7665206d6178207075726368617365207072696365526573756c74696e672065787069726174696f6e2064617465206d757374206265206174206c65617374206d696e436c61696d45787069726174696f6e4e65772076616c7565206d757374206265203e3d20746865207265717569726564206d696e696d756d2076616c7565a264697066735822122015ff5ea6e6ac7340714b1983bfd8c01b3ee76aad1ae707cc173c91faa6742fb464736f6c63430006020033",
  "linkReferences": {},
  "deployedLinkReferences": {}
}