{
  "_format": "hh-sol-artifact-1",
  "contractName": "GeoWebAdminNative_v0",
  "sourceName": "contracts/GeoWebAdminNative_v0.sol",
  "abi": [
    {
      "anonymous": false,
      "inputs": [
        {
          "indexed": true,
          "internalType": "uint256",
          "name": "_licenseId",
          "type": "uint256"
        },
        {
          "indexed": false,
          "internalType": "uint256",
          "name": "value",
          "type": "uint256"
        },
        {
          "indexed": false,
          "internalType": "uint256",
          "name": "expirationTimestamp",
          "type": "uint256"
        }
      ],
      "name": "LicenseInfoUpdated",
      "type": "event"
    },
    {
      "anonymous": false,
      "inputs": [
        {
          "indexed": true,
          "internalType": "address",
          "name": "previousOwner",
          "type": "address"
        },
        {
          "indexed": true,
          "internalType": "address",
          "name": "newOwner",
          "type": "address"
        }
      ],
      "name": "OwnershipTransferred",
      "type": "event"
    },
    {
      "inputs": [
        {
          "internalType": "uint256",
          "name": "expirationTimestamp",
          "type": "uint256"
        },
        {
          "internalType": "uint256",
          "name": "value",
          "type": "uint256"
        },
        {
          "internalType": "uint256",
          "name": "currentTime",
          "type": "uint256"
        }
      ],
      "name": "_calculateTotalBuyPrice",
      "outputs": [
        {
          "internalType": "uint256",
          "name": "",
          "type": "uint256"
        }
      ],
      "stateMutability": "view",
      "type": "function"
    },
    {
      "inputs": [
        {
          "internalType": "uint256",
          "name": "licenseId",
          "type": "uint256"
        }
      ],
      "name": "calculateTotalBuyPrice",
      "outputs": [
        {
          "internalType": "uint256",
          "name": "",
          "type": "uint256"
        }
      ],
      "stateMutability": "view",
      "type": "function"
    },
    {
      "inputs": [
        {
          "internalType": "address",
          "name": "_to",
          "type": "address"
        },
        {
          "internalType": "uint64",
          "name": "baseCoordinate",
          "type": "uint64"
        },
        {
          "internalType": "uint256[]",
          "name": "path",
          "type": "uint256[]"
        },
        {
          "internalType": "uint256",
          "name": "initialValue",
          "type": "uint256"
        },
        {
          "internalType": "string",
          "name": "ceramicDocId",
          "type": "string"
        }
      ],
      "name": "claim",
      "outputs": [],
      "stateMutability": "payable",
      "type": "function"
    },
    {
      "inputs": [],
      "name": "dutchAuctionLengthInSeconds",
      "outputs": [
        {
          "internalType": "uint256",
          "name": "",
          "type": "uint256"
        }
      ],
      "stateMutability": "view",
      "type": "function"
    },
    {
      "inputs": [
        {
          "internalType": "uint256",
          "name": "_minInitialValue",
          "type": "uint256"
        },
        {
          "internalType": "uint256",
          "name": "_perSecondFeeNumerator",
          "type": "uint256"
        },
        {
          "internalType": "uint256",
          "name": "_perSecondFeeDenominator",
          "type": "uint256"
        },
        {
          "internalType": "uint256",
          "name": "_dutchAuctionLengthInSeconds",
          "type": "uint256"
        }
      ],
      "name": "initialize",
      "outputs": [],
      "stateMutability": "nonpayable",
      "type": "function"
    },
    {
      "inputs": [],
      "name": "licenseContract",
      "outputs": [
        {
          "internalType": "contract ERC721License",
          "name": "",
          "type": "address"
        }
      ],
      "stateMutability": "view",
      "type": "function"
    },
    {
      "inputs": [
        {
          "internalType": "uint256",
          "name": "",
          "type": "uint256"
        }
      ],
      "name": "licenseInfo",
      "outputs": [
        {
          "internalType": "uint256",
          "name": "value",
          "type": "uint256"
        },
        {
          "internalType": "uint256",
          "name": "expirationTimestamp",
          "type": "uint256"
        }
      ],
      "stateMutability": "view",
      "type": "function"
    },
    {
      "inputs": [],
      "name": "minInitialValue",
      "outputs": [
        {
          "internalType": "uint256",
          "name": "",
          "type": "uint256"
        }
      ],
      "stateMutability": "view",
      "type": "function"
    },
    {
      "inputs": [],
      "name": "owner",
      "outputs": [
        {
          "internalType": "address",
          "name": "",
          "type": "address"
        }
      ],
      "stateMutability": "view",
      "type": "function"
    },
    {
      "inputs": [],
      "name": "parcelContract",
      "outputs": [
        {
          "internalType": "contract GeoWebParcel",
          "name": "",
          "type": "address"
        }
      ],
      "stateMutability": "view",
      "type": "function"
    },
    {
      "inputs": [
        {
          "internalType": "address",
          "name": "",
          "type": "address"
        }
      ],
      "name": "pendingWithdrawals",
      "outputs": [
        {
          "internalType": "uint256",
          "name": "",
          "type": "uint256"
        }
      ],
      "stateMutability": "view",
      "type": "function"
    },
    {
      "inputs": [],
      "name": "perSecondFeeDenominator",
      "outputs": [
        {
          "internalType": "uint256",
          "name": "",
          "type": "uint256"
        }
      ],
      "stateMutability": "view",
      "type": "function"
    },
    {
      "inputs": [],
      "name": "perSecondFeeNumerator",
      "outputs": [
        {
          "internalType": "uint256",
          "name": "",
          "type": "uint256"
        }
      ],
      "stateMutability": "view",
      "type": "function"
    },
    {
      "inputs": [
        {
          "internalType": "uint256",
          "name": "licenseId",
          "type": "uint256"
        },
        {
          "internalType": "uint256",
          "name": "maxPurchasePrice",
          "type": "uint256"
        },
        {
          "internalType": "uint256",
          "name": "newValue",
          "type": "uint256"
        },
        {
          "internalType": "string",
          "name": "ceramicDocId",
          "type": "string"
        }
      ],
      "name": "purchaseLicense",
      "outputs": [],
      "stateMutability": "payable",
      "type": "function"
    },
    {
      "inputs": [],
      "name": "renounceOwnership",
      "outputs": [],
      "stateMutability": "nonpayable",
      "type": "function"
    },
    {
      "inputs": [
        {
          "internalType": "uint256",
          "name": "_dutchAuctionLengthInSeconds",
          "type": "uint256"
        }
      ],
      "name": "setDutchAuctionLength",
      "outputs": [],
      "stateMutability": "nonpayable",
      "type": "function"
    },
    {
      "inputs": [
        {
          "internalType": "address",
          "name": "licenseContractAddress",
          "type": "address"
        }
      ],
      "name": "setLicenseContract",
      "outputs": [],
      "stateMutability": "nonpayable",
      "type": "function"
    },
    {
      "inputs": [
        {
          "internalType": "uint256",
          "name": "_minInitialValue",
          "type": "uint256"
        }
      ],
      "name": "setMinInitialValue",
      "outputs": [],
      "stateMutability": "nonpayable",
      "type": "function"
    },
    {
      "inputs": [
        {
          "internalType": "address",
          "name": "parcelContractAddress",
          "type": "address"
        }
      ],
      "name": "setParcelContract",
      "outputs": [],
      "stateMutability": "nonpayable",
      "type": "function"
    },
    {
      "inputs": [
        {
          "internalType": "address",
          "name": "newOwner",
          "type": "address"
        }
      ],
      "name": "transferOwnership",
      "outputs": [],
      "stateMutability": "nonpayable",
      "type": "function"
    },
    {
      "inputs": [
        {
          "internalType": "uint256",
          "name": "licenseId",
          "type": "uint256"
        },
        {
          "internalType": "uint256",
          "name": "newValue",
          "type": "uint256"
        }
      ],
      "name": "updateValue",
      "outputs": [],
      "stateMutability": "payable",
      "type": "function"
    },
    {
      "inputs": [],
      "name": "withdraw",
      "outputs": [],
      "stateMutability": "nonpayable",
      "type": "function"
    }
  ],
  "bytecode": "0x608060405234801561001057600080fd5b50611c61806100206000396000f3fe6080604052600436106101345760003560e01c80638da5cb5b116100ab578063d274491a1161006f578063d274491a14610452578063de56d01f1461047c578063e2c52b9d146104ff578063f2fde38b14610514578063f3f4370314610547578063f757f9291461057a57610134565b80638da5cb5b146103b6578063935cc61d146103cb5780639ae3aff8146103e0578063b7f0146b14610413578063ce88e7951461043d57610134565b80634d76d756116100fd5780634d76d7561461021557806351edd5b5146102fa5780635b5008261461030f57806360a2da44146103325780636a109a071461036e578063715018a6146103a157610134565b806279c6e914610139578063020314bd1461016057806309465cea146101915780631e084558146101bb5780633ccfd60b146101fe575b600080fd5b34801561014557600080fd5b5061014e6105b0565b60408051918252519081900360200190f35b34801561016c57600080fd5b506101756105b6565b604080516001600160a01b039092168252519081900360200190f35b34801561019d57600080fd5b5061014e600480360360208110156101b457600080fd5b50356105c5565b3480156101c757600080fd5b506101e5600480360360208110156101de57600080fd5b50356105ec565b6040805192835260208301919091528051918290030190f35b34801561020a57600080fd5b50610213610605565b005b610213600480360360a081101561022b57600080fd5b6001600160a01b038235169167ffffffffffffffff6020820135169181019060608101604082013564010000000081111561026557600080fd5b82018360208201111561027757600080fd5b8035906020019184602083028401116401000000008311171561029957600080fd5b919390928235926040810190602001356401000000008111156102bb57600080fd5b8201836020820111156102cd57600080fd5b803590602001918460018302840111640100000000831117156102ef57600080fd5b50909250905061064a565b34801561030657600080fd5b5061014e6106c9565b6102136004803603604081101561032557600080fd5b50803590602001356106cf565b34801561033e57600080fd5b506102136004803603608081101561035557600080fd5b508035906020810135906040810135906060013561079c565b34801561037a57600080fd5b506102136004803603602081101561039157600080fd5b50356001600160a01b031661085e565b3480156103ad57600080fd5b506102136108d8565b3480156103c257600080fd5b5061017561097a565b3480156103d757600080fd5b5061014e610989565b3480156103ec57600080fd5b506102136004803603602081101561040357600080fd5b50356001600160a01b031661098f565b34801561041f57600080fd5b506102136004803603602081101561043657600080fd5b5035610a09565b34801561044957600080fd5b5061014e610a66565b34801561045e57600080fd5b506102136004803603602081101561047557600080fd5b5035610a6c565b6102136004803603608081101561049257600080fd5b813591602081013591604082013591908101906080810160608201356401000000008111156104c057600080fd5b8201836020820111156104d257600080fd5b803590602001918460018302840111640100000000831117156104f457600080fd5b509092509050610ac9565b34801561050b57600080fd5b50610175610bae565b34801561052057600080fd5b506102136004803603602081101561053757600080fd5b50356001600160a01b0316610bbd565b34801561055357600080fd5b5061014e6004803603602081101561056a57600080fd5b50356001600160a01b0316610cb6565b34801561058657600080fd5b5061014e6004803603606081101561059d57600080fd5b5080359060208101359060400135610cc8565b60685481565b6066546001600160a01b031681565b6000818152606b60205260408120600181015481546105e5919042610cc8565b9392505050565b606b602052600090815260409020805460019091015482565b336000818152606c6020526040808220805490839055905190929183156108fc02918491818181858888f19350505050158015610646573d6000803e3d6000fd5b5050565b6106c0878787878080602002602001604051908101604052809392919081815260200183836020028082843760009201919091525050604080516020601f8a018190048102820181019092528881528a9350349250908990899081908401838280828437600092019190915250610da092505050565b50505050505050565b606a5481565b606554604080516331a9108f60e11b815260048101859052905184926001600160a01b031691636352211e916024808301926020929190829003018186803b15801561071a57600080fd5b505afa15801561072e573d6000803e3d6000fd5b505050506040513d602081101561074457600080fd5b50516001600160a01b0316331461078c5760405162461bcd60e51b815260040180806020018281038252602e815260200180611a7a602e913960400191505060405180910390fd5b6107978383346110d7565b505050565b600054610100900460ff16806107b557506107b56110e2565b806107c3575060005460ff16155b6107fe5760405162461bcd60e51b815260040180806020018281038252602e815260200180611aa8602e913960400191505060405180910390fd5b600054610100900460ff16158015610829576000805460ff1961ff0019909116610100171660011790555b6108316110e8565b606785905560688490556069839055606a8290558015610857576000805461ff00191690555b5050505050565b61086661119a565b6033546001600160a01b039081169116146108b6576040805162461bcd60e51b81526020600482018190526024820152600080516020611b27833981519152604482015290519081900360640190fd5b606680546001600160a01b0319166001600160a01b0392909216919091179055565b6108e061119a565b6033546001600160a01b03908116911614610930576040805162461bcd60e51b81526020600482018190526024820152600080516020611b27833981519152604482015290519081900360640190fd5b6033546040516000916001600160a01b0316907f8be0079c531659141344cd1fd0a4f28419497f9722a3daafe3b4186f6b6457e0908390a3603380546001600160a01b0319169055565b6033546001600160a01b031690565b60695481565b61099761119a565b6033546001600160a01b039081169116146109e7576040805162461bcd60e51b81526020600482018190526024820152600080516020611b27833981519152604482015290519081900360640190fd5b606580546001600160a01b0319166001600160a01b0392909216919091179055565b610a1161119a565b6033546001600160a01b03908116911614610a61576040805162461bcd60e51b81526020600482018190526024820152600080516020611b27833981519152604482015290519081900360640190fd5b606a55565b60675481565b610a7461119a565b6033546001600160a01b03908116911614610ac4576040805162461bcd60e51b81526020600482018190526024820152600080516020611b27833981519152604482015290519081900360640190fd5b606755565b6000610ad4866105c5565b905084811115610b155760405162461bcd60e51b8152600401808060200182810382526050815260200180611b7a6050913960600191505060405180910390fd5b80341015610b545760405162461bcd60e51b8152600401808060200182810382526042815260200180611a386042913960600191505060405180910390fd5b610ba6868286610b6a348363ffffffff61119e16565b87878080601f0160208091040260200160405190810160405280939291908181526020018383808284376000920191909152506111e992505050565b505050505050565b6065546001600160a01b031681565b610bc561119a565b6033546001600160a01b03908116911614610c15576040805162461bcd60e51b81526020600482018190526024820152600080516020611b27833981519152604482015290519081900360640190fd5b6001600160a01b038116610c5a5760405162461bcd60e51b8152600401808060200182810382526026815260200180611a126026913960400191505060405180910390fd5b6033546040516001600160a01b038084169216907f8be0079c531659141344cd1fd0a4f28419497f9722a3daafe3b4186f6b6457e090600090a3603380546001600160a01b0319166001600160a01b0392909216919091179055565b606c6020526000908152604090205481565b600081841015610d3b576000610ce4838663ffffffff61119e16565b9050606a54811115610cfa5760009150506105e5565b606a54600090610d2090610d14878563ffffffff61143216565b9063ffffffff61148b16565b9050610d32858263ffffffff61119e16565b925050506105e5565b6000610d4d858463ffffffff61119e16565b90506000610d6c606954610d146068548861143290919063ffffffff16565b90506000610d80838363ffffffff61143216565b90506000610d94878363ffffffff6114cd16565b94506105e59350505050565b606754831015610de15760405162461bcd60e51b8152600401808060200182810382526033815260200180611b476033913960400191505060405180910390fd5b6000610dfe606954610d146068548761143290919063ffffffff16565b90506000610e2242610e16868563ffffffff61148b16565b9063ffffffff6114cd16565b90506301e13380610e39824263ffffffff61119e16565b1015610e765760405162461bcd60e51b8152600401808060200182810382526033815260200180611bca6033913960400191505060405180910390fd5b6303c26700610e8b824263ffffffff61119e16565b1115610ec85760405162461bcd60e51b81526004018080602001828103825260408152602001806119d26040913960400191505060405180910390fd5b610ed184611527565b6066546040805163501c1c7160e11b815267ffffffffffffffff8a1660048201908152602482019283528951604483015289516000946001600160a01b03169363a03838e2938d938d9390929160640190602080860191028083838c5b83811015610f46578181015183820152602001610f2e565b505050509050019350505050602060405180830381600087803b158015610f6c57600080fd5b505af1158015610f80573d6000803e3d6000fd5b505050506040513d6020811015610f9657600080fd5b505160655460405163f18bce5b60e01b81526001600160a01b038c81166004830190815260248301859052606060448401908152895160648501528951959650919093169363f18bce5b938e9387938b93909160840190602085019080838360005b83811015611010578181015183820152602001610ff8565b50505050905090810190601f16801561103d5780820380516001836020036101000a031916815260200191505b50945050505050600060405180830381600087803b15801561105e57600080fd5b505af1158015611072573d6000803e3d6000fd5b5050506000828152606b60209081526040918290208981556001810186905582518a8152918201869052825190935084927feb7500f54b92978cf4c7f143f3b6dd72aace556e25e03ca5939ea4a14cf9d0aa928290030190a250505050505050505050565b610797838383611557565b303b1590565b600054610100900460ff168061110157506111016110e2565b8061110f575060005460ff16155b61114a5760405162461bcd60e51b815260040180806020018281038252602e815260200180611aa8602e913960400191505060405180910390fd5b600054610100900460ff16158015611175576000805460ff1961ff0019909116610100171660011790555b61117d61171a565b6111856117ba565b8015611197576000805461ff00191690555b50565b3390565b60006111e083836040518060400160405280601e81526020017f536166654d6174683a207375627472616374696f6e206f766572666c6f7700008152506118b3565b90505b92915050565b606554604080516331a9108f60e11b8152600481018890529051611268926001600160a01b031691636352211e916024808301926020929190829003018186803b15801561123657600080fd5b505afa15801561124a573d6000803e3d6000fd5b505050506040513d602081101561126057600080fd5b50518561194a565b606554604080516331a9108f60e11b81526004810188905290516001600160a01b03909216916323b872dd918391636352211e91602480820192602092909190829003018186803b1580156112bc57600080fd5b505afa1580156112d0573d6000803e3d6000fd5b505050506040513d60208110156112e657600080fd5b5051604080516001600160e01b031960e085901b1681526001600160a01b0390921660048301523360248301526044820189905251606480830192600092919082900301818387803b15801561133b57600080fd5b505af115801561134f573d6000803e3d6000fd5b5050505061135e858484611557565b6065546040805163b3789e0960e01b815260048101888152602482019283528451604483015284516001600160a01b039094169363b3789e09938a93879392606490910190602085019080838360005b838110156113c65781810151838201526020016113ae565b50505050905090810190601f1680156113f35780820380516001836020036101000a031916815260200191505b509350505050600060405180830381600087803b15801561141357600080fd5b505af1158015611427573d6000803e3d6000fd5b505050505050505050565b600082611441575060006111e3565b8282028284828161144e57fe5b04146111e05760405162461bcd60e51b8152600401808060200182810382526021815260200180611b066021913960400191505060405180910390fd5b60006111e083836040518060400160405280601a81526020017f536166654d6174683a206469766973696f6e206279207a65726f00000000000081525061196c565b6000828201838110156111e0576040805162461bcd60e51b815260206004820152601b60248201527f536166654d6174683a206164646974696f6e206f766572666c6f770000000000604482015290519081900360640190fd5b80606c600061153461097a565b6001600160a01b0316815260208101919091526040016000208054909101905550565b6067548210156115985760405162461bcd60e51b815260040180806020018281038252602f815260200180611bfd602f913960400191505060405180910390fd5b6000838152606b6020526040812060018101549091904210156115d15760018201546115ca904263ffffffff61119e16565b90506115d5565b5060005b60006115f285610d1485600001548561143290919063ffffffff16565b90506000611611606954610d146068548961143290919063ffffffff16565b90506000611625868363ffffffff61148b16565b9050600061163d42610e16868563ffffffff6114cd16565b905062015180611653824263ffffffff61119e16565b10156116905760405162461bcd60e51b8152600401808060200182810382526030815260200180611ad66030913960400191505060405180910390fd5b6303c267006116a5824263ffffffff61119e16565b11156116c2576116bf426303c2670063ffffffff6114cd16565b90505b6116cb87611527565b87865560018601819055604080518981526020810183905281518b927feb7500f54b92978cf4c7f143f3b6dd72aace556e25e03ca5939ea4a14cf9d0aa928290030190a2505050505050505050565b600054610100900460ff168061173357506117336110e2565b80611741575060005460ff16155b61177c5760405162461bcd60e51b815260040180806020018281038252602e815260200180611aa8602e913960400191505060405180910390fd5b600054610100900460ff16158015611185576000805460ff1961ff0019909116610100171660011790558015611197576000805461ff001916905550565b600054610100900460ff16806117d357506117d36110e2565b806117e1575060005460ff16155b61181c5760405162461bcd60e51b815260040180806020018281038252602e815260200180611aa8602e913960400191505060405180910390fd5b600054610100900460ff16158015611847576000805460ff1961ff0019909116610100171660011790555b600061185161119a565b603380546001600160a01b0319166001600160a01b038316908117909155604051919250906000907f8be0079c531659141344cd1fd0a4f28419497f9722a3daafe3b4186f6b6457e0908290a3508015611197576000805461ff001916905550565b600081848411156119425760405162461bcd60e51b81526004018080602001828103825283818151815260200191508051906020019080838360005b838110156119075781810151838201526020016118ef565b50505050905090810190601f1680156119345780820380516001836020036101000a031916815260200191505b509250505060405180910390fd5b505050900390565b6001600160a01b039091166000908152606c6020526040902080549091019055565b600081836119bb5760405162461bcd60e51b81526020600482018181528351602484015283519092839260449091019190850190808383600083156119075781810151838201526020016118ef565b5060008385816119c757fe5b049594505050505056fe526573756c74696e672065787069726174696f6e2064617465206d757374206265206c657373207468616e206f7220657175616c20746f2037333020646179734f776e61626c653a206e6577206f776e657220697320746865207a65726f20616464726573734d6573736167652076616c7565206d7573742062652067726561746572207468616e206f7220657175616c20746f2074686520746f74616c206275792070726963654f6e6c7920686f6c646572206f66206c6963656e73652063616e2063616c6c20746869732066756e6374696f6e2e496e697469616c697a61626c653a20636f6e747261637420697320616c726561647920696e697469616c697a6564526573756c74696e672065787069726174696f6e2064617465206d757374206265206174206c65617374203120646179536166654d6174683a206d756c7469706c69636174696f6e206f766572666c6f774f776e61626c653a2063616c6c6572206973206e6f7420746865206f776e6572496e697469616c2076616c7565206d757374206265203e3d20746865207265717569726564206d696e696d756d2076616c756543757272656e74206c6963656e736520666f722073616c65207072696365202b2063757272656e74206665652062616c616e63652069732061626f7665206d6178207075726368617365207072696365526573756c74696e672065787069726174696f6e2064617465206d757374206265206174206c656173742033363520646179734e65772076616c7565206d757374206265203e3d20746865207265717569726564206d696e696d756d2076616c7565a26469706673582212201fbc7a8974ea806cb559728b15ee31fbcfcae57d8ea51bbef82ec3a81d51b9b864736f6c63430006020033",
  "linkReferences": {},
  "deployedLinkReferences": {}
}