{
  "_format": "hh-sol-artifact-1",
  "contractName": "GeoWebAdminNative_v0",
  "sourceName": "contracts/GeoWebAdminNative_v0.sol",
  "abi": [
    {
      "anonymous": false,
      "inputs": [
        {
          "indexed": true,
          "internalType": "uint256",
          "name": "_licenseId",
          "type": "uint256"
        },
        {
          "indexed": false,
          "internalType": "uint256",
          "name": "value",
          "type": "uint256"
        },
        {
          "indexed": false,
          "internalType": "uint256",
          "name": "expirationTimestamp",
          "type": "uint256"
        }
      ],
      "name": "LicenseInfoUpdated",
      "type": "event"
    },
    {
      "anonymous": false,
      "inputs": [
        {
          "indexed": true,
          "internalType": "address",
          "name": "previousOwner",
          "type": "address"
        },
        {
          "indexed": true,
          "internalType": "address",
          "name": "newOwner",
          "type": "address"
        }
      ],
      "name": "OwnershipTransferred",
      "type": "event"
    },
    {
      "inputs": [
        {
          "internalType": "uint256",
          "name": "expirationTimestamp",
          "type": "uint256"
        },
        {
          "internalType": "uint256",
          "name": "value",
          "type": "uint256"
        },
        {
          "internalType": "uint256",
          "name": "currentTime",
          "type": "uint256"
        }
      ],
      "name": "_calculateTotalBuyPrice",
      "outputs": [
        {
          "internalType": "uint256",
          "name": "",
          "type": "uint256"
        }
      ],
      "stateMutability": "view",
      "type": "function"
    },
    {
      "inputs": [
        {
          "internalType": "uint256",
          "name": "licenseId",
          "type": "uint256"
        }
      ],
      "name": "calculateTotalBuyPrice",
      "outputs": [
        {
          "internalType": "uint256",
          "name": "",
          "type": "uint256"
        }
      ],
      "stateMutability": "view",
      "type": "function"
    },
    {
      "inputs": [
        {
          "internalType": "address",
          "name": "_to",
          "type": "address"
        },
        {
          "internalType": "uint64",
          "name": "baseCoordinate",
          "type": "uint64"
        },
        {
          "internalType": "uint256[]",
          "name": "path",
          "type": "uint256[]"
        },
        {
          "internalType": "uint256",
          "name": "initialValue",
          "type": "uint256"
        },
        {
          "internalType": "string",
          "name": "ceramicDocId",
          "type": "string"
        }
      ],
      "name": "claim",
      "outputs": [],
      "stateMutability": "payable",
      "type": "function"
    },
    {
      "inputs": [],
      "name": "dutchAuctionLengthInSeconds",
      "outputs": [
        {
          "internalType": "uint256",
          "name": "",
          "type": "uint256"
        }
      ],
      "stateMutability": "view",
      "type": "function"
    },
    {
      "inputs": [
        {
          "internalType": "uint256",
          "name": "_minInitialValue",
          "type": "uint256"
        },
        {
          "internalType": "uint256",
          "name": "_perSecondFeeNumerator",
          "type": "uint256"
        },
        {
          "internalType": "uint256",
          "name": "_perSecondFeeDenominator",
          "type": "uint256"
        },
        {
          "internalType": "uint256",
          "name": "_dutchAuctionLengthInSeconds",
          "type": "uint256"
        }
      ],
      "name": "initialize",
      "outputs": [],
      "stateMutability": "nonpayable",
      "type": "function"
    },
    {
      "inputs": [],
      "name": "licenseContract",
      "outputs": [
        {
          "internalType": "contract ERC721License",
          "name": "",
          "type": "address"
        }
      ],
      "stateMutability": "view",
      "type": "function"
    },
    {
      "inputs": [
        {
          "internalType": "uint256",
          "name": "",
          "type": "uint256"
        }
      ],
      "name": "licenseInfo",
      "outputs": [
        {
          "internalType": "uint256",
          "name": "value",
          "type": "uint256"
        },
        {
          "internalType": "uint256",
          "name": "expirationTimestamp",
          "type": "uint256"
        }
      ],
      "stateMutability": "view",
      "type": "function"
    },
    {
      "inputs": [],
      "name": "minInitialValue",
      "outputs": [
        {
          "internalType": "uint256",
          "name": "",
          "type": "uint256"
        }
      ],
      "stateMutability": "view",
      "type": "function"
    },
    {
      "inputs": [],
      "name": "owner",
      "outputs": [
        {
          "internalType": "address",
          "name": "",
          "type": "address"
        }
      ],
      "stateMutability": "view",
      "type": "function"
    },
    {
      "inputs": [],
      "name": "parcelContract",
      "outputs": [
        {
          "internalType": "contract GeoWebParcel",
          "name": "",
          "type": "address"
        }
      ],
      "stateMutability": "view",
      "type": "function"
    },
    {
      "inputs": [
        {
          "internalType": "address",
          "name": "",
          "type": "address"
        }
      ],
      "name": "pendingWithdrawals",
      "outputs": [
        {
          "internalType": "uint256",
          "name": "",
          "type": "uint256"
        }
      ],
      "stateMutability": "view",
      "type": "function"
    },
    {
      "inputs": [],
      "name": "perSecondFeeDenominator",
      "outputs": [
        {
          "internalType": "uint256",
          "name": "",
          "type": "uint256"
        }
      ],
      "stateMutability": "view",
      "type": "function"
    },
    {
      "inputs": [],
      "name": "perSecondFeeNumerator",
      "outputs": [
        {
          "internalType": "uint256",
          "name": "",
          "type": "uint256"
        }
      ],
      "stateMutability": "view",
      "type": "function"
    },
    {
      "inputs": [
        {
          "internalType": "uint256",
          "name": "licenseId",
          "type": "uint256"
        },
        {
          "internalType": "uint256",
          "name": "maxPurchasePrice",
          "type": "uint256"
        },
        {
          "internalType": "uint256",
          "name": "newValue",
          "type": "uint256"
        },
        {
          "internalType": "string",
          "name": "ceramicDocId",
          "type": "string"
        }
      ],
      "name": "purchaseLicense",
      "outputs": [],
      "stateMutability": "payable",
      "type": "function"
    },
    {
      "inputs": [],
      "name": "renounceOwnership",
      "outputs": [],
      "stateMutability": "nonpayable",
      "type": "function"
    },
    {
      "inputs": [
        {
          "internalType": "uint256",
          "name": "_dutchAuctionLengthInSeconds",
          "type": "uint256"
        }
      ],
      "name": "setDutchAuctionLength",
      "outputs": [],
      "stateMutability": "nonpayable",
      "type": "function"
    },
    {
      "inputs": [
        {
          "internalType": "address",
          "name": "licenseContractAddress",
          "type": "address"
        }
      ],
      "name": "setLicenseContract",
      "outputs": [],
      "stateMutability": "nonpayable",
      "type": "function"
    },
    {
      "inputs": [
        {
          "internalType": "uint256",
          "name": "_minInitialValue",
          "type": "uint256"
        }
      ],
      "name": "setMinInitialValue",
      "outputs": [],
      "stateMutability": "nonpayable",
      "type": "function"
    },
    {
      "inputs": [
        {
          "internalType": "address",
          "name": "parcelContractAddress",
          "type": "address"
        }
      ],
      "name": "setParcelContract",
      "outputs": [],
      "stateMutability": "nonpayable",
      "type": "function"
    },
    {
      "inputs": [
        {
          "internalType": "address",
          "name": "newOwner",
          "type": "address"
        }
      ],
      "name": "transferOwnership",
      "outputs": [],
      "stateMutability": "nonpayable",
      "type": "function"
    },
    {
      "inputs": [
        {
          "internalType": "uint256",
          "name": "licenseId",
          "type": "uint256"
        },
        {
          "internalType": "uint256",
          "name": "newValue",
          "type": "uint256"
        }
      ],
      "name": "updateValue",
      "outputs": [],
      "stateMutability": "payable",
      "type": "function"
    },
    {
      "inputs": [],
      "name": "withdraw",
      "outputs": [],
      "stateMutability": "nonpayable",
      "type": "function"
    }
  ],
  "bytecode": "0x608060405234801561001057600080fd5b50612a9c806100206000396000f3fe6080604052600436106101345760003560e01c80638da5cb5b116100ab578063d274491a1161006f578063d274491a146105e0578063de56d01f1461061b578063e2c52b9d146106b2578063f2fde38b14610709578063f3f437031461075a578063f757f929146107bf57610134565b80638da5cb5b146104a7578063935cc61d146104fe5780639ae3aff814610529578063b7f0146b1461057a578063ce88e795146105b557610134565b80634d76d756116100fd5780634d76d7561461027757806351edd5b5146103835780635b500826146103ae57806360a2da44146103e65780636a109a071461043f578063715018a61461049057610134565b806279c6e914610139578063020314bd1461016457806309465cea146101bb5780631e0845581461020a5780633ccfd60b14610260575b600080fd5b34801561014557600080fd5b5061014e610822565b6040518082815260200191505060405180910390f35b34801561017057600080fd5b50610179610828565b604051808273ffffffffffffffffffffffffffffffffffffffff1673ffffffffffffffffffffffffffffffffffffffff16815260200191505060405180910390f35b3480156101c757600080fd5b506101f4600480360360208110156101de57600080fd5b810190808035906020019092919050505061084e565b6040518082815260200191505060405180910390f35b34801561021657600080fd5b506102436004803603602081101561022d57600080fd5b8101908080359060200190929190505050610881565b604051808381526020018281526020019250505060405180910390f35b34801561026c57600080fd5b506102756108a5565b005b610381600480360360a081101561028d57600080fd5b81019080803573ffffffffffffffffffffffffffffffffffffffff169060200190929190803567ffffffffffffffff169060200190929190803590602001906401000000008111156102de57600080fd5b8201836020820111156102f057600080fd5b8035906020019184602083028401116401000000008311171561031257600080fd5b9091929391929390803590602001909291908035906020019064010000000081111561033d57600080fd5b82018360208201111561034f57600080fd5b8035906020019184600183028401116401000000008311171561037157600080fd5b9091929391929390505050610978565b005b34801561038f57600080fd5b50610398610a14565b6040518082815260200191505060405180910390f35b6103e4600480360360408110156103c457600080fd5b810190808035906020019092919080359060200190929190505050610a1a565b005b3480156103f257600080fd5b5061043d6004803603608081101561040957600080fd5b8101908080359060200190929190803590602001909291908035906020019092919080359060200190929190505050610b5c565b005b34801561044b57600080fd5b5061048e6004803603602081101561046257600080fd5b81019080803573ffffffffffffffffffffffffffffffffffffffff169060200190929190505050610c83565b005b34801561049c57600080fd5b506104a5610d91565b005b3480156104b357600080fd5b506104bc610f1c565b604051808273ffffffffffffffffffffffffffffffffffffffff1673ffffffffffffffffffffffffffffffffffffffff16815260200191505060405180910390f35b34801561050a57600080fd5b50610513610f46565b6040518082815260200191505060405180910390f35b34801561053557600080fd5b506105786004803603602081101561054c57600080fd5b81019080803573ffffffffffffffffffffffffffffffffffffffff169060200190929190505050610f4c565b005b34801561058657600080fd5b506105b36004803603602081101561059d57600080fd5b810190808035906020019092919050505061105a565b005b3480156105c157600080fd5b506105ca61112e565b6040518082815260200191505060405180910390f35b3480156105ec57600080fd5b506106196004803603602081101561060357600080fd5b8101908080359060200190929190505050611134565b005b6106b06004803603608081101561063157600080fd5b810190808035906020019092919080359060200190929190803590602001909291908035906020019064010000000081111561066c57600080fd5b82018360208201111561067e57600080fd5b803590602001918460018302840111640100000000831117156106a057600080fd5b9091929391929390505050611208565b005b3480156106be57600080fd5b506106c7611332565b604051808273ffffffffffffffffffffffffffffffffffffffff1673ffffffffffffffffffffffffffffffffffffffff16815260200191505060405180910390f35b34801561071557600080fd5b506107586004803603602081101561072c57600080fd5b81019080803573ffffffffffffffffffffffffffffffffffffffff169060200190929190505050611358565b005b34801561076657600080fd5b506107a96004803603602081101561077d57600080fd5b81019080803573ffffffffffffffffffffffffffffffffffffffff169060200190929190505050611568565b6040518082815260200191505060405180910390f35b3480156107cb57600080fd5b5061080c600480360360608110156107e257600080fd5b81019080803590602001909291908035906020019092919080359060200190929190505050611580565b6040518082815260200191505060405180910390f35b60685481565b606660009054906101000a900473ffffffffffffffffffffffffffffffffffffffff1681565b600080606b600084815260200190815260200160002090506108798160010154826000015442611580565b915050919050565b606b6020528060005260406000206000915090508060000154908060010154905082565b6000606c60003373ffffffffffffffffffffffffffffffffffffffff1673ffffffffffffffffffffffffffffffffffffffff1681526020019081526020016000205490506000606c60003373ffffffffffffffffffffffffffffffffffffffff1673ffffffffffffffffffffffffffffffffffffffff168152602001908152602001600020819055503373ffffffffffffffffffffffffffffffffffffffff166108fc829081150290604051600060405180830381858888f19350505050158015610974573d6000803e3d6000fd5b5050565b610a0b8787878780806020026020016040519081016040528093929190818152602001838360200280828437600081840152601f19601f82011690508083019250505050505050863487878080601f016020809104026020016040519081016040528093929190818152602001838380828437600081840152601f19601f8201169050808301925050505050505061167d565b50505050505050565b606a5481565b81606560009054906101000a900473ffffffffffffffffffffffffffffffffffffffff1673ffffffffffffffffffffffffffffffffffffffff16636352211e826040518263ffffffff1660e01b81526004018082815260200191505060206040518083038186803b158015610a8e57600080fd5b505afa158015610aa2573d6000803e3d6000fd5b505050506040513d6020811015610ab857600080fd5b810190808051906020019092919050505073ffffffffffffffffffffffffffffffffffffffff163373ffffffffffffffffffffffffffffffffffffffff1614610b4c576040517f08c379a000000000000000000000000000000000000000000000000000000000815260040180806020018281038252602e8152602001806128d5602e913960400191505060405180910390fd5b610b57838334611ac9565b505050565b600060019054906101000a900460ff1680610b7b5750610b7a611ad9565b5b80610b9257506000809054906101000a900460ff16155b610be7576040517f08c379a000000000000000000000000000000000000000000000000000000000815260040180806020018281038252602e815260200180612903602e913960400191505060405180910390fd5b60008060019054906101000a900460ff161590508015610c37576001600060016101000a81548160ff02191690831515021790555060016000806101000a81548160ff0219169083151502179055505b610c3f611af0565b84606781905550836068819055508260698190555081606a819055508015610c7c5760008060016101000a81548160ff0219169083151502179055505b5050505050565b610c8b611bff565b73ffffffffffffffffffffffffffffffffffffffff16603360009054906101000a900473ffffffffffffffffffffffffffffffffffffffff1673ffffffffffffffffffffffffffffffffffffffff1614610d4d576040517f08c379a00000000000000000000000000000000000000000000000000000000081526004018080602001828103825260208152602001807f4f776e61626c653a2063616c6c6572206973206e6f7420746865206f776e657281525060200191505060405180910390fd5b80606660006101000a81548173ffffffffffffffffffffffffffffffffffffffff021916908373ffffffffffffffffffffffffffffffffffffffff16021790555050565b610d99611bff565b73ffffffffffffffffffffffffffffffffffffffff16603360009054906101000a900473ffffffffffffffffffffffffffffffffffffffff1673ffffffffffffffffffffffffffffffffffffffff1614610e5b576040517f08c379a00000000000000000000000000000000000000000000000000000000081526004018080602001828103825260208152602001807f4f776e61626c653a2063616c6c6572206973206e6f7420746865206f776e657281525060200191505060405180910390fd5b600073ffffffffffffffffffffffffffffffffffffffff16603360009054906101000a900473ffffffffffffffffffffffffffffffffffffffff1673ffffffffffffffffffffffffffffffffffffffff167f8be0079c531659141344cd1fd0a4f28419497f9722a3daafe3b4186f6b6457e060405160405180910390a36000603360006101000a81548173ffffffffffffffffffffffffffffffffffffffff021916908373ffffffffffffffffffffffffffffffffffffffff160217905550565b6000603360009054906101000a900473ffffffffffffffffffffffffffffffffffffffff16905090565b60695481565b610f54611bff565b73ffffffffffffffffffffffffffffffffffffffff16603360009054906101000a900473ffffffffffffffffffffffffffffffffffffffff1673ffffffffffffffffffffffffffffffffffffffff1614611016576040517f08c379a00000000000000000000000000000000000000000000000000000000081526004018080602001828103825260208152602001807f4f776e61626c653a2063616c6c6572206973206e6f7420746865206f776e657281525060200191505060405180910390fd5b80606560006101000a81548173ffffffffffffffffffffffffffffffffffffffff021916908373ffffffffffffffffffffffffffffffffffffffff16021790555050565b611062611bff565b73ffffffffffffffffffffffffffffffffffffffff16603360009054906101000a900473ffffffffffffffffffffffffffffffffffffffff1673ffffffffffffffffffffffffffffffffffffffff1614611124576040517f08c379a00000000000000000000000000000000000000000000000000000000081526004018080602001828103825260208152602001807f4f776e61626c653a2063616c6c6572206973206e6f7420746865206f776e657281525060200191505060405180910390fd5b80606a8190555050565b60675481565b61113c611bff565b73ffffffffffffffffffffffffffffffffffffffff16603360009054906101000a900473ffffffffffffffffffffffffffffffffffffffff1673ffffffffffffffffffffffffffffffffffffffff16146111fe576040517f08c379a00000000000000000000000000000000000000000000000000000000081526004018080602001828103825260208152602001807f4f776e61626c653a2063616c6c6572206973206e6f7420746865206f776e657281525060200191505060405180910390fd5b8060678190555050565b60006112138661084e565b90508481111561126e576040517f08c379a00000000000000000000000000000000000000000000000000000000081526004018080602001828103825260508152602001806129b56050913960600191505060405180910390fd5b803410156112c7576040517f08c379a00000000000000000000000000000000000000000000000000000000081526004018080602001828103825260428152602001806128936042913960600191505060405180910390fd5b61132a8682866112e08534611c0790919063ffffffff16565b87878080601f016020809104026020016040519081016040528093929190818152602001838380828437600081840152601f19601f82011690508083019250505050505050611c51565b505050505050565b606560009054906101000a900473ffffffffffffffffffffffffffffffffffffffff1681565b611360611bff565b73ffffffffffffffffffffffffffffffffffffffff16603360009054906101000a900473ffffffffffffffffffffffffffffffffffffffff1673ffffffffffffffffffffffffffffffffffffffff1614611422576040517f08c379a00000000000000000000000000000000000000000000000000000000081526004018080602001828103825260208152602001807f4f776e61626c653a2063616c6c6572206973206e6f7420746865206f776e657281525060200191505060405180910390fd5b600073ffffffffffffffffffffffffffffffffffffffff168173ffffffffffffffffffffffffffffffffffffffff1614156114a8576040517f08c379a000000000000000000000000000000000000000000000000000000000815260040180806020018281038252602681526020018061286d6026913960400191505060405180910390fd5b8073ffffffffffffffffffffffffffffffffffffffff16603360009054906101000a900473ffffffffffffffffffffffffffffffffffffffff1673ffffffffffffffffffffffffffffffffffffffff167f8be0079c531659141344cd1fd0a4f28419497f9722a3daafe3b4186f6b6457e060405160405180910390a380603360006101000a81548173ffffffffffffffffffffffffffffffffffffffff021916908373ffffffffffffffffffffffffffffffffffffffff16021790555050565b606c6020528060005260406000206000915090505481565b6000818410156115fc57600061159f8584611c0790919063ffffffff16565b9050606a548111156115b5576000915050611676565b60006115de606a546115d08488611fb690919063ffffffff16565b61203c90919063ffffffff16565b90506115f38186611c0790919063ffffffff16565b92505050611676565b60006116118386611c0790919063ffffffff16565b9050600061163e60695461163060685488611fb690919063ffffffff16565b61203c90919063ffffffff16565b905060006116558284611fb690919063ffffffff16565b9050600061166c828861208690919063ffffffff16565b9050809450505050505b9392505050565b6067548310156116d8576040517f08c379a00000000000000000000000000000000000000000000000000000000081526004018080602001828103825260338152602001806129826033913960400191505060405180910390fd5b60006117036069546116f560685487611fb690919063ffffffff16565b61203c90919063ffffffff16565b9050600061172c4261171e848761203c90919063ffffffff16565b61208690919063ffffffff16565b90506301e133806117464283611c0790919063ffffffff16565b101561179d576040517f08c379a0000000000000000000000000000000000000000000000000000000008152600401808060200182810382526033815260200180612a056033913960400191505060405180910390fd5b6303c267006117b54283611c0790919063ffffffff16565b111561180c576040517f08c379a000000000000000000000000000000000000000000000000000000000815260040180806020018281038252604081526020018061282d6040913960400191505060405180910390fd5b6118158461210e565b6000606660009054906101000a900473ffffffffffffffffffffffffffffffffffffffff1673ffffffffffffffffffffffffffffffffffffffff1663a03838e289896040518363ffffffff1660e01b8152600401808367ffffffffffffffff1667ffffffffffffffff16815260200180602001828103825283818151815260200191508051906020019060200280838360005b838110156118c35780820151818401526020810190506118a8565b505050509050019350505050602060405180830381600087803b1580156118e957600080fd5b505af11580156118fd573d6000803e3d6000fd5b505050506040513d602081101561191357600080fd5b81019080805190602001909291905050509050606560009054906101000a900473ffffffffffffffffffffffffffffffffffffffff1673ffffffffffffffffffffffffffffffffffffffff1663f18bce5b8a83876040518463ffffffff1660e01b8152600401808473ffffffffffffffffffffffffffffffffffffffff1673ffffffffffffffffffffffffffffffffffffffff16815260200183815260200180602001828103825283818151815260200191508051906020019080838360005b838110156119ee5780820151818401526020810190506119d3565b50505050905090810190601f168015611a1b5780820380516001836020036101000a031916815260200191505b50945050505050600060405180830381600087803b158015611a3c57600080fd5b505af1158015611a50573d6000803e3d6000fd5b505050506000606b60008381526020019081526020016000209050868160000181905550828160010181905550817feb7500f54b92978cf4c7f143f3b6dd72aace556e25e03ca5939ea4a14cf9d0aa8885604051808381526020018281526020019250505060405180910390a250505050505050505050565b611ad4838383612165565b505050565b6000803090506000813b9050600081149250505090565b600060019054906101000a900460ff1680611b0f5750611b0e611ad9565b5b80611b2657506000809054906101000a900460ff16155b611b7b576040517f08c379a000000000000000000000000000000000000000000000000000000000815260040180806020018281038252602e815260200180612903602e913960400191505060405180910390fd5b60008060019054906101000a900460ff161590508015611bcb576001600060016101000a81548160ff02191690831515021790555060016000806101000a81548160ff0219169083151502179055505b611bd36123ae565b611bdb6124ad565b8015611bfc5760008060016101000a81548160ff0219169083151502179055505b50565b600033905090565b6000611c4983836040518060400160405280601e81526020017f536166654d6174683a207375627472616374696f6e206f766572666c6f770000815250612655565b905092915050565b611d08606560009054906101000a900473ffffffffffffffffffffffffffffffffffffffff1673ffffffffffffffffffffffffffffffffffffffff16636352211e876040518263ffffffff1660e01b81526004018082815260200191505060206040518083038186803b158015611cc757600080fd5b505afa158015611cdb573d6000803e3d6000fd5b505050506040513d6020811015611cf157600080fd5b810190808051906020019092919050505085612715565b606560009054906101000a900473ffffffffffffffffffffffffffffffffffffffff1673ffffffffffffffffffffffffffffffffffffffff166323b872dd606560009054906101000a900473ffffffffffffffffffffffffffffffffffffffff1673ffffffffffffffffffffffffffffffffffffffff16636352211e886040518263ffffffff1660e01b81526004018082815260200191505060206040518083038186803b158015611db957600080fd5b505afa158015611dcd573d6000803e3d6000fd5b505050506040513d6020811015611de357600080fd5b810190808051906020019092919050505033886040518463ffffffff1660e01b8152600401808473ffffffffffffffffffffffffffffffffffffffff1673ffffffffffffffffffffffffffffffffffffffff1681526020018373ffffffffffffffffffffffffffffffffffffffff1673ffffffffffffffffffffffffffffffffffffffff1681526020018281526020019350505050600060405180830381600087803b158015611e9257600080fd5b505af1158015611ea6573d6000803e3d6000fd5b50505050611eb5858484612165565b606560009054906101000a900473ffffffffffffffffffffffffffffffffffffffff1673ffffffffffffffffffffffffffffffffffffffff1663b3789e0986836040518363ffffffff1660e01b81526004018083815260200180602001828103825283818151815260200191508051906020019080838360005b83811015611f4a578082015181840152602081019050611f2f565b50505050905090810190601f168015611f775780820380516001836020036101000a031916815260200191505b509350505050600060405180830381600087803b158015611f9757600080fd5b505af1158015611fab573d6000803e3d6000fd5b505050505050505050565b600080831415611fc95760009050612036565b6000828402905082848281611fda57fe5b0414612031576040517f08c379a00000000000000000000000000000000000000000000000000000000081526004018080602001828103825260218152602001806129616021913960400191505060405180910390fd5b809150505b92915050565b600061207e83836040518060400160405280601a81526020017f536166654d6174683a206469766973696f6e206279207a65726f000000000000815250612766565b905092915050565b600080828401905083811015612104576040517f08c379a000000000000000000000000000000000000000000000000000000000815260040180806020018281038252601b8152602001807f536166654d6174683a206164646974696f6e206f766572666c6f77000000000081525060200191505060405180910390fd5b8091505092915050565b80606c600061211b610f1c565b73ffffffffffffffffffffffffffffffffffffffff1673ffffffffffffffffffffffffffffffffffffffff1681526020019081526020016000206000828254019250508190555050565b6067548210156121c0576040517f08c379a000000000000000000000000000000000000000000000000000000000815260040180806020018281038252602f815260200180612a38602f913960400191505060405180910390fd5b6000606b6000858152602001908152602001600020905060004282600101541115612203576121fc428360010154611c0790919063ffffffff16565b9050612208565b600090505b600061223385612225856000015485611fb690919063ffffffff16565b61203c90919063ffffffff16565b9050600061226060695461225260685489611fb690919063ffffffff16565b61203c90919063ffffffff16565b90506000612277828761203c90919063ffffffff16565b905060006122a042612292848761208690919063ffffffff16565b61208690919063ffffffff16565b9050620151806122b94283611c0790919063ffffffff16565b1015612310576040517f08c379a00000000000000000000000000000000000000000000000000000000081526004018080602001828103825260308152602001806129316030913960400191505060405180910390fd5b6303c267006123284283611c0790919063ffffffff16565b1115612348576123456303c267004261208690919063ffffffff16565b90505b6123518761210e565b878660000181905550808660010181905550887feb7500f54b92978cf4c7f143f3b6dd72aace556e25e03ca5939ea4a14cf9d0aa8983604051808381526020018281526020019250505060405180910390a2505050505050505050565b600060019054906101000a900460ff16806123cd57506123cc611ad9565b5b806123e457506000809054906101000a900460ff16155b612439576040517f08c379a000000000000000000000000000000000000000000000000000000000815260040180806020018281038252602e815260200180612903602e913960400191505060405180910390fd5b60008060019054906101000a900460ff161590508015612489576001600060016101000a81548160ff02191690831515021790555060016000806101000a81548160ff0219169083151502179055505b80156124aa5760008060016101000a81548160ff0219169083151502179055505b50565b600060019054906101000a900460ff16806124cc57506124cb611ad9565b5b806124e357506000809054906101000a900460ff16155b612538576040517f08c379a000000000000000000000000000000000000000000000000000000000815260040180806020018281038252602e815260200180612903602e913960400191505060405180910390fd5b60008060019054906101000a900460ff161590508015612588576001600060016101000a81548160ff02191690831515021790555060016000806101000a81548160ff0219169083151502179055505b6000612592611bff565b905080603360006101000a81548173ffffffffffffffffffffffffffffffffffffffff021916908373ffffffffffffffffffffffffffffffffffffffff1602179055508073ffffffffffffffffffffffffffffffffffffffff16600073ffffffffffffffffffffffffffffffffffffffff167f8be0079c531659141344cd1fd0a4f28419497f9722a3daafe3b4186f6b6457e060405160405180910390a35080156126525760008060016101000a81548160ff0219169083151502179055505b50565b6000838311158290612702576040517f08c379a00000000000000000000000000000000000000000000000000000000081526004018080602001828103825283818151815260200191508051906020019080838360005b838110156126c75780820151818401526020810190506126ac565b50505050905090810190601f1680156126f45780820380516001836020036101000a031916815260200191505b509250505060405180910390fd5b5060008385039050809150509392505050565b80606c60008473ffffffffffffffffffffffffffffffffffffffff1673ffffffffffffffffffffffffffffffffffffffff168152602001908152602001600020600082825401925050819055505050565b60008083118290612812576040517f08c379a00000000000000000000000000000000000000000000000000000000081526004018080602001828103825283818151815260200191508051906020019080838360005b838110156127d75780820151818401526020810190506127bc565b50505050905090810190601f1680156128045780820380516001836020036101000a031916815260200191505b509250505060405180910390fd5b50600083858161281e57fe5b04905080915050939250505056fe526573756c74696e672065787069726174696f6e2064617465206d757374206265206c657373207468616e206f7220657175616c20746f2037333020646179734f776e61626c653a206e6577206f776e657220697320746865207a65726f20616464726573734d6573736167652076616c7565206d7573742062652067726561746572207468616e206f7220657175616c20746f2074686520746f74616c206275792070726963654f6e6c7920686f6c646572206f66206c6963656e73652063616e2063616c6c20746869732066756e6374696f6e2e496e697469616c697a61626c653a20636f6e747261637420697320616c726561647920696e697469616c697a6564526573756c74696e672065787069726174696f6e2064617465206d757374206265206174206c65617374203120646179536166654d6174683a206d756c7469706c69636174696f6e206f766572666c6f77496e697469616c2076616c7565206d757374206265203e3d20746865207265717569726564206d696e696d756d2076616c756543757272656e74206c6963656e736520666f722073616c65207072696365202b2063757272656e74206665652062616c616e63652069732061626f7665206d6178207075726368617365207072696365526573756c74696e672065787069726174696f6e2064617465206d757374206265206174206c656173742033363520646179734e65772076616c7565206d757374206265203e3d20746865207265717569726564206d696e696d756d2076616c7565a26469706673582212204b0552e984b613ac7710dfd3158fdb0e498a3c4a3effc4f912618c9f183ea1d864736f6c63430006020033",
  "linkReferences": {},
  "deployedLinkReferences": {}
}